{
	"WTFApe.sol": {
		"WTFApe": {
			"abi": [
				{
					"inputs": [
						{
							"internalType": "string",
							"name": "name_",
							"type": "string"
						},
						{
							"internalType": "string",
							"name": "symbol_",
							"type": "string"
						}
					],
					"stateMutability": "nonpayable",
					"type": "constructor"
				},
				{
					"inputs": [
						{
							"internalType": "address",
							"name": "receiver",
							"type": "address"
						}
					],
					"name": "ERC721InvalidReceiver",
					"type": "error"
				},
				{
					"anonymous": false,
					"inputs": [
						{
							"indexed": true,
							"internalType": "address",
							"name": "owner",
							"type": "address"
						},
						{
							"indexed": true,
							"internalType": "address",
							"name": "approved",
							"type": "address"
						},
						{
							"indexed": true,
							"internalType": "uint256",
							"name": "tokenId",
							"type": "uint256"
						}
					],
					"name": "Approval",
					"type": "event"
				},
				{
					"anonymous": false,
					"inputs": [
						{
							"indexed": true,
							"internalType": "address",
							"name": "owner",
							"type": "address"
						},
						{
							"indexed": true,
							"internalType": "address",
							"name": "operator",
							"type": "address"
						},
						{
							"indexed": false,
							"internalType": "bool",
							"name": "approved",
							"type": "bool"
						}
					],
					"name": "ApprovalForAll",
					"type": "event"
				},
				{
					"anonymous": false,
					"inputs": [
						{
							"indexed": true,
							"internalType": "address",
							"name": "from",
							"type": "address"
						},
						{
							"indexed": true,
							"internalType": "address",
							"name": "to",
							"type": "address"
						},
						{
							"indexed": true,
							"internalType": "uint256",
							"name": "tokenId",
							"type": "uint256"
						}
					],
					"name": "Transfer",
					"type": "event"
				},
				{
					"inputs": [],
					"name": "MAX_APES",
					"outputs": [
						{
							"internalType": "uint256",
							"name": "",
							"type": "uint256"
						}
					],
					"stateMutability": "view",
					"type": "function"
				},
				{
					"inputs": [
						{
							"internalType": "address",
							"name": "to",
							"type": "address"
						},
						{
							"internalType": "uint256",
							"name": "tokenId",
							"type": "uint256"
						}
					],
					"name": "approve",
					"outputs": [],
					"stateMutability": "nonpayable",
					"type": "function"
				},
				{
					"inputs": [
						{
							"internalType": "address",
							"name": "owner",
							"type": "address"
						}
					],
					"name": "balanceOf",
					"outputs": [
						{
							"internalType": "uint256",
							"name": "",
							"type": "uint256"
						}
					],
					"stateMutability": "view",
					"type": "function"
				},
				{
					"inputs": [
						{
							"internalType": "uint256",
							"name": "tokenId",
							"type": "uint256"
						}
					],
					"name": "getApproved",
					"outputs": [
						{
							"internalType": "address",
							"name": "",
							"type": "address"
						}
					],
					"stateMutability": "view",
					"type": "function"
				},
				{
					"inputs": [
						{
							"internalType": "address",
							"name": "owner",
							"type": "address"
						},
						{
							"internalType": "address",
							"name": "operator",
							"type": "address"
						}
					],
					"name": "isApprovedForAll",
					"outputs": [
						{
							"internalType": "bool",
							"name": "",
							"type": "bool"
						}
					],
					"stateMutability": "view",
					"type": "function"
				},
				{
					"inputs": [
						{
							"internalType": "address",
							"name": "to",
							"type": "address"
						},
						{
							"internalType": "uint256",
							"name": "tokenId",
							"type": "uint256"
						}
					],
					"name": "mint",
					"outputs": [],
					"stateMutability": "nonpayable",
					"type": "function"
				},
				{
					"inputs": [],
					"name": "name",
					"outputs": [
						{
							"internalType": "string",
							"name": "",
							"type": "string"
						}
					],
					"stateMutability": "view",
					"type": "function"
				},
				{
					"inputs": [
						{
							"internalType": "uint256",
							"name": "tokenId",
							"type": "uint256"
						}
					],
					"name": "ownerOf",
					"outputs": [
						{
							"internalType": "address",
							"name": "owner",
							"type": "address"
						}
					],
					"stateMutability": "view",
					"type": "function"
				},
				{
					"inputs": [
						{
							"internalType": "address",
							"name": "from",
							"type": "address"
						},
						{
							"internalType": "address",
							"name": "to",
							"type": "address"
						},
						{
							"internalType": "uint256",
							"name": "tokenId",
							"type": "uint256"
						}
					],
					"name": "safeTransferFrom",
					"outputs": [],
					"stateMutability": "nonpayable",
					"type": "function"
				},
				{
					"inputs": [
						{
							"internalType": "address",
							"name": "from",
							"type": "address"
						},
						{
							"internalType": "address",
							"name": "to",
							"type": "address"
						},
						{
							"internalType": "uint256",
							"name": "tokenId",
							"type": "uint256"
						},
						{
							"internalType": "bytes",
							"name": "_data",
							"type": "bytes"
						}
					],
					"name": "safeTransferFrom",
					"outputs": [],
					"stateMutability": "nonpayable",
					"type": "function"
				},
				{
					"inputs": [
						{
							"internalType": "address",
							"name": "operator",
							"type": "address"
						},
						{
							"internalType": "bool",
							"name": "approved",
							"type": "bool"
						}
					],
					"name": "setApprovalForAll",
					"outputs": [],
					"stateMutability": "nonpayable",
					"type": "function"
				},
				{
					"inputs": [
						{
							"internalType": "bytes4",
							"name": "interfaceId",
							"type": "bytes4"
						}
					],
					"name": "supportsInterface",
					"outputs": [
						{
							"internalType": "bool",
							"name": "",
							"type": "bool"
						}
					],
					"stateMutability": "pure",
					"type": "function"
				},
				{
					"inputs": [],
					"name": "symbol",
					"outputs": [
						{
							"internalType": "string",
							"name": "",
							"type": "string"
						}
					],
					"stateMutability": "view",
					"type": "function"
				},
				{
					"inputs": [
						{
							"internalType": "uint256",
							"name": "tokenId",
							"type": "uint256"
						}
					],
					"name": "tokenURI",
					"outputs": [
						{
							"internalType": "string",
							"name": "",
							"type": "string"
						}
					],
					"stateMutability": "view",
					"type": "function"
				},
				{
					"inputs": [
						{
							"internalType": "address",
							"name": "from",
							"type": "address"
						},
						{
							"internalType": "address",
							"name": "to",
							"type": "address"
						},
						{
							"internalType": "uint256",
							"name": "tokenId",
							"type": "uint256"
						}
					],
					"name": "transferFrom",
					"outputs": [],
					"stateMutability": "nonpayable",
					"type": "function"
				}
			],
			"devdoc": {
				"kind": "dev",
				"methods": {
					"supportsInterface(bytes4)": {
						"details": "Returns true if contract implements the `interfaceId` for querying. See https://eips.ethereum.org/EIPS/eip-165#how-interfaces-are-identified[EIP section] for the definition of what an interface is."
					}
				},
				"version": 1
			},
			"evm": {
				"assembly": "    /* \"WTFApe.sol\":99:746  contract WTFApe is ERC721{... */\n  mstore(0x40, 0x80)\n    /* \"WTFApe.sol\":154:159  10000 */\n  0x2710\n    /* \"WTFApe.sol\":131:159  uint public MAX_APES = 10000 */\n  0x06\n  sstore\n    /* \"WTFApe.sol\":217:303  constructor(string memory name_, string memory symbol_) ERC721(name_, symbol_){... */\n  callvalue\n  dup1\n  iszero\n  tag_1\n  jumpi\n  revert(0x00, 0x00)\ntag_1:\n  pop\n  mload(0x40)\n  sub(codesize, bytecodeSize)\n  dup1\n  bytecodeSize\n  dup4\n  codecopy\n  dup2\n  dup2\n  add\n  0x40\n  mstore\n  dup2\n  add\n  swap1\n  tag_2\n  swap2\n  swap1\n  tag_3\n  jump\t// in\ntag_2:\n    /* \"WTFApe.sol\":280:285  name_ */\n  dup2\n    /* \"WTFApe.sol\":287:294  symbol_ */\n  dup2\n    /* \"ERC721.sol\":1112:1117  name_ */\n  dup2\n    /* \"ERC721.sol\":1105:1109  name */\n  0x00\n    /* \"ERC721.sol\":1105:1117  name = name_ */\n  swap1\n  dup2\n  tag_7\n  swap2\n  swap1\n  tag_8\n  jump\t// in\ntag_7:\n  pop\n    /* \"ERC721.sol\":1137:1144  symbol_ */\n  dup1\n    /* \"ERC721.sol\":1128:1134  symbol */\n  0x01\n    /* \"ERC721.sol\":1128:1144  symbol = symbol_ */\n  swap1\n  dup2\n  tag_9\n  swap2\n  swap1\n  tag_8\n  jump\t// in\ntag_9:\n  pop\n    /* \"ERC721.sol\":1038:1152  constructor(string memory name_, string memory symbol_) {... */\n  pop\n  pop\n    /* \"WTFApe.sol\":217:303  constructor(string memory name_, string memory symbol_) ERC721(name_, symbol_){... */\n  pop\n  pop\n    /* \"WTFApe.sol\":99:746  contract WTFApe is ERC721{... */\n  jump(tag_11)\n    /* \"#utility.yul\":7:82   */\ntag_12:\n    /* \"#utility.yul\":40:46   */\n  0x00\n    /* \"#utility.yul\":73:75   */\n  0x40\n    /* \"#utility.yul\":67:76   */\n  mload\n    /* \"#utility.yul\":57:76   */\n  swap1\n  pop\n    /* \"#utility.yul\":7:82   */\n  swap1\n  jump\t// out\n    /* \"#utility.yul\":88:205   */\ntag_13:\n    /* \"#utility.yul\":197:198   */\n  0x00\n    /* \"#utility.yul\":194:195   */\n  0x00\n    /* \"#utility.yul\":187:199   */\n  revert\n    /* \"#utility.yul\":211:328   */\ntag_14:\n    /* \"#utility.yul\":320:321   */\n  0x00\n    /* \"#utility.yul\":317:318   */\n  0x00\n    /* \"#utility.yul\":310:322   */\n  revert\n    /* \"#utility.yul\":334:451   */\ntag_15:\n    /* \"#utility.yul\":443:444   */\n  0x00\n    /* \"#utility.yul\":440:441   */\n  0x00\n    /* \"#utility.yul\":433:445   */\n  revert\n    /* \"#utility.yul\":457:574   */\ntag_16:\n    /* \"#utility.yul\":566:567   */\n  0x00\n    /* \"#utility.yul\":563:564   */\n  0x00\n    /* \"#utility.yul\":556:568   */\n  revert\n    /* \"#utility.yul\":580:682   */\ntag_17:\n    /* \"#utility.yul\":621:627   */\n  0x00\n    /* \"#utility.yul\":672:674   */\n  0x1f\n    /* \"#utility.yul\":668:675   */\n  not\n    /* \"#utility.yul\":663:665   */\n  0x1f\n    /* \"#utility.yul\":656:661   */\n  dup4\n    /* \"#utility.yul\":652:666   */\n  add\n    /* \"#utility.yul\":648:676   */\n  and\n    /* \"#utility.yul\":638:676   */\n  swap1\n  pop\n    /* \"#utility.yul\":580:682   */\n  swap2\n  swap1\n  pop\n  jump\t// out\n    /* \"#utility.yul\":688:868   */\ntag_18:\n    /* \"#utility.yul\":736:813   */\n  0x4e487b7100000000000000000000000000000000000000000000000000000000\n    /* \"#utility.yul\":733:734   */\n  0x00\n    /* \"#utility.yul\":726:814   */\n  mstore\n    /* \"#utility.yul\":833:837   */\n  0x41\n    /* \"#utility.yul\":830:831   */\n  0x04\n    /* \"#utility.yul\":823:838   */\n  mstore\n    /* \"#utility.yul\":857:861   */\n  0x24\n    /* \"#utility.yul\":854:855   */\n  0x00\n    /* \"#utility.yul\":847:862   */\n  revert\n    /* \"#utility.yul\":874:1155   */\ntag_19:\n    /* \"#utility.yul\":957:984   */\n  tag_53\n    /* \"#utility.yul\":979:983   */\n  dup3\n    /* \"#utility.yul\":957:984   */\n  tag_17\n  jump\t// in\ntag_53:\n    /* \"#utility.yul\":949:955   */\n  dup2\n    /* \"#utility.yul\":945:985   */\n  add\n    /* \"#utility.yul\":1087:1093   */\n  dup2\n    /* \"#utility.yul\":1075:1085   */\n  dup2\n    /* \"#utility.yul\":1072:1094   */\n  lt\n    /* \"#utility.yul\":1051:1069   */\n  0xffffffffffffffff\n    /* \"#utility.yul\":1039:1049   */\n  dup3\n    /* \"#utility.yul\":1036:1070   */\n  gt\n    /* \"#utility.yul\":1033:1095   */\n  or\n    /* \"#utility.yul\":1030:1118   */\n  iszero\n  tag_54\n  jumpi\n    /* \"#utility.yul\":1098:1116   */\n  tag_55\n  tag_18\n  jump\t// in\ntag_55:\n    /* \"#utility.yul\":1030:1118   */\ntag_54:\n    /* \"#utility.yul\":1138:1148   */\n  dup1\n    /* \"#utility.yul\":1134:1136   */\n  0x40\n    /* \"#utility.yul\":1127:1149   */\n  mstore\n    /* \"#utility.yul\":917:1155   */\n  pop\n    /* \"#utility.yul\":874:1155   */\n  pop\n  pop\n  jump\t// out\n    /* \"#utility.yul\":1161:1290   */\ntag_20:\n    /* \"#utility.yul\":1195:1201   */\n  0x00\n    /* \"#utility.yul\":1222:1242   */\n  tag_57\n  tag_12\n  jump\t// in\ntag_57:\n    /* \"#utility.yul\":1212:1242   */\n  swap1\n  pop\n    /* \"#utility.yul\":1251:1284   */\n  tag_58\n    /* \"#utility.yul\":1279:1283   */\n  dup3\n    /* \"#utility.yul\":1271:1277   */\n  dup3\n    /* \"#utility.yul\":1251:1284   */\n  tag_19\n  jump\t// in\ntag_58:\n    /* \"#utility.yul\":1161:1290   */\n  swap2\n  swap1\n  pop\n  jump\t// out\n    /* \"#utility.yul\":1296:1604   */\ntag_21:\n    /* \"#utility.yul\":1358:1362   */\n  0x00\n    /* \"#utility.yul\":1448:1466   */\n  0xffffffffffffffff\n    /* \"#utility.yul\":1440:1446   */\n  dup3\n    /* \"#utility.yul\":1437:1467   */\n  gt\n    /* \"#utility.yul\":1434:1490   */\n  iszero\n  tag_60\n  jumpi\n    /* \"#utility.yul\":1470:1488   */\n  tag_61\n  tag_18\n  jump\t// in\ntag_61:\n    /* \"#utility.yul\":1434:1490   */\ntag_60:\n    /* \"#utility.yul\":1508:1537   */\n  tag_62\n    /* \"#utility.yul\":1530:1536   */\n  dup3\n    /* \"#utility.yul\":1508:1537   */\n  tag_17\n  jump\t// in\ntag_62:\n    /* \"#utility.yul\":1500:1537   */\n  swap1\n  pop\n    /* \"#utility.yul\":1592:1596   */\n  0x20\n    /* \"#utility.yul\":1586:1590   */\n  dup2\n    /* \"#utility.yul\":1582:1597   */\n  add\n    /* \"#utility.yul\":1574:1597   */\n  swap1\n  pop\n    /* \"#utility.yul\":1296:1604   */\n  swap2\n  swap1\n  pop\n  jump\t// out\n    /* \"#utility.yul\":1610:1858   */\ntag_22:\n    /* \"#utility.yul\":1692:1693   */\n  0x00\n    /* \"#utility.yul\":1702:1815   */\ntag_64:\n    /* \"#utility.yul\":1716:1722   */\n  dup4\n    /* \"#utility.yul\":1713:1714   */\n  dup2\n    /* \"#utility.yul\":1710:1723   */\n  lt\n    /* \"#utility.yul\":1702:1815   */\n  iszero\n  tag_66\n  jumpi\n    /* \"#utility.yul\":1801:1802   */\n  dup1\n    /* \"#utility.yul\":1796:1799   */\n  dup3\n    /* \"#utility.yul\":1792:1803   */\n  add\n    /* \"#utility.yul\":1786:1804   */\n  mload\n    /* \"#utility.yul\":1782:1783   */\n  dup2\n    /* \"#utility.yul\":1777:1780   */\n  dup5\n    /* \"#utility.yul\":1773:1784   */\n  add\n    /* \"#utility.yul\":1766:1805   */\n  mstore\n    /* \"#utility.yul\":1738:1740   */\n  0x20\n    /* \"#utility.yul\":1735:1736   */\n  dup2\n    /* \"#utility.yul\":1731:1741   */\n  add\n    /* \"#utility.yul\":1726:1741   */\n  swap1\n  pop\n    /* \"#utility.yul\":1702:1815   */\n  jump(tag_64)\ntag_66:\n    /* \"#utility.yul\":1849:1850   */\n  0x00\n    /* \"#utility.yul\":1840:1846   */\n  dup5\n    /* \"#utility.yul\":1835:1838   */\n  dup5\n    /* \"#utility.yul\":1831:1847   */\n  add\n    /* \"#utility.yul\":1824:1851   */\n  mstore\n    /* \"#utility.yul\":1672:1858   */\n  pop\n    /* \"#utility.yul\":1610:1858   */\n  pop\n  pop\n  pop\n  jump\t// out\n    /* \"#utility.yul\":1864:2298   */\ntag_23:\n    /* \"#utility.yul\":1953:1958   */\n  0x00\n    /* \"#utility.yul\":1978:2044   */\n  tag_68\n    /* \"#utility.yul\":1994:2043   */\n  tag_69\n    /* \"#utility.yul\":2036:2042   */\n  dup5\n    /* \"#utility.yul\":1994:2043   */\n  tag_21\n  jump\t// in\ntag_69:\n    /* \"#utility.yul\":1978:2044   */\n  tag_20\n  jump\t// in\ntag_68:\n    /* \"#utility.yul\":1969:2044   */\n  swap1\n  pop\n    /* \"#utility.yul\":2067:2073   */\n  dup3\n    /* \"#utility.yul\":2060:2065   */\n  dup2\n    /* \"#utility.yul\":2053:2074   */\n  mstore\n    /* \"#utility.yul\":2105:2109   */\n  0x20\n    /* \"#utility.yul\":2098:2103   */\n  dup2\n    /* \"#utility.yul\":2094:2110   */\n  add\n    /* \"#utility.yul\":2143:2146   */\n  dup5\n    /* \"#utility.yul\":2134:2140   */\n  dup5\n    /* \"#utility.yul\":2129:2132   */\n  dup5\n    /* \"#utility.yul\":2125:2141   */\n  add\n    /* \"#utility.yul\":2122:2147   */\n  gt\n    /* \"#utility.yul\":2119:2231   */\n  iszero\n  tag_70\n  jumpi\n    /* \"#utility.yul\":2150:2229   */\n  tag_71\n  tag_16\n  jump\t// in\ntag_71:\n    /* \"#utility.yul\":2119:2231   */\ntag_70:\n    /* \"#utility.yul\":2240:2292   */\n  tag_72\n    /* \"#utility.yul\":2285:2291   */\n  dup5\n    /* \"#utility.yul\":2280:2283   */\n  dup3\n    /* \"#utility.yul\":2275:2278   */\n  dup6\n    /* \"#utility.yul\":2240:2292   */\n  tag_22\n  jump\t// in\ntag_72:\n    /* \"#utility.yul\":1959:2298   */\n  pop\n    /* \"#utility.yul\":1864:2298   */\n  swap4\n  swap3\n  pop\n  pop\n  pop\n  jump\t// out\n    /* \"#utility.yul\":2318:2673   */\ntag_24:\n    /* \"#utility.yul\":2385:2390   */\n  0x00\n    /* \"#utility.yul\":2434:2437   */\n  dup3\n    /* \"#utility.yul\":2427:2431   */\n  0x1f\n    /* \"#utility.yul\":2419:2425   */\n  dup4\n    /* \"#utility.yul\":2415:2432   */\n  add\n    /* \"#utility.yul\":2411:2438   */\n  slt\n    /* \"#utility.yul\":2401:2523   */\n  tag_74\n  jumpi\n    /* \"#utility.yul\":2442:2521   */\n  tag_75\n  tag_15\n  jump\t// in\ntag_75:\n    /* \"#utility.yul\":2401:2523   */\ntag_74:\n    /* \"#utility.yul\":2552:2558   */\n  dup2\n    /* \"#utility.yul\":2546:2559   */\n  mload\n    /* \"#utility.yul\":2577:2667   */\n  tag_76\n    /* \"#utility.yul\":2663:2666   */\n  dup5\n    /* \"#utility.yul\":2655:2661   */\n  dup3\n    /* \"#utility.yul\":2648:2652   */\n  0x20\n    /* \"#utility.yul\":2640:2646   */\n  dup7\n    /* \"#utility.yul\":2636:2653   */\n  add\n    /* \"#utility.yul\":2577:2667   */\n  tag_23\n  jump\t// in\ntag_76:\n    /* \"#utility.yul\":2568:2667   */\n  swap2\n  pop\n    /* \"#utility.yul\":2391:2673   */\n  pop\n    /* \"#utility.yul\":2318:2673   */\n  swap3\n  swap2\n  pop\n  pop\n  jump\t// out\n    /* \"#utility.yul\":2679:3532   */\ntag_3:\n    /* \"#utility.yul\":2778:2784   */\n  0x00\n    /* \"#utility.yul\":2786:2792   */\n  0x00\n    /* \"#utility.yul\":2835:2837   */\n  0x40\n    /* \"#utility.yul\":2823:2832   */\n  dup4\n    /* \"#utility.yul\":2814:2821   */\n  dup6\n    /* \"#utility.yul\":2810:2833   */\n  sub\n    /* \"#utility.yul\":2806:2838   */\n  slt\n    /* \"#utility.yul\":2803:2922   */\n  iszero\n  tag_78\n  jumpi\n    /* \"#utility.yul\":2841:2920   */\n  tag_79\n  tag_13\n  jump\t// in\ntag_79:\n    /* \"#utility.yul\":2803:2922   */\ntag_78:\n    /* \"#utility.yul\":2982:2983   */\n  0x00\n    /* \"#utility.yul\":2971:2980   */\n  dup4\n    /* \"#utility.yul\":2967:2984   */\n  add\n    /* \"#utility.yul\":2961:2985   */\n  mload\n    /* \"#utility.yul\":3012:3030   */\n  0xffffffffffffffff\n    /* \"#utility.yul\":3004:3010   */\n  dup2\n    /* \"#utility.yul\":3001:3031   */\n  gt\n    /* \"#utility.yul\":2998:3115   */\n  iszero\n  tag_80\n  jumpi\n    /* \"#utility.yul\":3034:3113   */\n  tag_81\n  tag_14\n  jump\t// in\ntag_81:\n    /* \"#utility.yul\":2998:3115   */\ntag_80:\n    /* \"#utility.yul\":3139:3213   */\n  tag_82\n    /* \"#utility.yul\":3205:3212   */\n  dup6\n    /* \"#utility.yul\":3196:3202   */\n  dup3\n    /* \"#utility.yul\":3185:3194   */\n  dup7\n    /* \"#utility.yul\":3181:3203   */\n  add\n    /* \"#utility.yul\":3139:3213   */\n  tag_24\n  jump\t// in\ntag_82:\n    /* \"#utility.yul\":3129:3213   */\n  swap3\n  pop\n    /* \"#utility.yul\":2932:3223   */\n  pop\n    /* \"#utility.yul\":3283:3285   */\n  0x20\n    /* \"#utility.yul\":3272:3281   */\n  dup4\n    /* \"#utility.yul\":3268:3286   */\n  add\n    /* \"#utility.yul\":3262:3287   */\n  mload\n    /* \"#utility.yul\":3314:3332   */\n  0xffffffffffffffff\n    /* \"#utility.yul\":3306:3312   */\n  dup2\n    /* \"#utility.yul\":3303:3333   */\n  gt\n    /* \"#utility.yul\":3300:3417   */\n  iszero\n  tag_83\n  jumpi\n    /* \"#utility.yul\":3336:3415   */\n  tag_84\n  tag_14\n  jump\t// in\ntag_84:\n    /* \"#utility.yul\":3300:3417   */\ntag_83:\n    /* \"#utility.yul\":3441:3515   */\n  tag_85\n    /* \"#utility.yul\":3507:3514   */\n  dup6\n    /* \"#utility.yul\":3498:3504   */\n  dup3\n    /* \"#utility.yul\":3487:3496   */\n  dup7\n    /* \"#utility.yul\":3483:3505   */\n  add\n    /* \"#utility.yul\":3441:3515   */\n  tag_24\n  jump\t// in\ntag_85:\n    /* \"#utility.yul\":3431:3515   */\n  swap2\n  pop\n    /* \"#utility.yul\":3233:3525   */\n  pop\n    /* \"#utility.yul\":2679:3532   */\n  swap3\n  pop\n  swap3\n  swap1\n  pop\n  jump\t// out\n    /* \"#utility.yul\":3538:3637   */\ntag_25:\n    /* \"#utility.yul\":3590:3596   */\n  0x00\n    /* \"#utility.yul\":3624:3629   */\n  dup2\n    /* \"#utility.yul\":3618:3630   */\n  mload\n    /* \"#utility.yul\":3608:3630   */\n  swap1\n  pop\n    /* \"#utility.yul\":3538:3637   */\n  swap2\n  swap1\n  pop\n  jump\t// out\n    /* \"#utility.yul\":3643:3823   */\ntag_26:\n    /* \"#utility.yul\":3691:3768   */\n  0x4e487b7100000000000000000000000000000000000000000000000000000000\n    /* \"#utility.yul\":3688:3689   */\n  0x00\n    /* \"#utility.yul\":3681:3769   */\n  mstore\n    /* \"#utility.yul\":3788:3792   */\n  0x22\n    /* \"#utility.yul\":3785:3786   */\n  0x04\n    /* \"#utility.yul\":3778:3793   */\n  mstore\n    /* \"#utility.yul\":3812:3816   */\n  0x24\n    /* \"#utility.yul\":3809:3810   */\n  0x00\n    /* \"#utility.yul\":3802:3817   */\n  revert\n    /* \"#utility.yul\":3829:4149   */\ntag_27:\n    /* \"#utility.yul\":3873:3879   */\n  0x00\n    /* \"#utility.yul\":3910:3911   */\n  0x02\n    /* \"#utility.yul\":3904:3908   */\n  dup3\n    /* \"#utility.yul\":3900:3912   */\n  div\n    /* \"#utility.yul\":3890:3912   */\n  swap1\n  pop\n    /* \"#utility.yul\":3957:3958   */\n  0x01\n    /* \"#utility.yul\":3951:3955   */\n  dup3\n    /* \"#utility.yul\":3947:3959   */\n  and\n    /* \"#utility.yul\":3978:3996   */\n  dup1\n    /* \"#utility.yul\":3968:4049   */\n  tag_89\n  jumpi\n    /* \"#utility.yul\":4034:4038   */\n  0x7f\n    /* \"#utility.yul\":4026:4032   */\n  dup3\n    /* \"#utility.yul\":4022:4039   */\n  and\n    /* \"#utility.yul\":4012:4039   */\n  swap2\n  pop\n    /* \"#utility.yul\":3968:4049   */\ntag_89:\n    /* \"#utility.yul\":4096:4098   */\n  0x20\n    /* \"#utility.yul\":4088:4094   */\n  dup3\n    /* \"#utility.yul\":4085:4099   */\n  lt\n    /* \"#utility.yul\":4065:4083   */\n  dup2\n    /* \"#utility.yul\":4062:4100   */\n  sub\n    /* \"#utility.yul\":4059:4143   */\n  tag_90\n  jumpi\n    /* \"#utility.yul\":4115:4133   */\n  tag_91\n  tag_26\n  jump\t// in\ntag_91:\n    /* \"#utility.yul\":4059:4143   */\ntag_90:\n    /* \"#utility.yul\":3880:4149   */\n  pop\n    /* \"#utility.yul\":3829:4149   */\n  swap2\n  swap1\n  pop\n  jump\t// out\n    /* \"#utility.yul\":4155:4296   */\ntag_28:\n    /* \"#utility.yul\":4204:4208   */\n  0x00\n    /* \"#utility.yul\":4227:4230   */\n  dup2\n    /* \"#utility.yul\":4219:4230   */\n  swap1\n  pop\n    /* \"#utility.yul\":4250:4253   */\n  dup2\n    /* \"#utility.yul\":4247:4248   */\n  0x00\n    /* \"#utility.yul\":4240:4254   */\n  mstore\n    /* \"#utility.yul\":4284:4288   */\n  0x20\n    /* \"#utility.yul\":4281:4282   */\n  0x00\n    /* \"#utility.yul\":4271:4289   */\n  keccak256\n    /* \"#utility.yul\":4263:4289   */\n  swap1\n  pop\n    /* \"#utility.yul\":4155:4296   */\n  swap2\n  swap1\n  pop\n  jump\t// out\n    /* \"#utility.yul\":4302:4395   */\ntag_29:\n    /* \"#utility.yul\":4339:4345   */\n  0x00\n    /* \"#utility.yul\":4386:4388   */\n  0x20\n    /* \"#utility.yul\":4381:4383   */\n  0x1f\n    /* \"#utility.yul\":4374:4379   */\n  dup4\n    /* \"#utility.yul\":4370:4384   */\n  add\n    /* \"#utility.yul\":4366:4389   */\n  div\n    /* \"#utility.yul\":4356:4389   */\n  swap1\n  pop\n    /* \"#utility.yul\":4302:4395   */\n  swap2\n  swap1\n  pop\n  jump\t// out\n    /* \"#utility.yul\":4401:4508   */\ntag_30:\n    /* \"#utility.yul\":4445:4453   */\n  0x00\n    /* \"#utility.yul\":4495:4500   */\n  dup3\n    /* \"#utility.yul\":4489:4493   */\n  dup3\n    /* \"#utility.yul\":4485:4501   */\n  shl\n    /* \"#utility.yul\":4464:4501   */\n  swap1\n  pop\n    /* \"#utility.yul\":4401:4508   */\n  swap3\n  swap2\n  pop\n  pop\n  jump\t// out\n    /* \"#utility.yul\":4514:4907   */\ntag_31:\n    /* \"#utility.yul\":4583:4589   */\n  0x00\n    /* \"#utility.yul\":4633:4634   */\n  0x08\n    /* \"#utility.yul\":4621:4631   */\n  dup4\n    /* \"#utility.yul\":4617:4635   */\n  mul\n    /* \"#utility.yul\":4656:4753   */\n  tag_96\n    /* \"#utility.yul\":4686:4752   */\n  0xffffffffffffffffffffffffffffffffffffffffffffffffffffffffffffffff\n    /* \"#utility.yul\":4675:4684   */\n  dup3\n    /* \"#utility.yul\":4656:4753   */\n  tag_30\n  jump\t// in\ntag_96:\n    /* \"#utility.yul\":4774:4813   */\n  tag_97\n    /* \"#utility.yul\":4804:4812   */\n  dup7\n    /* \"#utility.yul\":4793:4802   */\n  dup4\n    /* \"#utility.yul\":4774:4813   */\n  tag_30\n  jump\t// in\ntag_97:\n    /* \"#utility.yul\":4762:4813   */\n  swap6\n  pop\n    /* \"#utility.yul\":4846:4850   */\n  dup1\n    /* \"#utility.yul\":4842:4851   */\n  not\n    /* \"#utility.yul\":4835:4840   */\n  dup5\n    /* \"#utility.yul\":4831:4852   */\n  and\n    /* \"#utility.yul\":4822:4852   */\n  swap4\n  pop\n    /* \"#utility.yul\":4895:4899   */\n  dup1\n    /* \"#utility.yul\":4885:4893   */\n  dup7\n    /* \"#utility.yul\":4881:4900   */\n  and\n    /* \"#utility.yul\":4874:4879   */\n  dup5\n    /* \"#utility.yul\":4871:4901   */\n  or\n    /* \"#utility.yul\":4861:4901   */\n  swap3\n  pop\n    /* \"#utility.yul\":4590:4907   */\n  pop\n  pop\n    /* \"#utility.yul\":4514:4907   */\n  swap4\n  swap3\n  pop\n  pop\n  pop\n  jump\t// out\n    /* \"#utility.yul\":4913:4990   */\ntag_32:\n    /* \"#utility.yul\":4950:4957   */\n  0x00\n    /* \"#utility.yul\":4979:4984   */\n  dup2\n    /* \"#utility.yul\":4968:4984   */\n  swap1\n  pop\n    /* \"#utility.yul\":4913:4990   */\n  swap2\n  swap1\n  pop\n  jump\t// out\n    /* \"#utility.yul\":4996:5056   */\ntag_33:\n    /* \"#utility.yul\":5024:5027   */\n  0x00\n    /* \"#utility.yul\":5045:5050   */\n  dup2\n    /* \"#utility.yul\":5038:5050   */\n  swap1\n  pop\n    /* \"#utility.yul\":4996:5056   */\n  swap2\n  swap1\n  pop\n  jump\t// out\n    /* \"#utility.yul\":5062:5204   */\ntag_34:\n    /* \"#utility.yul\":5112:5121   */\n  0x00\n    /* \"#utility.yul\":5145:5198   */\n  tag_101\n    /* \"#utility.yul\":5163:5197   */\n  tag_102\n    /* \"#utility.yul\":5172:5196   */\n  tag_103\n    /* \"#utility.yul\":5190:5195   */\n  dup5\n    /* \"#utility.yul\":5172:5196   */\n  tag_32\n  jump\t// in\ntag_103:\n    /* \"#utility.yul\":5163:5197   */\n  tag_33\n  jump\t// in\ntag_102:\n    /* \"#utility.yul\":5145:5198   */\n  tag_32\n  jump\t// in\ntag_101:\n    /* \"#utility.yul\":5132:5198   */\n  swap1\n  pop\n    /* \"#utility.yul\":5062:5204   */\n  swap2\n  swap1\n  pop\n  jump\t// out\n    /* \"#utility.yul\":5210:5285   */\ntag_35:\n    /* \"#utility.yul\":5253:5256   */\n  0x00\n    /* \"#utility.yul\":5274:5279   */\n  dup2\n    /* \"#utility.yul\":5267:5279   */\n  swap1\n  pop\n    /* \"#utility.yul\":5210:5285   */\n  swap2\n  swap1\n  pop\n  jump\t// out\n    /* \"#utility.yul\":5291:5560   */\ntag_36:\n    /* \"#utility.yul\":5401:5440   */\n  tag_106\n    /* \"#utility.yul\":5432:5439   */\n  dup4\n    /* \"#utility.yul\":5401:5440   */\n  tag_34\n  jump\t// in\ntag_106:\n    /* \"#utility.yul\":5462:5553   */\n  tag_107\n    /* \"#utility.yul\":5511:5552   */\n  tag_108\n    /* \"#utility.yul\":5535:5551   */\n  dup3\n    /* \"#utility.yul\":5511:5552   */\n  tag_35\n  jump\t// in\ntag_108:\n    /* \"#utility.yul\":5503:5509   */\n  dup5\n    /* \"#utility.yul\":5496:5500   */\n  dup5\n    /* \"#utility.yul\":5490:5501   */\n  sload\n    /* \"#utility.yul\":5462:5553   */\n  tag_31\n  jump\t// in\ntag_107:\n    /* \"#utility.yul\":5456:5460   */\n  dup3\n    /* \"#utility.yul\":5449:5554   */\n  sstore\n    /* \"#utility.yul\":5367:5560   */\n  pop\n    /* \"#utility.yul\":5291:5560   */\n  pop\n  pop\n  pop\n  jump\t// out\n    /* \"#utility.yul\":5566:5639   */\ntag_37:\n    /* \"#utility.yul\":5611:5614   */\n  0x00\n    /* \"#utility.yul\":5632:5633   */\n  0x00\n    /* \"#utility.yul\":5625:5633   */\n  swap1\n  pop\n    /* \"#utility.yul\":5566:5639   */\n  swap1\n  jump\t// out\n    /* \"#utility.yul\":5645:5834   */\ntag_38:\n    /* \"#utility.yul\":5722:5754   */\n  tag_111\n  tag_37\n  jump\t// in\ntag_111:\n    /* \"#utility.yul\":5763:5828   */\n  tag_112\n    /* \"#utility.yul\":5821:5827   */\n  dup2\n    /* \"#utility.yul\":5813:5819   */\n  dup5\n    /* \"#utility.yul\":5807:5811   */\n  dup5\n    /* \"#utility.yul\":5763:5828   */\n  tag_36\n  jump\t// in\ntag_112:\n    /* \"#utility.yul\":5698:5834   */\n  pop\n    /* \"#utility.yul\":5645:5834   */\n  pop\n  pop\n  jump\t// out\n    /* \"#utility.yul\":5840:6026   */\ntag_39:\n    /* \"#utility.yul\":5900:6020   */\ntag_114:\n    /* \"#utility.yul\":5917:5920   */\n  dup2\n    /* \"#utility.yul\":5910:5915   */\n  dup2\n    /* \"#utility.yul\":5907:5921   */\n  lt\n    /* \"#utility.yul\":5900:6020   */\n  iszero\n  tag_116\n  jumpi\n    /* \"#utility.yul\":5971:6010   */\n  tag_117\n    /* \"#utility.yul\":6008:6009   */\n  0x00\n    /* \"#utility.yul\":6001:6006   */\n  dup3\n    /* \"#utility.yul\":5971:6010   */\n  tag_38\n  jump\t// in\ntag_117:\n    /* \"#utility.yul\":5944:5945   */\n  0x01\n    /* \"#utility.yul\":5937:5942   */\n  dup2\n    /* \"#utility.yul\":5933:5946   */\n  add\n    /* \"#utility.yul\":5924:5946   */\n  swap1\n  pop\n    /* \"#utility.yul\":5900:6020   */\n  jump(tag_114)\ntag_116:\n    /* \"#utility.yul\":5840:6026   */\n  pop\n  pop\n  jump\t// out\n    /* \"#utility.yul\":6032:6575   */\ntag_40:\n    /* \"#utility.yul\":6133:6135   */\n  0x1f\n    /* \"#utility.yul\":6128:6131   */\n  dup3\n    /* \"#utility.yul\":6125:6136   */\n  gt\n    /* \"#utility.yul\":6122:6568   */\n  iszero\n  tag_119\n  jumpi\n    /* \"#utility.yul\":6167:6205   */\n  tag_120\n    /* \"#utility.yul\":6199:6204   */\n  dup2\n    /* \"#utility.yul\":6167:6205   */\n  tag_28\n  jump\t// in\ntag_120:\n    /* \"#utility.yul\":6251:6280   */\n  tag_121\n    /* \"#utility.yul\":6269:6279   */\n  dup5\n    /* \"#utility.yul\":6251:6280   */\n  tag_29\n  jump\t// in\ntag_121:\n    /* \"#utility.yul\":6241:6249   */\n  dup2\n    /* \"#utility.yul\":6237:6281   */\n  add\n    /* \"#utility.yul\":6434:6436   */\n  0x20\n    /* \"#utility.yul\":6422:6432   */\n  dup6\n    /* \"#utility.yul\":6419:6437   */\n  lt\n    /* \"#utility.yul\":6416:6465   */\n  iszero\n  tag_122\n  jumpi\n    /* \"#utility.yul\":6455:6463   */\n  dup2\n    /* \"#utility.yul\":6440:6463   */\n  swap1\n  pop\n    /* \"#utility.yul\":6416:6465   */\ntag_122:\n    /* \"#utility.yul\":6478:6558   */\n  tag_123\n    /* \"#utility.yul\":6534:6556   */\n  tag_124\n    /* \"#utility.yul\":6552:6555   */\n  dup6\n    /* \"#utility.yul\":6534:6556   */\n  tag_29\n  jump\t// in\ntag_124:\n    /* \"#utility.yul\":6524:6532   */\n  dup4\n    /* \"#utility.yul\":6520:6557   */\n  add\n    /* \"#utility.yul\":6507:6518   */\n  dup3\n    /* \"#utility.yul\":6478:6558   */\n  tag_39\n  jump\t// in\ntag_123:\n    /* \"#utility.yul\":6137:6568   */\n  pop\n  pop\n    /* \"#utility.yul\":6122:6568   */\ntag_119:\n    /* \"#utility.yul\":6032:6575   */\n  pop\n  pop\n  pop\n  jump\t// out\n    /* \"#utility.yul\":6581:6698   */\ntag_41:\n    /* \"#utility.yul\":6635:6643   */\n  0x00\n    /* \"#utility.yul\":6685:6690   */\n  dup3\n    /* \"#utility.yul\":6679:6683   */\n  dup3\n    /* \"#utility.yul\":6675:6691   */\n  shr\n    /* \"#utility.yul\":6654:6691   */\n  swap1\n  pop\n    /* \"#utility.yul\":6581:6698   */\n  swap3\n  swap2\n  pop\n  pop\n  jump\t// out\n    /* \"#utility.yul\":6704:6873   */\ntag_42:\n    /* \"#utility.yul\":6748:6754   */\n  0x00\n    /* \"#utility.yul\":6781:6832   */\n  tag_127\n    /* \"#utility.yul\":6829:6830   */\n  0x00\n    /* \"#utility.yul\":6825:6831   */\n  not\n    /* \"#utility.yul\":6817:6822   */\n  dup5\n    /* \"#utility.yul\":6814:6815   */\n  0x08\n    /* \"#utility.yul\":6810:6823   */\n  mul\n    /* \"#utility.yul\":6781:6832   */\n  tag_41\n  jump\t// in\ntag_127:\n    /* \"#utility.yul\":6777:6833   */\n  not\n    /* \"#utility.yul\":6862:6866   */\n  dup1\n    /* \"#utility.yul\":6856:6860   */\n  dup4\n    /* \"#utility.yul\":6852:6867   */\n  and\n    /* \"#utility.yul\":6842:6867   */\n  swap2\n  pop\n    /* \"#utility.yul\":6755:6873   */\n  pop\n    /* \"#utility.yul\":6704:6873   */\n  swap3\n  swap2\n  pop\n  pop\n  jump\t// out\n    /* \"#utility.yul\":6878:7173   */\ntag_43:\n    /* \"#utility.yul\":6954:6958   */\n  0x00\n    /* \"#utility.yul\":7100:7129   */\n  tag_129\n    /* \"#utility.yul\":7125:7128   */\n  dup4\n    /* \"#utility.yul\":7119:7123   */\n  dup4\n    /* \"#utility.yul\":7100:7129   */\n  tag_42\n  jump\t// in\ntag_129:\n    /* \"#utility.yul\":7092:7129   */\n  swap2\n  pop\n    /* \"#utility.yul\":7162:7165   */\n  dup3\n    /* \"#utility.yul\":7159:7160   */\n  0x02\n    /* \"#utility.yul\":7155:7166   */\n  mul\n    /* \"#utility.yul\":7149:7153   */\n  dup3\n    /* \"#utility.yul\":7146:7167   */\n  or\n    /* \"#utility.yul\":7138:7167   */\n  swap1\n  pop\n    /* \"#utility.yul\":6878:7173   */\n  swap3\n  swap2\n  pop\n  pop\n  jump\t// out\n    /* \"#utility.yul\":7178:8573   */\ntag_8:\n    /* \"#utility.yul\":7295:7332   */\n  tag_131\n    /* \"#utility.yul\":7328:7331   */\n  dup3\n    /* \"#utility.yul\":7295:7332   */\n  tag_25\n  jump\t// in\ntag_131:\n    /* \"#utility.yul\":7397:7415   */\n  0xffffffffffffffff\n    /* \"#utility.yul\":7389:7395   */\n  dup2\n    /* \"#utility.yul\":7386:7416   */\n  gt\n    /* \"#utility.yul\":7383:7439   */\n  iszero\n  tag_132\n  jumpi\n    /* \"#utility.yul\":7419:7437   */\n  tag_133\n  tag_18\n  jump\t// in\ntag_133:\n    /* \"#utility.yul\":7383:7439   */\ntag_132:\n    /* \"#utility.yul\":7463:7501   */\n  tag_134\n    /* \"#utility.yul\":7495:7499   */\n  dup3\n    /* \"#utility.yul\":7489:7500   */\n  sload\n    /* \"#utility.yul\":7463:7501   */\n  tag_27\n  jump\t// in\ntag_134:\n    /* \"#utility.yul\":7548:7615   */\n  tag_135\n    /* \"#utility.yul\":7608:7614   */\n  dup3\n    /* \"#utility.yul\":7600:7606   */\n  dup3\n    /* \"#utility.yul\":7594:7598   */\n  dup6\n    /* \"#utility.yul\":7548:7615   */\n  tag_40\n  jump\t// in\ntag_135:\n    /* \"#utility.yul\":7642:7643   */\n  0x00\n    /* \"#utility.yul\":7666:7670   */\n  0x20\n    /* \"#utility.yul\":7653:7670   */\n  swap1\n  pop\n    /* \"#utility.yul\":7698:7700   */\n  0x1f\n    /* \"#utility.yul\":7690:7696   */\n  dup4\n    /* \"#utility.yul\":7687:7701   */\n  gt\n    /* \"#utility.yul\":7715:7716   */\n  0x01\n    /* \"#utility.yul\":7710:8328   */\n  dup2\n  eq\n  tag_137\n  jumpi\n    /* \"#utility.yul\":8372:8373   */\n  0x00\n    /* \"#utility.yul\":8389:8395   */\n  dup5\n    /* \"#utility.yul\":8386:8463   */\n  iszero\n  tag_138\n  jumpi\n    /* \"#utility.yul\":8438:8447   */\n  dup3\n    /* \"#utility.yul\":8433:8436   */\n  dup8\n    /* \"#utility.yul\":8429:8448   */\n  add\n    /* \"#utility.yul\":8423:8449   */\n  mload\n    /* \"#utility.yul\":8414:8449   */\n  swap1\n  pop\n    /* \"#utility.yul\":8386:8463   */\ntag_138:\n    /* \"#utility.yul\":8489:8556   */\n  tag_139\n    /* \"#utility.yul\":8549:8555   */\n  dup6\n    /* \"#utility.yul\":8542:8547   */\n  dup3\n    /* \"#utility.yul\":8489:8556   */\n  tag_43\n  jump\t// in\ntag_139:\n    /* \"#utility.yul\":8483:8487   */\n  dup7\n    /* \"#utility.yul\":8476:8557   */\n  sstore\n    /* \"#utility.yul\":8345:8567   */\n  pop\n    /* \"#utility.yul\":7680:8567   */\n  jump(tag_136)\n    /* \"#utility.yul\":7710:8328   */\ntag_137:\n    /* \"#utility.yul\":7762:7766   */\n  0x1f\n    /* \"#utility.yul\":7758:7767   */\n  not\n    /* \"#utility.yul\":7750:7756   */\n  dup5\n    /* \"#utility.yul\":7746:7768   */\n  and\n    /* \"#utility.yul\":7796:7833   */\n  tag_140\n    /* \"#utility.yul\":7828:7832   */\n  dup7\n    /* \"#utility.yul\":7796:7833   */\n  tag_28\n  jump\t// in\ntag_140:\n    /* \"#utility.yul\":7855:7856   */\n  0x00\n    /* \"#utility.yul\":7869:8077   */\ntag_141:\n    /* \"#utility.yul\":7883:7890   */\n  dup3\n    /* \"#utility.yul\":7880:7881   */\n  dup2\n    /* \"#utility.yul\":7877:7891   */\n  lt\n    /* \"#utility.yul\":7869:8077   */\n  iszero\n  tag_143\n  jumpi\n    /* \"#utility.yul\":7962:7971   */\n  dup5\n    /* \"#utility.yul\":7957:7960   */\n  dup10\n    /* \"#utility.yul\":7953:7972   */\n  add\n    /* \"#utility.yul\":7947:7973   */\n  mload\n    /* \"#utility.yul\":7939:7945   */\n  dup3\n    /* \"#utility.yul\":7932:7974   */\n  sstore\n    /* \"#utility.yul\":8013:8014   */\n  0x01\n    /* \"#utility.yul\":8005:8011   */\n  dup3\n    /* \"#utility.yul\":8001:8015   */\n  add\n    /* \"#utility.yul\":7991:8015   */\n  swap2\n  pop\n    /* \"#utility.yul\":8060:8062   */\n  0x20\n    /* \"#utility.yul\":8049:8058   */\n  dup6\n    /* \"#utility.yul\":8045:8063   */\n  add\n    /* \"#utility.yul\":8032:8063   */\n  swap5\n  pop\n    /* \"#utility.yul\":7906:7910   */\n  0x20\n    /* \"#utility.yul\":7903:7904   */\n  dup2\n    /* \"#utility.yul\":7899:7911   */\n  add\n    /* \"#utility.yul\":7894:7911   */\n  swap1\n  pop\n    /* \"#utility.yul\":7869:8077   */\n  jump(tag_141)\ntag_143:\n    /* \"#utility.yul\":8105:8111   */\n  dup7\n    /* \"#utility.yul\":8096:8103   */\n  dup4\n    /* \"#utility.yul\":8093:8112   */\n  lt\n    /* \"#utility.yul\":8090:8269   */\n  iszero\n  tag_144\n  jumpi\n    /* \"#utility.yul\":8163:8172   */\n  dup5\n    /* \"#utility.yul\":8158:8161   */\n  dup10\n    /* \"#utility.yul\":8154:8173   */\n  add\n    /* \"#utility.yul\":8148:8174   */\n  mload\n    /* \"#utility.yul\":8206:8254   */\n  tag_145\n    /* \"#utility.yul\":8248:8252   */\n  0x1f\n    /* \"#utility.yul\":8240:8246   */\n  dup10\n    /* \"#utility.yul\":8236:8253   */\n  and\n    /* \"#utility.yul\":8225:8234   */\n  dup3\n    /* \"#utility.yul\":8206:8254   */\n  tag_42\n  jump\t// in\ntag_145:\n    /* \"#utility.yul\":8198:8204   */\n  dup4\n    /* \"#utility.yul\":8191:8255   */\n  sstore\n    /* \"#utility.yul\":8113:8269   */\n  pop\n    /* \"#utility.yul\":8090:8269   */\ntag_144:\n    /* \"#utility.yul\":8315:8316   */\n  0x01\n    /* \"#utility.yul\":8311:8312   */\n  0x02\n    /* \"#utility.yul\":8303:8309   */\n  dup9\n    /* \"#utility.yul\":8299:8313   */\n  mul\n    /* \"#utility.yul\":8295:8317   */\n  add\n    /* \"#utility.yul\":8289:8293   */\n  dup9\n    /* \"#utility.yul\":8282:8318   */\n  sstore\n    /* \"#utility.yul\":7717:8328   */\n  pop\n  pop\n  pop\n    /* \"#utility.yul\":7680:8567   */\ntag_136:\n  pop\n    /* \"#utility.yul\":7270:8573   */\n  pop\n  pop\n  pop\n    /* \"#utility.yul\":7178:8573   */\n  pop\n  pop\n  jump\t// out\n    /* \"WTFApe.sol\":99:746  contract WTFApe is ERC721{... */\ntag_11:\n  dataSize(sub_0)\n  dup1\n  dataOffset(sub_0)\n  0x00\n  codecopy\n  0x00\n  return\nstop\n\nsub_0: assembly {\n        /* \"WTFApe.sol\":99:746  contract WTFApe is ERC721{... */\n      mstore(0x40, 0x80)\n      callvalue\n      dup1\n      iszero\n      tag_1\n      jumpi\n      revert(0x00, 0x00)\n    tag_1:\n      pop\n      jumpi(tag_2, lt(calldatasize, 0x04))\n      shr(0xe0, calldataload(0x00))\n      dup1\n      0x6352211e\n      gt\n      tag_18\n      jumpi\n      dup1\n      0xb88d4fde\n      gt\n      tag_19\n      jumpi\n      dup1\n      0xb88d4fde\n      eq\n      tag_14\n      jumpi\n      dup1\n      0xbb8a16bd\n      eq\n      tag_15\n      jumpi\n      dup1\n      0xc87b56dd\n      eq\n      tag_16\n      jumpi\n      dup1\n      0xe985e9c5\n      eq\n      tag_17\n      jumpi\n      jump(tag_2)\n    tag_19:\n      dup1\n      0x6352211e\n      eq\n      tag_10\n      jumpi\n      dup1\n      0x70a08231\n      eq\n      tag_11\n      jumpi\n      dup1\n      0x95d89b41\n      eq\n      tag_12\n      jumpi\n      dup1\n      0xa22cb465\n      eq\n      tag_13\n      jumpi\n      jump(tag_2)\n    tag_18:\n      dup1\n      0x095ea7b3\n      gt\n      tag_20\n      jumpi\n      dup1\n      0x095ea7b3\n      eq\n      tag_6\n      jumpi\n      dup1\n      0x23b872dd\n      eq\n      tag_7\n      jumpi\n      dup1\n      0x40c10f19\n      eq\n      tag_8\n      jumpi\n      dup1\n      0x42842e0e\n      eq\n      tag_9\n      jumpi\n      jump(tag_2)\n    tag_20:\n      dup1\n      0x01ffc9a7\n      eq\n      tag_3\n      jumpi\n      dup1\n      0x06fdde03\n      eq\n      tag_4\n      jumpi\n      dup1\n      0x081812fc\n      eq\n      tag_5\n      jumpi\n    tag_2:\n      revert(0x00, 0x00)\n        /* \"ERC721.sol\":1205:1532  function supportsInterface(bytes4 interfaceId)... */\n    tag_3:\n      tag_21\n      0x04\n      dup1\n      calldatasize\n      sub\n      dup2\n      add\n      swap1\n      tag_22\n      swap2\n      swap1\n      tag_23\n      jump\t// in\n    tag_22:\n      tag_24\n      jump\t// in\n    tag_21:\n      mload(0x40)\n      tag_25\n      swap2\n      swap1\n      tag_26\n      jump\t// in\n    tag_25:\n      mload(0x40)\n      dup1\n      swap2\n      sub\n      swap1\n      return\n        /* \"ERC721.sol\":343:370  string public override name */\n    tag_4:\n      tag_27\n      tag_28\n      jump\t// in\n    tag_27:\n      mload(0x40)\n      tag_29\n      swap2\n      swap1\n      tag_30\n      jump\t// in\n    tag_29:\n      mload(0x40)\n      dup1\n      swap2\n      sub\n      swap1\n      return\n        /* \"ERC721.sol\":2871:3070  function getApproved(uint tokenId) external view override returns (address) {... */\n    tag_5:\n      tag_31\n      0x04\n      dup1\n      calldatasize\n      sub\n      dup2\n      add\n      swap1\n      tag_32\n      swap2\n      swap1\n      tag_33\n      jump\t// in\n    tag_32:\n      tag_34\n      jump\t// in\n    tag_31:\n      mload(0x40)\n      tag_35\n      swap2\n      swap1\n      tag_36\n      jump\t// in\n    tag_35:\n      mload(0x40)\n      dup1\n      swap2\n      sub\n      swap1\n      return\n        /* \"ERC721.sol\":3557:3859  function approve(address to, uint tokenId) external override {... */\n    tag_6:\n      tag_37\n      0x04\n      dup1\n      calldatasize\n      sub\n      dup2\n      add\n      swap1\n      tag_38\n      swap2\n      swap1\n      tag_39\n      jump\t// in\n    tag_38:\n      tag_40\n      jump\t// in\n    tag_37:\n      stop\n        /* \"ERC721.sol\":5015:5355  function transferFrom(... */\n    tag_7:\n      tag_41\n      0x04\n      dup1\n      calldatasize\n      sub\n      dup2\n      add\n      swap1\n      tag_42\n      swap2\n      swap1\n      tag_43\n      jump\t// in\n    tag_42:\n      tag_44\n      jump\t// in\n    tag_41:\n      stop\n        /* \"WTFApe.sol\":579:743  function mint(address to, uint tokenId) external {... */\n    tag_8:\n      tag_45\n      0x04\n      dup1\n      calldatasize\n      sub\n      dup2\n      add\n      swap1\n      tag_46\n      swap2\n      swap1\n      tag_39\n      jump\t// in\n    tag_46:\n      tag_47\n      jump\t// in\n    tag_45:\n      stop\n        /* \"ERC721.sol\":6627:6803  function safeTransferFrom(... */\n    tag_9:\n      tag_48\n      0x04\n      dup1\n      calldatasize\n      sub\n      dup2\n      add\n      swap1\n      tag_49\n      swap2\n      swap1\n      tag_43\n      jump\t// in\n    tag_49:\n      tag_50\n      jump\t// in\n    tag_48:\n      stop\n        /* \"ERC721.sol\":1891:2072  function ownerOf(uint tokenId) public view override returns (address owner) {... */\n    tag_10:\n      tag_51\n      0x04\n      dup1\n      calldatasize\n      sub\n      dup2\n      add\n      swap1\n      tag_52\n      swap2\n      swap1\n      tag_33\n      jump\t// in\n    tag_52:\n      tag_53\n      jump\t// in\n    tag_51:\n      mload(0x40)\n      tag_54\n      swap2\n      swap1\n      tag_36\n      jump\t// in\n    tag_54:\n      mload(0x40)\n      dup1\n      swap2\n      sub\n      swap1\n      return\n        /* \"ERC721.sol\":1628:1805  function balanceOf(address owner) external view override returns (uint) {... */\n    tag_11:\n      tag_55\n      0x04\n      dup1\n      calldatasize\n      sub\n      dup2\n      add\n      swap1\n      tag_56\n      swap2\n      swap1\n      tag_57\n      jump\t// in\n    tag_56:\n      tag_58\n      jump\t// in\n    tag_55:\n      mload(0x40)\n      tag_59\n      swap2\n      swap1\n      tag_60\n      jump\t// in\n    tag_59:\n      mload(0x40)\n      dup1\n      swap2\n      sub\n      swap1\n      return\n        /* \"ERC721.sol\":397:426  string public override symbol */\n    tag_12:\n      tag_61\n      tag_62\n      jump\t// in\n    tag_61:\n      mload(0x40)\n      tag_63\n      swap2\n      swap1\n      tag_30\n      jump\t// in\n    tag_63:\n      mload(0x40)\n      dup1\n      swap2\n      sub\n      swap1\n      return\n        /* \"ERC721.sol\":2556:2766  function setApprovalForAll(address operator, bool approved) external override {... */\n    tag_13:\n      tag_64\n      0x04\n      dup1\n      calldatasize\n      sub\n      dup2\n      add\n      swap1\n      tag_65\n      swap2\n      swap1\n      tag_66\n      jump\t// in\n    tag_65:\n      tag_67\n      jump\t// in\n    tag_64:\n      stop\n        /* \"ERC721.sol\":6200:6582  function safeTransferFrom(... */\n    tag_14:\n      tag_68\n      0x04\n      dup1\n      calldatasize\n      sub\n      dup2\n      add\n      swap1\n      tag_69\n      swap2\n      swap1\n      tag_70\n      jump\t// in\n    tag_69:\n      tag_71\n      jump\t// in\n    tag_68:\n      stop\n        /* \"WTFApe.sol\":131:159  uint public MAX_APES = 10000 */\n    tag_15:\n      tag_72\n      tag_73\n      jump\t// in\n    tag_72:\n      mload(0x40)\n      tag_74\n      swap2\n      swap1\n      tag_60\n      jump\t// in\n    tag_74:\n      mload(0x40)\n      dup1\n      swap2\n      sub\n      swap1\n      return\n        /* \"ERC721.sol\":9095:9411  function tokenURI(uint256 tokenId) public view virtual override returns (string memory) {... */\n    tag_16:\n      tag_75\n      0x04\n      dup1\n      calldatasize\n      sub\n      dup2\n      add\n      swap1\n      tag_76\n      swap2\n      swap1\n      tag_33\n      jump\t// in\n    tag_76:\n      tag_77\n      jump\t// in\n    tag_75:\n      mload(0x40)\n      tag_78\n      swap2\n      swap1\n      tag_30\n      jump\t// in\n    tag_78:\n      mload(0x40)\n      dup1\n      swap2\n      sub\n      swap1\n      return\n        /* \"ERC721.sol\":2224:2423  function isApprovedForAll(address owner, address operator)... */\n    tag_17:\n      tag_79\n      0x04\n      dup1\n      calldatasize\n      sub\n      dup2\n      add\n      swap1\n      tag_80\n      swap2\n      swap1\n      tag_81\n      jump\t// in\n    tag_80:\n      tag_82\n      jump\t// in\n    tag_79:\n      mload(0x40)\n      tag_83\n      swap2\n      swap1\n      tag_26\n      jump\t// in\n    tag_83:\n      mload(0x40)\n      dup1\n      swap2\n      sub\n      swap1\n      return\n        /* \"ERC721.sol\":1205:1532  function supportsInterface(bytes4 interfaceId)... */\n    tag_24:\n        /* \"ERC721.sol\":1320:1324  bool */\n      0x00\n        /* \"ERC721.sol\":1377:1402  type(IERC721).interfaceId */\n      0x80ac58cd00000000000000000000000000000000000000000000000000000000\n        /* \"ERC721.sol\":1362:1402  interfaceId == type(IERC721).interfaceId */\n      not(0xffffffffffffffffffffffffffffffffffffffffffffffffffffffff)\n      and\n        /* \"ERC721.sol\":1362:1373  interfaceId */\n      dup3\n        /* \"ERC721.sol\":1362:1402  interfaceId == type(IERC721).interfaceId */\n      not(0xffffffffffffffffffffffffffffffffffffffffffffffffffffffff)\n      and\n      eq\n        /* \"ERC721.sol\":1362:1459  interfaceId == type(IERC721).interfaceId ||... */\n      dup1\n      tag_85\n      jumpi\n      pop\n        /* \"ERC721.sol\":1434:1459  type(IERC165).interfaceId */\n      0x01ffc9a700000000000000000000000000000000000000000000000000000000\n        /* \"ERC721.sol\":1419:1459  interfaceId == type(IERC165).interfaceId */\n      not(0xffffffffffffffffffffffffffffffffffffffffffffffffffffffff)\n      and\n        /* \"ERC721.sol\":1419:1430  interfaceId */\n      dup3\n        /* \"ERC721.sol\":1419:1459  interfaceId == type(IERC165).interfaceId */\n      not(0xffffffffffffffffffffffffffffffffffffffffffffffffffffffff)\n      and\n      eq\n        /* \"ERC721.sol\":1362:1459  interfaceId == type(IERC721).interfaceId ||... */\n    tag_85:\n        /* \"ERC721.sol\":1362:1524  interfaceId == type(IERC721).interfaceId ||... */\n      dup1\n      tag_86\n      jumpi\n      pop\n        /* \"ERC721.sol\":1491:1524  type(IERC721Metadata).interfaceId */\n      0x5b5e139f00000000000000000000000000000000000000000000000000000000\n        /* \"ERC721.sol\":1476:1524  interfaceId == type(IERC721Metadata).interfaceId */\n      not(0xffffffffffffffffffffffffffffffffffffffffffffffffffffffff)\n      and\n        /* \"ERC721.sol\":1476:1487  interfaceId */\n      dup3\n        /* \"ERC721.sol\":1476:1524  interfaceId == type(IERC721Metadata).interfaceId */\n      not(0xffffffffffffffffffffffffffffffffffffffffffffffffffffffff)\n      and\n      eq\n        /* \"ERC721.sol\":1362:1524  interfaceId == type(IERC721).interfaceId ||... */\n    tag_86:\n        /* \"ERC721.sol\":1342:1524  return... */\n      swap1\n      pop\n        /* \"ERC721.sol\":1205:1532  function supportsInterface(bytes4 interfaceId)... */\n      swap2\n      swap1\n      pop\n      jump\t// out\n        /* \"ERC721.sol\":343:370  string public override name */\n    tag_28:\n      0x00\n      dup1\n      sload\n      tag_87\n      swap1\n      tag_88\n      jump\t// in\n    tag_87:\n      dup1\n      0x1f\n      add\n      0x20\n      dup1\n      swap2\n      div\n      mul\n      0x20\n      add\n      mload(0x40)\n      swap1\n      dup2\n      add\n      0x40\n      mstore\n      dup1\n      swap3\n      swap2\n      swap1\n      dup2\n      dup2\n      mstore\n      0x20\n      add\n      dup3\n      dup1\n      sload\n      tag_89\n      swap1\n      tag_88\n      jump\t// in\n    tag_89:\n      dup1\n      iszero\n      tag_90\n      jumpi\n      dup1\n      0x1f\n      lt\n      tag_91\n      jumpi\n      0x0100\n      dup1\n      dup4\n      sload\n      div\n      mul\n      dup4\n      mstore\n      swap2\n      0x20\n      add\n      swap2\n      jump(tag_90)\n    tag_91:\n      dup3\n      add\n      swap2\n      swap1\n      0x00\n      mstore\n      keccak256(0x00, 0x20)\n      swap1\n    tag_92:\n      dup2\n      sload\n      dup2\n      mstore\n      swap1\n      0x01\n      add\n      swap1\n      0x20\n      add\n      dup1\n      dup4\n      gt\n      tag_92\n      jumpi\n      dup3\n      swap1\n      sub\n      0x1f\n      and\n      dup3\n      add\n      swap2\n    tag_90:\n      pop\n      pop\n      pop\n      pop\n      pop\n      dup2\n      jump\t// out\n        /* \"ERC721.sol\":2871:3070  function getApproved(uint tokenId) external view override returns (address) {... */\n    tag_34:\n        /* \"ERC721.sol\":2938:2945  address */\n      0x00\n        /* \"ERC721.sol\":2994:2995  0 */\n      0x00\n        /* \"ERC721.sol\":2966:2996  _owners[tokenId] != address(0) */\n      0xffffffffffffffffffffffffffffffffffffffff\n      and\n        /* \"ERC721.sol\":2966:2973  _owners */\n      0x02\n        /* \"ERC721.sol\":2966:2982  _owners[tokenId] */\n      0x00\n        /* \"ERC721.sol\":2974:2981  tokenId */\n      dup5\n        /* \"ERC721.sol\":2966:2982  _owners[tokenId] */\n      dup2\n      mstore\n      0x20\n      add\n      swap1\n      dup2\n      mstore\n      0x20\n      add\n      0x00\n      keccak256\n      0x00\n      swap1\n      sload\n      swap1\n      0x0100\n      exp\n      swap1\n      div\n      0xffffffffffffffffffffffffffffffffffffffff\n      and\n        /* \"ERC721.sol\":2966:2996  _owners[tokenId] != address(0) */\n      0xffffffffffffffffffffffffffffffffffffffff\n      and\n      sub\n        /* \"ERC721.sol\":2958:3020  require(_owners[tokenId] != address(0), \"token doesn't exist\") */\n      tag_94\n      jumpi\n      mload(0x40)\n      0x08c379a000000000000000000000000000000000000000000000000000000000\n      dup2\n      mstore\n      0x04\n      add\n      tag_95\n      swap1\n      tag_96\n      jump\t// in\n    tag_95:\n      mload(0x40)\n      dup1\n      swap2\n      sub\n      swap1\n      revert\n    tag_94:\n        /* \"ERC721.sol\":3038:3053  _tokenApprovals */\n      0x04\n        /* \"ERC721.sol\":3038:3062  _tokenApprovals[tokenId] */\n      0x00\n        /* \"ERC721.sol\":3054:3061  tokenId */\n      dup4\n        /* \"ERC721.sol\":3038:3062  _tokenApprovals[tokenId] */\n      dup2\n      mstore\n      0x20\n      add\n      swap1\n      dup2\n      mstore\n      0x20\n      add\n      0x00\n      keccak256\n      0x00\n      swap1\n      sload\n      swap1\n      0x0100\n      exp\n      swap1\n      div\n      0xffffffffffffffffffffffffffffffffffffffff\n      and\n        /* \"ERC721.sol\":3031:3062  return _tokenApprovals[tokenId] */\n      swap1\n      pop\n        /* \"ERC721.sol\":2871:3070  function getApproved(uint tokenId) external view override returns (address) {... */\n      swap2\n      swap1\n      pop\n      jump\t// out\n        /* \"ERC721.sol\":3557:3859  function approve(address to, uint tokenId) external override {... */\n    tag_40:\n        /* \"ERC721.sol\":3629:3642  address owner */\n      0x00\n        /* \"ERC721.sol\":3645:3652  _owners */\n      0x02\n        /* \"ERC721.sol\":3645:3661  _owners[tokenId] */\n      0x00\n        /* \"ERC721.sol\":3653:3660  tokenId */\n      dup4\n        /* \"ERC721.sol\":3645:3661  _owners[tokenId] */\n      dup2\n      mstore\n      0x20\n      add\n      swap1\n      dup2\n      mstore\n      0x20\n      add\n      0x00\n      keccak256\n      0x00\n      swap1\n      sload\n      swap1\n      0x0100\n      exp\n      swap1\n      div\n      0xffffffffffffffffffffffffffffffffffffffff\n      and\n        /* \"ERC721.sol\":3629:3661  address owner = _owners[tokenId] */\n      swap1\n      pop\n        /* \"ERC721.sol\":3708:3713  owner */\n      dup1\n        /* \"ERC721.sol\":3694:3713  msg.sender == owner */\n      0xffffffffffffffffffffffffffffffffffffffff\n      and\n        /* \"ERC721.sol\":3694:3704  msg.sender */\n      caller\n        /* \"ERC721.sol\":3694:3713  msg.sender == owner */\n      0xffffffffffffffffffffffffffffffffffffffff\n      and\n      eq\n        /* \"ERC721.sol\":3694:3754  msg.sender == owner || _operatorApprovals[owner][msg.sender] */\n      dup1\n      tag_98\n      jumpi\n      pop\n        /* \"ERC721.sol\":3717:3735  _operatorApprovals */\n      0x05\n        /* \"ERC721.sol\":3717:3742  _operatorApprovals[owner] */\n      0x00\n        /* \"ERC721.sol\":3736:3741  owner */\n      dup3\n        /* \"ERC721.sol\":3717:3742  _operatorApprovals[owner] */\n      0xffffffffffffffffffffffffffffffffffffffff\n      and\n      0xffffffffffffffffffffffffffffffffffffffff\n      and\n      dup2\n      mstore\n      0x20\n      add\n      swap1\n      dup2\n      mstore\n      0x20\n      add\n      0x00\n      keccak256\n        /* \"ERC721.sol\":3717:3754  _operatorApprovals[owner][msg.sender] */\n      0x00\n        /* \"ERC721.sol\":3743:3753  msg.sender */\n      caller\n        /* \"ERC721.sol\":3717:3754  _operatorApprovals[owner][msg.sender] */\n      0xffffffffffffffffffffffffffffffffffffffff\n      and\n      0xffffffffffffffffffffffffffffffffffffffff\n      and\n      dup2\n      mstore\n      0x20\n      add\n      swap1\n      dup2\n      mstore\n      0x20\n      add\n      0x00\n      keccak256\n      0x00\n      swap1\n      sload\n      swap1\n      0x0100\n      exp\n      swap1\n      div\n      0xff\n      and\n        /* \"ERC721.sol\":3694:3754  msg.sender == owner || _operatorApprovals[owner][msg.sender] */\n    tag_98:\n        /* \"ERC721.sol\":3672:3812  require(... */\n      tag_99\n      jumpi\n      mload(0x40)\n      0x08c379a000000000000000000000000000000000000000000000000000000000\n      dup2\n      mstore\n      0x04\n      add\n      tag_100\n      swap1\n      tag_101\n      jump\t// in\n    tag_100:\n      mload(0x40)\n      dup1\n      swap2\n      sub\n      swap1\n      revert\n    tag_99:\n        /* \"ERC721.sol\":3823:3851  _approve(owner, to, tokenId) */\n      tag_102\n        /* \"ERC721.sol\":3832:3837  owner */\n      dup2\n        /* \"ERC721.sol\":3839:3841  to */\n      dup5\n        /* \"ERC721.sol\":3843:3850  tokenId */\n      dup5\n        /* \"ERC721.sol\":3823:3831  _approve */\n      tag_103\n        /* \"ERC721.sol\":3823:3851  _approve(owner, to, tokenId) */\n      jump\t// in\n    tag_102:\n        /* \"ERC721.sol\":3618:3859  {... */\n      pop\n        /* \"ERC721.sol\":3557:3859  function approve(address to, uint tokenId) external override {... */\n      pop\n      pop\n      jump\t// out\n        /* \"ERC721.sol\":5015:5355  function transferFrom(... */\n    tag_44:\n        /* \"ERC721.sol\":5140:5153  address owner */\n      0x00\n        /* \"ERC721.sol\":5156:5172  ownerOf(tokenId) */\n      tag_105\n        /* \"ERC721.sol\":5164:5171  tokenId */\n      dup3\n        /* \"ERC721.sol\":5156:5163  ownerOf */\n      tag_53\n        /* \"ERC721.sol\":5156:5172  ownerOf(tokenId) */\n      jump\t// in\n    tag_105:\n        /* \"ERC721.sol\":5140:5172  address owner = ownerOf(tokenId) */\n      swap1\n      pop\n        /* \"ERC721.sol\":5205:5251  _isApprovedOrOwner(owner, msg.sender, tokenId) */\n      tag_106\n        /* \"ERC721.sol\":5224:5229  owner */\n      dup2\n        /* \"ERC721.sol\":5231:5241  msg.sender */\n      caller\n        /* \"ERC721.sol\":5243:5250  tokenId */\n      dup5\n        /* \"ERC721.sol\":5205:5223  _isApprovedOrOwner */\n      tag_107\n        /* \"ERC721.sol\":5205:5251  _isApprovedOrOwner(owner, msg.sender, tokenId) */\n      jump\t// in\n    tag_106:\n        /* \"ERC721.sol\":5183:5301  require(... */\n      tag_108\n      jumpi\n      mload(0x40)\n      0x08c379a000000000000000000000000000000000000000000000000000000000\n      dup2\n      mstore\n      0x04\n      add\n      tag_109\n      swap1\n      tag_110\n      jump\t// in\n    tag_109:\n      mload(0x40)\n      dup1\n      swap2\n      sub\n      swap1\n      revert\n    tag_108:\n        /* \"ERC721.sol\":5312:5347  _transfer(owner, from, to, tokenId) */\n      tag_111\n        /* \"ERC721.sol\":5322:5327  owner */\n      dup2\n        /* \"ERC721.sol\":5329:5333  from */\n      dup6\n        /* \"ERC721.sol\":5335:5337  to */\n      dup6\n        /* \"ERC721.sol\":5339:5346  tokenId */\n      dup6\n        /* \"ERC721.sol\":5312:5321  _transfer */\n      tag_112\n        /* \"ERC721.sol\":5312:5347  _transfer(owner, from, to, tokenId) */\n      jump\t// in\n    tag_111:\n        /* \"ERC721.sol\":5129:5355  {... */\n      pop\n        /* \"ERC721.sol\":5015:5355  function transferFrom(... */\n      pop\n      pop\n      pop\n      jump\t// out\n        /* \"WTFApe.sol\":579:743  function mint(address to, uint tokenId) external {... */\n    tag_47:\n        /* \"WTFApe.sol\":658:659  0 */\n      0x00\n        /* \"WTFApe.sol\":647:654  tokenId */\n      dup2\n        /* \"WTFApe.sol\":647:659  tokenId >= 0 */\n      lt\n      iszero\n        /* \"WTFApe.sol\":647:681  tokenId >= 0 && tokenId < MAX_APES */\n      dup1\n      iszero\n      tag_114\n      jumpi\n      pop\n        /* \"WTFApe.sol\":673:681  MAX_APES */\n      sload(0x06)\n        /* \"WTFApe.sol\":663:670  tokenId */\n      dup2\n        /* \"WTFApe.sol\":663:681  tokenId < MAX_APES */\n      lt\n        /* \"WTFApe.sol\":647:681  tokenId >= 0 && tokenId < MAX_APES */\n    tag_114:\n        /* \"WTFApe.sol\":639:706  require(tokenId >= 0 && tokenId < MAX_APES, \"tokenId out of range\") */\n      tag_115\n      jumpi\n      mload(0x40)\n      0x08c379a000000000000000000000000000000000000000000000000000000000\n      dup2\n      mstore\n      0x04\n      add\n      tag_116\n      swap1\n      tag_117\n      jump\t// in\n    tag_116:\n      mload(0x40)\n      dup1\n      swap2\n      sub\n      swap1\n      revert\n    tag_115:\n        /* \"WTFApe.sol\":717:735  _mint(to, tokenId) */\n      tag_118\n        /* \"WTFApe.sol\":723:725  to */\n      dup3\n        /* \"WTFApe.sol\":727:734  tokenId */\n      dup3\n        /* \"WTFApe.sol\":717:722  _mint */\n      tag_119\n        /* \"WTFApe.sol\":717:735  _mint(to, tokenId) */\n      jump\t// in\n    tag_118:\n        /* \"WTFApe.sol\":579:743  function mint(address to, uint tokenId) external {... */\n      pop\n      pop\n      jump\t// out\n        /* \"ERC721.sol\":6627:6803  function safeTransferFrom(... */\n    tag_50:\n        /* \"ERC721.sol\":6756:6795  safeTransferFrom(from, to, tokenId, \"\") */\n      tag_121\n        /* \"ERC721.sol\":6773:6777  from */\n      dup4\n        /* \"ERC721.sol\":6779:6781  to */\n      dup4\n        /* \"ERC721.sol\":6783:6790  tokenId */\n      dup4\n        /* \"ERC721.sol\":6756:6795  safeTransferFrom(from, to, tokenId, \"\") */\n      mload(0x40)\n      dup1\n      0x20\n      add\n      0x40\n      mstore\n      dup1\n      0x00\n      dup2\n      mstore\n      pop\n        /* \"ERC721.sol\":6756:6772  safeTransferFrom */\n      tag_71\n        /* \"ERC721.sol\":6756:6795  safeTransferFrom(from, to, tokenId, \"\") */\n      jump\t// in\n    tag_121:\n        /* \"ERC721.sol\":6627:6803  function safeTransferFrom(... */\n      pop\n      pop\n      pop\n      jump\t// out\n        /* \"ERC721.sol\":1891:2072  function ownerOf(uint tokenId) public view override returns (address owner) {... */\n    tag_53:\n        /* \"ERC721.sol\":1952:1965  address owner */\n      0x00\n        /* \"ERC721.sol\":1986:1993  _owners */\n      0x02\n        /* \"ERC721.sol\":1986:2002  _owners[tokenId] */\n      0x00\n        /* \"ERC721.sol\":1994:2001  tokenId */\n      dup4\n        /* \"ERC721.sol\":1986:2002  _owners[tokenId] */\n      dup2\n      mstore\n      0x20\n      add\n      swap1\n      dup2\n      mstore\n      0x20\n      add\n      0x00\n      keccak256\n      0x00\n      swap1\n      sload\n      swap1\n      0x0100\n      exp\n      swap1\n      div\n      0xffffffffffffffffffffffffffffffffffffffff\n      and\n        /* \"ERC721.sol\":1978:2002  owner = _owners[tokenId] */\n      swap1\n      pop\n        /* \"ERC721.sol\":2038:2039  0 */\n      0x00\n        /* \"ERC721.sol\":2021:2040  owner != address(0) */\n      0xffffffffffffffffffffffffffffffffffffffff\n      and\n        /* \"ERC721.sol\":2021:2026  owner */\n      dup2\n        /* \"ERC721.sol\":2021:2040  owner != address(0) */\n      0xffffffffffffffffffffffffffffffffffffffff\n      and\n      sub\n        /* \"ERC721.sol\":2013:2064  require(owner != address(0), \"token doesn't exist\") */\n      tag_123\n      jumpi\n      mload(0x40)\n      0x08c379a000000000000000000000000000000000000000000000000000000000\n      dup2\n      mstore\n      0x04\n      add\n      tag_124\n      swap1\n      tag_96\n      jump\t// in\n    tag_124:\n      mload(0x40)\n      dup1\n      swap2\n      sub\n      swap1\n      revert\n    tag_123:\n        /* \"ERC721.sol\":1891:2072  function ownerOf(uint tokenId) public view override returns (address owner) {... */\n      swap2\n      swap1\n      pop\n      jump\t// out\n        /* \"ERC721.sol\":1628:1805  function balanceOf(address owner) external view override returns (uint) {... */\n    tag_58:\n        /* \"ERC721.sol\":1694:1698  uint */\n      0x00\n        /* \"ERC721.sol\":1736:1737  0 */\n      0x00\n        /* \"ERC721.sol\":1719:1738  owner != address(0) */\n      0xffffffffffffffffffffffffffffffffffffffff\n      and\n        /* \"ERC721.sol\":1719:1724  owner */\n      dup3\n        /* \"ERC721.sol\":1719:1738  owner != address(0) */\n      0xffffffffffffffffffffffffffffffffffffffff\n      and\n      sub\n        /* \"ERC721.sol\":1711:1763  require(owner != address(0), \"owner = zero address\") */\n      tag_126\n      jumpi\n      mload(0x40)\n      0x08c379a000000000000000000000000000000000000000000000000000000000\n      dup2\n      mstore\n      0x04\n      add\n      tag_127\n      swap1\n      tag_128\n      jump\t// in\n    tag_127:\n      mload(0x40)\n      dup1\n      swap2\n      sub\n      swap1\n      revert\n    tag_126:\n        /* \"ERC721.sol\":1781:1790  _balances */\n      0x03\n        /* \"ERC721.sol\":1781:1797  _balances[owner] */\n      0x00\n        /* \"ERC721.sol\":1791:1796  owner */\n      dup4\n        /* \"ERC721.sol\":1781:1797  _balances[owner] */\n      0xffffffffffffffffffffffffffffffffffffffff\n      and\n      0xffffffffffffffffffffffffffffffffffffffff\n      and\n      dup2\n      mstore\n      0x20\n      add\n      swap1\n      dup2\n      mstore\n      0x20\n      add\n      0x00\n      keccak256\n      sload\n        /* \"ERC721.sol\":1774:1797  return _balances[owner] */\n      swap1\n      pop\n        /* \"ERC721.sol\":1628:1805  function balanceOf(address owner) external view override returns (uint) {... */\n      swap2\n      swap1\n      pop\n      jump\t// out\n        /* \"ERC721.sol\":397:426  string public override symbol */\n    tag_62:\n      0x01\n      dup1\n      sload\n      tag_129\n      swap1\n      tag_88\n      jump\t// in\n    tag_129:\n      dup1\n      0x1f\n      add\n      0x20\n      dup1\n      swap2\n      div\n      mul\n      0x20\n      add\n      mload(0x40)\n      swap1\n      dup2\n      add\n      0x40\n      mstore\n      dup1\n      swap3\n      swap2\n      swap1\n      dup2\n      dup2\n      mstore\n      0x20\n      add\n      dup3\n      dup1\n      sload\n      tag_130\n      swap1\n      tag_88\n      jump\t// in\n    tag_130:\n      dup1\n      iszero\n      tag_131\n      jumpi\n      dup1\n      0x1f\n      lt\n      tag_132\n      jumpi\n      0x0100\n      dup1\n      dup4\n      sload\n      div\n      mul\n      dup4\n      mstore\n      swap2\n      0x20\n      add\n      swap2\n      jump(tag_131)\n    tag_132:\n      dup3\n      add\n      swap2\n      swap1\n      0x00\n      mstore\n      keccak256(0x00, 0x20)\n      swap1\n    tag_133:\n      dup2\n      sload\n      dup2\n      mstore\n      swap1\n      0x01\n      add\n      swap1\n      0x20\n      add\n      dup1\n      dup4\n      gt\n      tag_133\n      jumpi\n      dup3\n      swap1\n      sub\n      0x1f\n      and\n      dup3\n      add\n      swap2\n    tag_131:\n      pop\n      pop\n      pop\n      pop\n      pop\n      dup2\n      jump\t// out\n        /* \"ERC721.sol\":2556:2766  function setApprovalForAll(address operator, bool approved) external override {... */\n    tag_67:\n        /* \"ERC721.sol\":2688:2696  approved */\n      dup1\n        /* \"ERC721.sol\":2645:2663  _operatorApprovals */\n      0x05\n        /* \"ERC721.sol\":2645:2675  _operatorApprovals[msg.sender] */\n      0x00\n        /* \"ERC721.sol\":2664:2674  msg.sender */\n      caller\n        /* \"ERC721.sol\":2645:2675  _operatorApprovals[msg.sender] */\n      0xffffffffffffffffffffffffffffffffffffffff\n      and\n      0xffffffffffffffffffffffffffffffffffffffff\n      and\n      dup2\n      mstore\n      0x20\n      add\n      swap1\n      dup2\n      mstore\n      0x20\n      add\n      0x00\n      keccak256\n        /* \"ERC721.sol\":2645:2685  _operatorApprovals[msg.sender][operator] */\n      0x00\n        /* \"ERC721.sol\":2676:2684  operator */\n      dup5\n        /* \"ERC721.sol\":2645:2685  _operatorApprovals[msg.sender][operator] */\n      0xffffffffffffffffffffffffffffffffffffffff\n      and\n      0xffffffffffffffffffffffffffffffffffffffff\n      and\n      dup2\n      mstore\n      0x20\n      add\n      swap1\n      dup2\n      mstore\n      0x20\n      add\n      0x00\n      keccak256\n      0x00\n        /* \"ERC721.sol\":2645:2696  _operatorApprovals[msg.sender][operator] = approved */\n      0x0100\n      exp\n      dup2\n      sload\n      dup2\n      0xff\n      mul\n      not\n      and\n      swap1\n      dup4\n      iszero\n      iszero\n      mul\n      or\n      swap1\n      sstore\n      pop\n        /* \"ERC721.sol\":2739:2747  operator */\n      dup2\n        /* \"ERC721.sol\":2712:2758  ApprovalForAll(msg.sender, operator, approved) */\n      0xffffffffffffffffffffffffffffffffffffffff\n      and\n        /* \"ERC721.sol\":2727:2737  msg.sender */\n      caller\n        /* \"ERC721.sol\":2712:2758  ApprovalForAll(msg.sender, operator, approved) */\n      0xffffffffffffffffffffffffffffffffffffffff\n      and\n      0x17307eab39ab6107e8899845ad3d59bd9653f200f220920489ca2b5937696c31\n        /* \"ERC721.sol\":2749:2757  approved */\n      dup4\n        /* \"ERC721.sol\":2712:2758  ApprovalForAll(msg.sender, operator, approved) */\n      mload(0x40)\n      tag_135\n      swap2\n      swap1\n      tag_26\n      jump\t// in\n    tag_135:\n      mload(0x40)\n      dup1\n      swap2\n      sub\n      swap1\n      log3\n        /* \"ERC721.sol\":2556:2766  function setApprovalForAll(address operator, bool approved) external override {... */\n      pop\n      pop\n      jump\t// out\n        /* \"ERC721.sol\":6200:6582  function safeTransferFrom(... */\n    tag_71:\n        /* \"ERC721.sol\":6356:6369  address owner */\n      0x00\n        /* \"ERC721.sol\":6372:6388  ownerOf(tokenId) */\n      tag_137\n        /* \"ERC721.sol\":6380:6387  tokenId */\n      dup4\n        /* \"ERC721.sol\":6372:6379  ownerOf */\n      tag_53\n        /* \"ERC721.sol\":6372:6388  ownerOf(tokenId) */\n      jump\t// in\n    tag_137:\n        /* \"ERC721.sol\":6356:6388  address owner = ownerOf(tokenId) */\n      swap1\n      pop\n        /* \"ERC721.sol\":6421:6467  _isApprovedOrOwner(owner, msg.sender, tokenId) */\n      tag_138\n        /* \"ERC721.sol\":6440:6445  owner */\n      dup2\n        /* \"ERC721.sol\":6447:6457  msg.sender */\n      caller\n        /* \"ERC721.sol\":6459:6466  tokenId */\n      dup6\n        /* \"ERC721.sol\":6421:6439  _isApprovedOrOwner */\n      tag_107\n        /* \"ERC721.sol\":6421:6467  _isApprovedOrOwner(owner, msg.sender, tokenId) */\n      jump\t// in\n    tag_138:\n        /* \"ERC721.sol\":6399:6517  require(... */\n      tag_139\n      jumpi\n      mload(0x40)\n      0x08c379a000000000000000000000000000000000000000000000000000000000\n      dup2\n      mstore\n      0x04\n      add\n      tag_140\n      swap1\n      tag_110\n      jump\t// in\n    tag_140:\n      mload(0x40)\n      dup1\n      swap2\n      sub\n      swap1\n      revert\n    tag_139:\n        /* \"ERC721.sol\":6528:6574  _safeTransfer(owner, from, to, tokenId, _data) */\n      tag_141\n        /* \"ERC721.sol\":6542:6547  owner */\n      dup2\n        /* \"ERC721.sol\":6549:6553  from */\n      dup7\n        /* \"ERC721.sol\":6555:6557  to */\n      dup7\n        /* \"ERC721.sol\":6559:6566  tokenId */\n      dup7\n        /* \"ERC721.sol\":6568:6573  _data */\n      dup7\n        /* \"ERC721.sol\":6528:6541  _safeTransfer */\n      tag_142\n        /* \"ERC721.sol\":6528:6574  _safeTransfer(owner, from, to, tokenId, _data) */\n      jump\t// in\n    tag_141:\n        /* \"ERC721.sol\":6345:6582  {... */\n      pop\n        /* \"ERC721.sol\":6200:6582  function safeTransferFrom(... */\n      pop\n      pop\n      pop\n      pop\n      jump\t// out\n        /* \"WTFApe.sol\":131:159  uint public MAX_APES = 10000 */\n    tag_73:\n      sload(0x06)\n      dup2\n      jump\t// out\n        /* \"ERC721.sol\":9095:9411  function tokenURI(uint256 tokenId) public view virtual override returns (string memory) {... */\n    tag_77:\n        /* \"ERC721.sol\":9168:9181  string memory */\n      0x60\n        /* \"ERC721.sol\":9230:9231  0 */\n      0x00\n        /* \"ERC721.sol\":9202:9232  _owners[tokenId] != address(0) */\n      0xffffffffffffffffffffffffffffffffffffffff\n      and\n        /* \"ERC721.sol\":9202:9209  _owners */\n      0x02\n        /* \"ERC721.sol\":9202:9218  _owners[tokenId] */\n      0x00\n        /* \"ERC721.sol\":9210:9217  tokenId */\n      dup5\n        /* \"ERC721.sol\":9202:9218  _owners[tokenId] */\n      dup2\n      mstore\n      0x20\n      add\n      swap1\n      dup2\n      mstore\n      0x20\n      add\n      0x00\n      keccak256\n      0x00\n      swap1\n      sload\n      swap1\n      0x0100\n      exp\n      swap1\n      div\n      0xffffffffffffffffffffffffffffffffffffffff\n      and\n        /* \"ERC721.sol\":9202:9232  _owners[tokenId] != address(0) */\n      0xffffffffffffffffffffffffffffffffffffffff\n      and\n      sub\n        /* \"ERC721.sol\":9194:9252  require(_owners[tokenId] != address(0), \"Token Not Exist\") */\n      tag_144\n      jumpi\n      mload(0x40)\n      0x08c379a000000000000000000000000000000000000000000000000000000000\n      dup2\n      mstore\n      0x04\n      add\n      tag_145\n      swap1\n      tag_146\n      jump\t// in\n    tag_145:\n      mload(0x40)\n      dup1\n      swap2\n      sub\n      swap1\n      revert\n    tag_144:\n        /* \"ERC721.sol\":9265:9286  string memory baseURI */\n      0x00\n        /* \"ERC721.sol\":9289:9299  _baseURI() */\n      tag_147\n        /* \"ERC721.sol\":9289:9297  _baseURI */\n      tag_148\n        /* \"ERC721.sol\":9289:9299  _baseURI() */\n      jump\t// in\n    tag_147:\n        /* \"ERC721.sol\":9265:9299  string memory baseURI = _baseURI() */\n      swap1\n      pop\n        /* \"ERC721.sol\":9341:9342  0 */\n      0x00\n        /* \"ERC721.sol\":9323:9330  baseURI */\n      dup2\n        /* \"ERC721.sol\":9317:9338  bytes(baseURI).length */\n      mload\n        /* \"ERC721.sol\":9317:9342  bytes(baseURI).length > 0 */\n      gt\n        /* \"ERC721.sol\":9317:9403  bytes(baseURI).length > 0 ? string(abi.encodePacked(baseURI, tokenId.toString())) : \"\" */\n      tag_149\n      jumpi\n      mload(0x40)\n      dup1\n      0x20\n      add\n      0x40\n      mstore\n      dup1\n      0x00\n      dup2\n      mstore\n      pop\n      jump(tag_150)\n    tag_149:\n        /* \"ERC721.sol\":9369:9376  baseURI */\n      dup1\n        /* \"ERC721.sol\":9378:9396  tokenId.toString() */\n      tag_151\n        /* \"ERC721.sol\":9378:9385  tokenId */\n      dup5\n        /* \"ERC721.sol\":9378:9394  tokenId.toString */\n      tag_152\n        /* \"ERC721.sol\":9378:9396  tokenId.toString() */\n      jump\t// in\n    tag_151:\n        /* \"ERC721.sol\":9352:9397  abi.encodePacked(baseURI, tokenId.toString()) */\n      add(0x20, mload(0x40))\n      tag_153\n      swap3\n      swap2\n      swap1\n      tag_154\n      jump\t// in\n    tag_153:\n      mload(0x40)\n      0x20\n      dup2\n      dup4\n      sub\n      sub\n      dup2\n      mstore\n      swap1\n      0x40\n      mstore\n        /* \"ERC721.sol\":9317:9403  bytes(baseURI).length > 0 ? string(abi.encodePacked(baseURI, tokenId.toString())) : \"\" */\n    tag_150:\n        /* \"ERC721.sol\":9310:9403  return bytes(baseURI).length > 0 ? string(abi.encodePacked(baseURI, tokenId.toString())) : \"\" */\n      swap2\n      pop\n      pop\n        /* \"ERC721.sol\":9095:9411  function tokenURI(uint256 tokenId) public view virtual override returns (string memory) {... */\n      swap2\n      swap1\n      pop\n      jump\t// out\n        /* \"ERC721.sol\":2224:2423  function isApprovedForAll(address owner, address operator)... */\n    tag_82:\n        /* \"ERC721.sol\":2351:2355  bool */\n      0x00\n        /* \"ERC721.sol\":2380:2398  _operatorApprovals */\n      0x05\n        /* \"ERC721.sol\":2380:2405  _operatorApprovals[owner] */\n      0x00\n        /* \"ERC721.sol\":2399:2404  owner */\n      dup5\n        /* \"ERC721.sol\":2380:2405  _operatorApprovals[owner] */\n      0xffffffffffffffffffffffffffffffffffffffff\n      and\n      0xffffffffffffffffffffffffffffffffffffffff\n      and\n      dup2\n      mstore\n      0x20\n      add\n      swap1\n      dup2\n      mstore\n      0x20\n      add\n      0x00\n      keccak256\n        /* \"ERC721.sol\":2380:2415  _operatorApprovals[owner][operator] */\n      0x00\n        /* \"ERC721.sol\":2406:2414  operator */\n      dup4\n        /* \"ERC721.sol\":2380:2415  _operatorApprovals[owner][operator] */\n      0xffffffffffffffffffffffffffffffffffffffff\n      and\n      0xffffffffffffffffffffffffffffffffffffffff\n      and\n      dup2\n      mstore\n      0x20\n      add\n      swap1\n      dup2\n      mstore\n      0x20\n      add\n      0x00\n      keccak256\n      0x00\n      swap1\n      sload\n      swap1\n      0x0100\n      exp\n      swap1\n      div\n      0xff\n      and\n        /* \"ERC721.sol\":2373:2415  return _operatorApprovals[owner][operator] */\n      swap1\n      pop\n        /* \"ERC721.sol\":2224:2423  function isApprovedForAll(address owner, address operator)... */\n      swap3\n      swap2\n      pop\n      pop\n      jump\t// out\n        /* \"ERC721.sol\":3202:3395  function _approve(... */\n    tag_103:\n        /* \"ERC721.sol\":3341:3343  to */\n      dup2\n        /* \"ERC721.sol\":3314:3329  _tokenApprovals */\n      0x04\n        /* \"ERC721.sol\":3314:3338  _tokenApprovals[tokenId] */\n      0x00\n        /* \"ERC721.sol\":3330:3337  tokenId */\n      dup4\n        /* \"ERC721.sol\":3314:3338  _tokenApprovals[tokenId] */\n      dup2\n      mstore\n      0x20\n      add\n      swap1\n      dup2\n      mstore\n      0x20\n      add\n      0x00\n      keccak256\n      0x00\n        /* \"ERC721.sol\":3314:3343  _tokenApprovals[tokenId] = to */\n      0x0100\n      exp\n      dup2\n      sload\n      dup2\n      0xffffffffffffffffffffffffffffffffffffffff\n      mul\n      not\n      and\n      swap1\n      dup4\n      0xffffffffffffffffffffffffffffffffffffffff\n      and\n      mul\n      or\n      swap1\n      sstore\n      pop\n        /* \"ERC721.sol\":3379:3386  tokenId */\n      dup1\n        /* \"ERC721.sol\":3375:3377  to */\n      dup3\n        /* \"ERC721.sol\":3359:3387  Approval(owner, to, tokenId) */\n      0xffffffffffffffffffffffffffffffffffffffff\n      and\n        /* \"ERC721.sol\":3368:3373  owner */\n      dup5\n        /* \"ERC721.sol\":3359:3387  Approval(owner, to, tokenId) */\n      0xffffffffffffffffffffffffffffffffffffffff\n      and\n      0x8c5be1e5ebec7d5bd14f71427d1e84f3dd0314c0f7b2291e5b200ac8c7c3b925\n      mload(0x40)\n      mload(0x40)\n      dup1\n      swap2\n      sub\n      swap1\n      log4\n        /* \"ERC721.sol\":3202:3395  function _approve(... */\n      pop\n      pop\n      pop\n      jump\t// out\n        /* \"ERC721.sol\":3959:4242  function _isApprovedOrOwner(... */\n    tag_107:\n        /* \"ERC721.sol\":4089:4093  bool */\n      0x00\n        /* \"ERC721.sol\":4125:4130  owner */\n      dup4\n        /* \"ERC721.sol\":4114:4130  spender == owner */\n      0xffffffffffffffffffffffffffffffffffffffff\n      and\n        /* \"ERC721.sol\":4114:4121  spender */\n      dup4\n        /* \"ERC721.sol\":4114:4130  spender == owner */\n      0xffffffffffffffffffffffffffffffffffffffff\n      and\n      eq\n        /* \"ERC721.sol\":4114:4182  spender == owner ||... */\n      dup1\n      tag_158\n      jumpi\n      pop\n        /* \"ERC721.sol\":4175:4182  spender */\n      dup3\n        /* \"ERC721.sol\":4147:4182  _tokenApprovals[tokenId] == spender */\n      0xffffffffffffffffffffffffffffffffffffffff\n      and\n        /* \"ERC721.sol\":4147:4162  _tokenApprovals */\n      0x04\n        /* \"ERC721.sol\":4147:4171  _tokenApprovals[tokenId] */\n      0x00\n        /* \"ERC721.sol\":4163:4170  tokenId */\n      dup5\n        /* \"ERC721.sol\":4147:4171  _tokenApprovals[tokenId] */\n      dup2\n      mstore\n      0x20\n      add\n      swap1\n      dup2\n      mstore\n      0x20\n      add\n      0x00\n      keccak256\n      0x00\n      swap1\n      sload\n      swap1\n      0x0100\n      exp\n      swap1\n      div\n      0xffffffffffffffffffffffffffffffffffffffff\n      and\n        /* \"ERC721.sol\":4147:4182  _tokenApprovals[tokenId] == spender */\n      0xffffffffffffffffffffffffffffffffffffffff\n      and\n      eq\n        /* \"ERC721.sol\":4114:4182  spender == owner ||... */\n    tag_158:\n        /* \"ERC721.sol\":4114:4233  spender == owner ||... */\n      dup1\n      tag_159\n      jumpi\n      pop\n        /* \"ERC721.sol\":4199:4217  _operatorApprovals */\n      0x05\n        /* \"ERC721.sol\":4199:4224  _operatorApprovals[owner] */\n      0x00\n        /* \"ERC721.sol\":4218:4223  owner */\n      dup6\n        /* \"ERC721.sol\":4199:4224  _operatorApprovals[owner] */\n      0xffffffffffffffffffffffffffffffffffffffff\n      and\n      0xffffffffffffffffffffffffffffffffffffffff\n      and\n      dup2\n      mstore\n      0x20\n      add\n      swap1\n      dup2\n      mstore\n      0x20\n      add\n      0x00\n      keccak256\n        /* \"ERC721.sol\":4199:4233  _operatorApprovals[owner][spender] */\n      0x00\n        /* \"ERC721.sol\":4225:4232  spender */\n      dup5\n        /* \"ERC721.sol\":4199:4233  _operatorApprovals[owner][spender] */\n      0xffffffffffffffffffffffffffffffffffffffff\n      and\n      0xffffffffffffffffffffffffffffffffffffffff\n      and\n      dup2\n      mstore\n      0x20\n      add\n      swap1\n      dup2\n      mstore\n      0x20\n      add\n      0x00\n      keccak256\n      0x00\n      swap1\n      sload\n      swap1\n      0x0100\n      exp\n      swap1\n      div\n      0xff\n      and\n        /* \"ERC721.sol\":4114:4233  spender == owner ||... */\n    tag_159:\n        /* \"ERC721.sol\":4106:4234  return (spender == owner ||... */\n      swap1\n      pop\n        /* \"ERC721.sol\":3959:4242  function _isApprovedOrOwner(... */\n      swap4\n      swap3\n      pop\n      pop\n      pop\n      jump\t// out\n        /* \"ERC721.sol\":4471:4906  function _transfer(... */\n    tag_112:\n        /* \"ERC721.sol\":4623:4628  owner */\n      dup4\n        /* \"ERC721.sol\":4615:4628  from == owner */\n      0xffffffffffffffffffffffffffffffffffffffff\n      and\n        /* \"ERC721.sol\":4615:4619  from */\n      dup4\n        /* \"ERC721.sol\":4615:4628  from == owner */\n      0xffffffffffffffffffffffffffffffffffffffff\n      and\n      eq\n        /* \"ERC721.sol\":4607:4642  require(from == owner, \"not owner\") */\n      tag_161\n      jumpi\n      mload(0x40)\n      0x08c379a000000000000000000000000000000000000000000000000000000000\n      dup2\n      mstore\n      0x04\n      add\n      tag_162\n      swap1\n      tag_163\n      jump\t// in\n    tag_162:\n      mload(0x40)\n      dup1\n      swap2\n      sub\n      swap1\n      revert\n    tag_161:\n        /* \"ERC721.sol\":4675:4676  0 */\n      0x00\n        /* \"ERC721.sol\":4661:4677  to != address(0) */\n      0xffffffffffffffffffffffffffffffffffffffff\n      and\n        /* \"ERC721.sol\":4661:4663  to */\n      dup3\n        /* \"ERC721.sol\":4661:4677  to != address(0) */\n      0xffffffffffffffffffffffffffffffffffffffff\n      and\n      sub\n        /* \"ERC721.sol\":4653:4710  require(to != address(0), \"transfer to the zero address\") */\n      tag_164\n      jumpi\n      mload(0x40)\n      0x08c379a000000000000000000000000000000000000000000000000000000000\n      dup2\n      mstore\n      0x04\n      add\n      tag_165\n      swap1\n      tag_166\n      jump\t// in\n    tag_165:\n      mload(0x40)\n      dup1\n      swap2\n      sub\n      swap1\n      revert\n    tag_164:\n        /* \"ERC721.sol\":4723:4759  _approve(owner, address(0), tokenId) */\n      tag_167\n        /* \"ERC721.sol\":4732:4737  owner */\n      dup5\n        /* \"ERC721.sol\":4747:4748  0 */\n      0x00\n        /* \"ERC721.sol\":4751:4758  tokenId */\n      dup4\n        /* \"ERC721.sol\":4723:4731  _approve */\n      tag_103\n        /* \"ERC721.sol\":4723:4759  _approve(owner, address(0), tokenId) */\n      jump\t// in\n    tag_167:\n        /* \"ERC721.sol\":4791:4792  1 */\n      0x01\n        /* \"ERC721.sol\":4772:4781  _balances */\n      0x03\n        /* \"ERC721.sol\":4772:4787  _balances[from] */\n      0x00\n        /* \"ERC721.sol\":4782:4786  from */\n      dup6\n        /* \"ERC721.sol\":4772:4787  _balances[from] */\n      0xffffffffffffffffffffffffffffffffffffffff\n      and\n      0xffffffffffffffffffffffffffffffffffffffff\n      and\n      dup2\n      mstore\n      0x20\n      add\n      swap1\n      dup2\n      mstore\n      0x20\n      add\n      0x00\n      keccak256\n      0x00\n        /* \"ERC721.sol\":4772:4792  _balances[from] -= 1 */\n      dup3\n      dup3\n      sload\n      tag_168\n      swap2\n      swap1\n      tag_169\n      jump\t// in\n    tag_168:\n      swap3\n      pop\n      pop\n      dup2\n      swap1\n      sstore\n      pop\n        /* \"ERC721.sol\":4820:4821  1 */\n      0x01\n        /* \"ERC721.sol\":4803:4812  _balances */\n      0x03\n        /* \"ERC721.sol\":4803:4816  _balances[to] */\n      0x00\n        /* \"ERC721.sol\":4813:4815  to */\n      dup5\n        /* \"ERC721.sol\":4803:4816  _balances[to] */\n      0xffffffffffffffffffffffffffffffffffffffff\n      and\n      0xffffffffffffffffffffffffffffffffffffffff\n      and\n      dup2\n      mstore\n      0x20\n      add\n      swap1\n      dup2\n      mstore\n      0x20\n      add\n      0x00\n      keccak256\n      0x00\n        /* \"ERC721.sol\":4803:4821  _balances[to] += 1 */\n      dup3\n      dup3\n      sload\n      tag_170\n      swap2\n      swap1\n      tag_171\n      jump\t// in\n    tag_170:\n      swap3\n      pop\n      pop\n      dup2\n      swap1\n      sstore\n      pop\n        /* \"ERC721.sol\":4851:4853  to */\n      dup2\n        /* \"ERC721.sol\":4832:4839  _owners */\n      0x02\n        /* \"ERC721.sol\":4832:4848  _owners[tokenId] */\n      0x00\n        /* \"ERC721.sol\":4840:4847  tokenId */\n      dup4\n        /* \"ERC721.sol\":4832:4848  _owners[tokenId] */\n      dup2\n      mstore\n      0x20\n      add\n      swap1\n      dup2\n      mstore\n      0x20\n      add\n      0x00\n      keccak256\n      0x00\n        /* \"ERC721.sol\":4832:4853  _owners[tokenId] = to */\n      0x0100\n      exp\n      dup2\n      sload\n      dup2\n      0xffffffffffffffffffffffffffffffffffffffff\n      mul\n      not\n      and\n      swap1\n      dup4\n      0xffffffffffffffffffffffffffffffffffffffff\n      and\n      mul\n      or\n      swap1\n      sstore\n      pop\n        /* \"ERC721.sol\":4890:4897  tokenId */\n      dup1\n        /* \"ERC721.sol\":4886:4888  to */\n      dup3\n        /* \"ERC721.sol\":4871:4898  Transfer(from, to, tokenId) */\n      0xffffffffffffffffffffffffffffffffffffffff\n      and\n        /* \"ERC721.sol\":4880:4884  from */\n      dup5\n        /* \"ERC721.sol\":4871:4898  Transfer(from, to, tokenId) */\n      0xffffffffffffffffffffffffffffffffffffffff\n      and\n      0xddf252ad1be2c89b69c2b068fc378daa952ba7f163c4a11628f55a4df523b3ef\n      mload(0x40)\n      mload(0x40)\n      dup1\n      swap2\n      sub\n      swap1\n      log4\n        /* \"ERC721.sol\":4471:4906  function _transfer(... */\n      pop\n      pop\n      pop\n      pop\n      jump\t// out\n        /* \"ERC721.sol\":7256:7570  function _mint(address to, uint tokenId) internal virtual {... */\n    tag_119:\n        /* \"ERC721.sol\":7347:7348  0 */\n      0x00\n        /* \"ERC721.sol\":7333:7349  to != address(0) */\n      0xffffffffffffffffffffffffffffffffffffffff\n      and\n        /* \"ERC721.sol\":7333:7335  to */\n      dup3\n        /* \"ERC721.sol\":7333:7349  to != address(0) */\n      0xffffffffffffffffffffffffffffffffffffffff\n      and\n      sub\n        /* \"ERC721.sol\":7325:7374  require(to != address(0), \"mint to zero address\") */\n      tag_173\n      jumpi\n      mload(0x40)\n      0x08c379a000000000000000000000000000000000000000000000000000000000\n      dup2\n      mstore\n      0x04\n      add\n      tag_174\n      swap1\n      tag_175\n      jump\t// in\n    tag_174:\n      mload(0x40)\n      dup1\n      swap2\n      sub\n      swap1\n      revert\n    tag_173:\n        /* \"ERC721.sol\":7421:7422  0 */\n      0x00\n        /* \"ERC721.sol\":7393:7423  _owners[tokenId] == address(0) */\n      0xffffffffffffffffffffffffffffffffffffffff\n      and\n        /* \"ERC721.sol\":7393:7400  _owners */\n      0x02\n        /* \"ERC721.sol\":7393:7409  _owners[tokenId] */\n      0x00\n        /* \"ERC721.sol\":7401:7408  tokenId */\n      dup4\n        /* \"ERC721.sol\":7393:7409  _owners[tokenId] */\n      dup2\n      mstore\n      0x20\n      add\n      swap1\n      dup2\n      mstore\n      0x20\n      add\n      0x00\n      keccak256\n      0x00\n      swap1\n      sload\n      swap1\n      0x0100\n      exp\n      swap1\n      div\n      0xffffffffffffffffffffffffffffffffffffffff\n      and\n        /* \"ERC721.sol\":7393:7423  _owners[tokenId] == address(0) */\n      0xffffffffffffffffffffffffffffffffffffffff\n      and\n      eq\n        /* \"ERC721.sol\":7385:7448  require(_owners[tokenId] == address(0), \"token already minted\") */\n      tag_176\n      jumpi\n      mload(0x40)\n      0x08c379a000000000000000000000000000000000000000000000000000000000\n      dup2\n      mstore\n      0x04\n      add\n      tag_177\n      swap1\n      tag_178\n      jump\t// in\n    tag_177:\n      mload(0x40)\n      dup1\n      swap2\n      sub\n      swap1\n      revert\n    tag_176:\n        /* \"ERC721.sol\":7478:7479  1 */\n      0x01\n        /* \"ERC721.sol\":7461:7470  _balances */\n      0x03\n        /* \"ERC721.sol\":7461:7474  _balances[to] */\n      0x00\n        /* \"ERC721.sol\":7471:7473  to */\n      dup5\n        /* \"ERC721.sol\":7461:7474  _balances[to] */\n      0xffffffffffffffffffffffffffffffffffffffff\n      and\n      0xffffffffffffffffffffffffffffffffffffffff\n      and\n      dup2\n      mstore\n      0x20\n      add\n      swap1\n      dup2\n      mstore\n      0x20\n      add\n      0x00\n      keccak256\n      0x00\n        /* \"ERC721.sol\":7461:7479  _balances[to] += 1 */\n      dup3\n      dup3\n      sload\n      tag_179\n      swap2\n      swap1\n      tag_171\n      jump\t// in\n    tag_179:\n      swap3\n      pop\n      pop\n      dup2\n      swap1\n      sstore\n      pop\n        /* \"ERC721.sol\":7509:7511  to */\n      dup2\n        /* \"ERC721.sol\":7490:7497  _owners */\n      0x02\n        /* \"ERC721.sol\":7490:7506  _owners[tokenId] */\n      0x00\n        /* \"ERC721.sol\":7498:7505  tokenId */\n      dup4\n        /* \"ERC721.sol\":7490:7506  _owners[tokenId] */\n      dup2\n      mstore\n      0x20\n      add\n      swap1\n      dup2\n      mstore\n      0x20\n      add\n      0x00\n      keccak256\n      0x00\n        /* \"ERC721.sol\":7490:7511  _owners[tokenId] = to */\n      0x0100\n      exp\n      dup2\n      sload\n      dup2\n      0xffffffffffffffffffffffffffffffffffffffff\n      mul\n      not\n      and\n      swap1\n      dup4\n      0xffffffffffffffffffffffffffffffffffffffff\n      and\n      mul\n      or\n      swap1\n      sstore\n      pop\n        /* \"ERC721.sol\":7554:7561  tokenId */\n      dup1\n        /* \"ERC721.sol\":7550:7552  to */\n      dup3\n        /* \"ERC721.sol\":7529:7562  Transfer(address(0), to, tokenId) */\n      0xffffffffffffffffffffffffffffffffffffffff\n      and\n        /* \"ERC721.sol\":7546:7547  0 */\n      0x00\n        /* \"ERC721.sol\":7529:7562  Transfer(address(0), to, tokenId) */\n      0xffffffffffffffffffffffffffffffffffffffff\n      and\n      0xddf252ad1be2c89b69c2b068fc378daa952ba7f163c4a11628f55a4df523b3ef\n      mload(0x40)\n      mload(0x40)\n      dup1\n      swap2\n      sub\n      swap1\n      log4\n        /* \"ERC721.sol\":7256:7570  function _mint(address to, uint tokenId) internal virtual {... */\n      pop\n      pop\n      jump\t// out\n        /* \"ERC721.sol\":5813:6084  function _safeTransfer(... */\n    tag_142:\n        /* \"ERC721.sol\":5982:6017  _transfer(owner, from, to, tokenId) */\n      tag_181\n        /* \"ERC721.sol\":5992:5997  owner */\n      dup6\n        /* \"ERC721.sol\":5999:6003  from */\n      dup6\n        /* \"ERC721.sol\":6005:6007  to */\n      dup6\n        /* \"ERC721.sol\":6009:6016  tokenId */\n      dup6\n        /* \"ERC721.sol\":5982:5991  _transfer */\n      tag_112\n        /* \"ERC721.sol\":5982:6017  _transfer(owner, from, to, tokenId) */\n      jump\t// in\n    tag_181:\n        /* \"ERC721.sol\":6028:6076  _checkOnERC721Received(from, to, tokenId, _data) */\n      tag_182\n        /* \"ERC721.sol\":6051:6055  from */\n      dup5\n        /* \"ERC721.sol\":6057:6059  to */\n      dup5\n        /* \"ERC721.sol\":6061:6068  tokenId */\n      dup5\n        /* \"ERC721.sol\":6070:6075  _data */\n      dup5\n        /* \"ERC721.sol\":6028:6050  _checkOnERC721Received */\n      tag_183\n        /* \"ERC721.sol\":6028:6076  _checkOnERC721Received(from, to, tokenId, _data) */\n      jump\t// in\n    tag_182:\n        /* \"ERC721.sol\":5813:6084  function _safeTransfer(... */\n      pop\n      pop\n      pop\n      pop\n      pop\n      jump\t// out\n        /* \"WTFApe.sol\":392:541  function _baseURI() internal pure override returns (string memory) {... */\n    tag_148:\n        /* \"WTFApe.sol\":444:457  string memory */\n      0x60\n        /* \"WTFApe.sol\":470:533  return \"ipfs://QmeSjSinHpPnmXmspMjwiXyN6zS4E9zccariGR3jxcaWtq/\" */\n      mload(0x40)\n      dup1\n      0x60\n      add\n      0x40\n      mstore\n      dup1\n      0x36\n      dup2\n      mstore\n      0x20\n      add\n      data_8382b382247cd07401a2ef2f394137c3f3b0972798bae0a9c78b0c261acbb56b\n      0x36\n      swap2\n      codecopy\n      swap1\n      pop\n        /* \"WTFApe.sol\":392:541  function _baseURI() internal pure override returns (string memory) {... */\n      swap1\n      jump\t// out\n        /* \"Strings.sol\":408:1131  function toString(uint256 value) internal pure returns (string memory) {... */\n    tag_152:\n        /* \"Strings.sol\":464:477  string memory */\n      0x60\n        /* \"Strings.sol\":694:695  0 */\n      0x00\n        /* \"Strings.sol\":685:690  value */\n      dup3\n        /* \"Strings.sol\":685:695  value == 0 */\n      sub\n        /* \"Strings.sol\":681:734  if (value == 0) {... */\n      tag_186\n      jumpi\n        /* \"Strings.sol\":712:722  return \"0\" */\n      mload(0x40)\n      dup1\n      0x40\n      add\n      0x40\n      mstore\n      dup1\n      0x01\n      dup2\n      mstore\n      0x20\n      add\n      0x3000000000000000000000000000000000000000000000000000000000000000\n      dup2\n      mstore\n      pop\n      swap1\n      pop\n      jump(tag_185)\n        /* \"Strings.sol\":681:734  if (value == 0) {... */\n    tag_186:\n        /* \"Strings.sol\":744:756  uint256 temp */\n      0x00\n        /* \"Strings.sol\":759:764  value */\n      dup3\n        /* \"Strings.sol\":744:764  uint256 temp = value */\n      swap1\n      pop\n        /* \"Strings.sol\":775:789  uint256 digits */\n      0x00\n        /* \"Strings.sol\":800:878  while (temp != 0) {... */\n    tag_187:\n        /* \"Strings.sol\":815:816  0 */\n      0x00\n        /* \"Strings.sol\":807:811  temp */\n      dup3\n        /* \"Strings.sol\":807:816  temp != 0 */\n      eq\n        /* \"Strings.sol\":800:878  while (temp != 0) {... */\n      tag_188\n      jumpi\n        /* \"Strings.sol\":833:841  digits++ */\n      dup1\n      dup1\n      tag_189\n      swap1\n      tag_190\n      jump\t// in\n    tag_189:\n      swap2\n      pop\n      pop\n        /* \"Strings.sol\":864:866  10 */\n      0x0a\n        /* \"Strings.sol\":856:866  temp /= 10 */\n      dup3\n      tag_191\n      swap2\n      swap1\n      tag_192\n      jump\t// in\n    tag_191:\n      swap2\n      pop\n        /* \"Strings.sol\":800:878  while (temp != 0) {... */\n      jump(tag_187)\n    tag_188:\n        /* \"Strings.sol\":888:907  bytes memory buffer */\n      0x00\n        /* \"Strings.sol\":920:926  digits */\n      dup2\n        /* \"Strings.sol\":910:927  new bytes(digits) */\n      0xffffffffffffffff\n      dup2\n      gt\n      iszero\n      tag_193\n      jumpi\n      tag_194\n      tag_195\n      jump\t// in\n    tag_194:\n    tag_193:\n      mload(0x40)\n      swap1\n      dup1\n      dup3\n      mstore\n      dup1\n      0x1f\n      add\n      not(0x1f)\n      and\n      0x20\n      add\n      dup3\n      add\n      0x40\n      mstore\n      dup1\n      iszero\n      tag_196\n      jumpi\n      dup2\n      0x20\n      add\n      0x01\n      dup3\n      mul\n      dup1\n      calldatasize\n      dup4\n      calldatacopy\n      dup1\n      dup3\n      add\n      swap2\n      pop\n      pop\n      swap1\n      pop\n    tag_196:\n      pop\n        /* \"Strings.sol\":888:927  bytes memory buffer = new bytes(digits) */\n      swap1\n      pop\n        /* \"Strings.sol\":938:1092  while (value != 0) {... */\n    tag_197:\n        /* \"Strings.sol\":954:955  0 */\n      0x00\n        /* \"Strings.sol\":945:950  value */\n      dup6\n        /* \"Strings.sol\":945:955  value != 0 */\n      eq\n        /* \"Strings.sol\":938:1092  while (value != 0) {... */\n      tag_198\n      jumpi\n        /* \"Strings.sol\":982:983  1 */\n      0x01\n        /* \"Strings.sol\":972:983  digits -= 1 */\n      dup3\n      tag_199\n      swap2\n      swap1\n      tag_169\n      jump\t// in\n    tag_199:\n      swap2\n      pop\n        /* \"Strings.sol\":1049:1051  10 */\n      0x0a\n        /* \"Strings.sol\":1041:1046  value */\n      dup6\n        /* \"Strings.sol\":1041:1051  value % 10 */\n      tag_200\n      swap2\n      swap1\n      tag_201\n      jump\t// in\n    tag_200:\n        /* \"Strings.sol\":1028:1030  48 */\n      0x30\n        /* \"Strings.sol\":1028:1052  48 + uint256(value % 10) */\n      tag_202\n      swap2\n      swap1\n      tag_171\n      jump\t// in\n    tag_202:\n        /* \"Strings.sol\":1015:1054  bytes1(uint8(48 + uint256(value % 10))) */\n      0xf8\n      shl\n        /* \"Strings.sol\":998:1004  buffer */\n      dup2\n        /* \"Strings.sol\":1005:1011  digits */\n      dup4\n        /* \"Strings.sol\":998:1012  buffer[digits] */\n      dup2\n      mload\n      dup2\n      lt\n      tag_203\n      jumpi\n      tag_204\n      tag_205\n      jump\t// in\n    tag_204:\n    tag_203:\n      0x20\n      add\n      add\n        /* \"Strings.sol\":998:1054  buffer[digits] = bytes1(uint8(48 + uint256(value % 10))) */\n      swap1\n      not(0xffffffffffffffffffffffffffffffffffffffffffffffffffffffffffffff)\n      and\n      swap1\n      dup2\n      0x00\n      byte\n      swap1\n      mstore8\n      pop\n        /* \"Strings.sol\":1078:1080  10 */\n      0x0a\n        /* \"Strings.sol\":1069:1080  value /= 10 */\n      dup6\n      tag_206\n      swap2\n      swap1\n      tag_192\n      jump\t// in\n    tag_206:\n      swap5\n      pop\n        /* \"Strings.sol\":938:1092  while (value != 0) {... */\n      jump(tag_197)\n    tag_198:\n        /* \"Strings.sol\":1116:1122  buffer */\n      dup1\n        /* \"Strings.sol\":1102:1123  return string(buffer) */\n      swap4\n      pop\n      pop\n      pop\n      pop\n        /* \"Strings.sol\":408:1131  function toString(uint256 value) internal pure returns (string memory) {... */\n    tag_185:\n      swap2\n      swap1\n      pop\n      jump\t// out\n        /* \"ERC721.sol\":8205:9002  function _checkOnERC721Received(address from, address to, uint256 tokenId, bytes memory data) private {... */\n    tag_183:\n        /* \"ERC721.sol\":8339:8340  0 */\n      0x00\n        /* \"ERC721.sol\":8322:8324  to */\n      dup4\n        /* \"ERC721.sol\":8322:8336  to.code.length */\n      0xffffffffffffffffffffffffffffffffffffffff\n      and\n      extcodesize\n        /* \"ERC721.sol\":8322:8340  to.code.length > 0 */\n      gt\n        /* \"ERC721.sol\":8318:8995  if (to.code.length > 0) {... */\n      iszero\n      tag_208\n      jumpi\n        /* \"ERC721.sol\":8377:8379  to */\n      dup3\n        /* \"ERC721.sol\":8361:8397  IERC721Receiver(to).onERC721Received */\n      0xffffffffffffffffffffffffffffffffffffffff\n      and\n      0x150b7a02\n        /* \"ERC721.sol\":8398:8408  msg.sender */\n      caller\n        /* \"ERC721.sol\":8410:8414  from */\n      dup7\n        /* \"ERC721.sol\":8416:8423  tokenId */\n      dup6\n        /* \"ERC721.sol\":8425:8429  data */\n      dup6\n        /* \"ERC721.sol\":8361:8430  IERC721Receiver(to).onERC721Received(msg.sender, from, tokenId, data) */\n      mload(0x40)\n      dup6\n      0xffffffff\n      and\n      0xe0\n      shl\n      dup2\n      mstore\n      0x04\n      add\n      tag_209\n      swap5\n      swap4\n      swap3\n      swap2\n      swap1\n      tag_210\n      jump\t// in\n    tag_209:\n      0x20\n      mload(0x40)\n      dup1\n      dup4\n      sub\n      dup2\n      0x00\n      dup8\n      gas\n      call\n      swap3\n      pop\n      pop\n      pop\n      dup1\n      iszero\n      tag_211\n      jumpi\n      pop\n      mload(0x40)\n      returndatasize\n      not(0x1f)\n      0x1f\n      dup3\n      add\n      and\n      dup3\n      add\n      dup1\n      0x40\n      mstore\n      pop\n      dup2\n      add\n      swap1\n      tag_212\n      swap2\n      swap1\n      tag_213\n      jump\t// in\n    tag_212:\n      0x01\n    tag_211:\n        /* \"ERC721.sol\":8357:8984  try IERC721Receiver(to).onERC721Received(msg.sender, from, tokenId, data) returns (bytes4 retval) {... */\n      tag_214\n      jumpi\n      returndatasize\n      dup1\n      0x00\n      dup2\n      eq\n      tag_219\n      jumpi\n      mload(0x40)\n      swap2\n      pop\n      and(add(returndatasize, 0x3f), not(0x1f))\n      dup3\n      add\n      0x40\n      mstore\n      returndatasize\n      dup3\n      mstore\n      returndatasize\n      0x00\n      0x20\n      dup5\n      add\n      returndatacopy\n      jump(tag_218)\n    tag_219:\n      0x60\n      swap2\n      pop\n    tag_218:\n      pop\n        /* \"ERC721.sol\":8690:8691  0 */\n      0x00\n        /* \"ERC721.sol\":8673:8679  reason */\n      dup2\n        /* \"ERC721.sol\":8673:8686  reason.length */\n      mload\n        /* \"ERC721.sol\":8673:8691  reason.length == 0 */\n      sub\n        /* \"ERC721.sol\":8669:8969  if (reason.length == 0) {... */\n      tag_220\n      jumpi\n        /* \"ERC721.sol\":8745:8747  to */\n      dup4\n        /* \"ERC721.sol\":8723:8748  ERC721InvalidReceiver(to) */\n      mload(0x40)\n      0x64a0ae9200000000000000000000000000000000000000000000000000000000\n      dup2\n      mstore\n      0x04\n      add\n      tag_221\n      swap2\n      swap1\n      tag_36\n      jump\t// in\n    tag_221:\n      mload(0x40)\n      dup1\n      swap2\n      sub\n      swap1\n      revert\n        /* \"ERC721.sol\":8669:8969  if (reason.length == 0) {... */\n    tag_220:\n        /* \"ERC721.sol\":8919:8925  reason */\n      dup1\n        /* \"ERC721.sol\":8913:8926  mload(reason) */\n      mload\n        /* \"ERC721.sol\":8904:8910  reason */\n      dup2\n        /* \"ERC721.sol\":8900:8902  32 */\n      0x20\n        /* \"ERC721.sol\":8896:8911  add(32, reason) */\n      add\n        /* \"ERC721.sol\":8889:8927  revert(add(32, reason), mload(reason)) */\n      revert\n        /* \"ERC721.sol\":8357:8984  try IERC721Receiver(to).onERC721Received(msg.sender, from, tokenId, data) returns (bytes4 retval) {... */\n    tag_214:\n        /* \"ERC721.sol\":8488:8529  IERC721Receiver.onERC721Received.selector */\n      shl(0xe0, 0x150b7a02)\n        /* \"ERC721.sol\":8478:8529  retval != IERC721Receiver.onERC721Received.selector */\n      not(0xffffffffffffffffffffffffffffffffffffffffffffffffffffffff)\n      and\n        /* \"ERC721.sol\":8478:8484  retval */\n      dup2\n        /* \"ERC721.sol\":8478:8529  retval != IERC721Receiver.onERC721Received.selector */\n      not(0xffffffffffffffffffffffffffffffffffffffffffffffffffffffff)\n      and\n      eq\n        /* \"ERC721.sol\":8474:8606  if (retval != IERC721Receiver.onERC721Received.selector) {... */\n      tag_224\n      jumpi\n        /* \"ERC721.sol\":8583:8585  to */\n      dup4\n        /* \"ERC721.sol\":8561:8586  ERC721InvalidReceiver(to) */\n      mload(0x40)\n      0x64a0ae9200000000000000000000000000000000000000000000000000000000\n      dup2\n      mstore\n      0x04\n      add\n      tag_225\n      swap2\n      swap1\n      tag_36\n      jump\t// in\n    tag_225:\n      mload(0x40)\n      dup1\n      swap2\n      sub\n      swap1\n      revert\n        /* \"ERC721.sol\":8474:8606  if (retval != IERC721Receiver.onERC721Received.selector) {... */\n    tag_224:\n        /* \"ERC721.sol\":8431:8621  returns (bytes4 retval) {... */\n      pop\n        /* \"ERC721.sol\":8318:8995  if (to.code.length > 0) {... */\n    tag_208:\n        /* \"ERC721.sol\":8205:9002  function _checkOnERC721Received(address from, address to, uint256 tokenId, bytes memory data) private {... */\n      pop\n      pop\n      pop\n      pop\n      jump\t// out\n        /* \"#utility.yul\":7:82   */\n    tag_226:\n        /* \"#utility.yul\":40:46   */\n      0x00\n        /* \"#utility.yul\":73:75   */\n      0x40\n        /* \"#utility.yul\":67:76   */\n      mload\n        /* \"#utility.yul\":57:76   */\n      swap1\n      pop\n        /* \"#utility.yul\":7:82   */\n      swap1\n      jump\t// out\n        /* \"#utility.yul\":88:205   */\n    tag_227:\n        /* \"#utility.yul\":197:198   */\n      0x00\n        /* \"#utility.yul\":194:195   */\n      0x00\n        /* \"#utility.yul\":187:199   */\n      revert\n        /* \"#utility.yul\":211:328   */\n    tag_228:\n        /* \"#utility.yul\":320:321   */\n      0x00\n        /* \"#utility.yul\":317:318   */\n      0x00\n        /* \"#utility.yul\":310:322   */\n      revert\n        /* \"#utility.yul\":334:483   */\n    tag_229:\n        /* \"#utility.yul\":370:377   */\n      0x00\n        /* \"#utility.yul\":410:476   */\n      0xffffffff00000000000000000000000000000000000000000000000000000000\n        /* \"#utility.yul\":403:408   */\n      dup3\n        /* \"#utility.yul\":399:477   */\n      and\n        /* \"#utility.yul\":388:477   */\n      swap1\n      pop\n        /* \"#utility.yul\":334:483   */\n      swap2\n      swap1\n      pop\n      jump\t// out\n        /* \"#utility.yul\":489:609   */\n    tag_230:\n        /* \"#utility.yul\":561:584   */\n      tag_293\n        /* \"#utility.yul\":578:583   */\n      dup2\n        /* \"#utility.yul\":561:584   */\n      tag_229\n      jump\t// in\n    tag_293:\n        /* \"#utility.yul\":554:559   */\n      dup2\n        /* \"#utility.yul\":551:585   */\n      eq\n        /* \"#utility.yul\":541:603   */\n      tag_294\n      jumpi\n        /* \"#utility.yul\":599:600   */\n      0x00\n        /* \"#utility.yul\":596:597   */\n      0x00\n        /* \"#utility.yul\":589:601   */\n      revert\n        /* \"#utility.yul\":541:603   */\n    tag_294:\n        /* \"#utility.yul\":489:609   */\n      pop\n      jump\t// out\n        /* \"#utility.yul\":615:752   */\n    tag_231:\n        /* \"#utility.yul\":660:665   */\n      0x00\n        /* \"#utility.yul\":698:704   */\n      dup2\n        /* \"#utility.yul\":685:705   */\n      calldataload\n        /* \"#utility.yul\":676:705   */\n      swap1\n      pop\n        /* \"#utility.yul\":714:746   */\n      tag_296\n        /* \"#utility.yul\":740:745   */\n      dup2\n        /* \"#utility.yul\":714:746   */\n      tag_230\n      jump\t// in\n    tag_296:\n        /* \"#utility.yul\":615:752   */\n      swap3\n      swap2\n      pop\n      pop\n      jump\t// out\n        /* \"#utility.yul\":758:1085   */\n    tag_23:\n        /* \"#utility.yul\":816:822   */\n      0x00\n        /* \"#utility.yul\":865:867   */\n      0x20\n        /* \"#utility.yul\":853:862   */\n      dup3\n        /* \"#utility.yul\":844:851   */\n      dup5\n        /* \"#utility.yul\":840:863   */\n      sub\n        /* \"#utility.yul\":836:868   */\n      slt\n        /* \"#utility.yul\":833:952   */\n      iszero\n      tag_298\n      jumpi\n        /* \"#utility.yul\":871:950   */\n      tag_299\n      tag_227\n      jump\t// in\n    tag_299:\n        /* \"#utility.yul\":833:952   */\n    tag_298:\n        /* \"#utility.yul\":991:992   */\n      0x00\n        /* \"#utility.yul\":1016:1068   */\n      tag_300\n        /* \"#utility.yul\":1060:1067   */\n      dup5\n        /* \"#utility.yul\":1051:1057   */\n      dup3\n        /* \"#utility.yul\":1040:1049   */\n      dup6\n        /* \"#utility.yul\":1036:1058   */\n      add\n        /* \"#utility.yul\":1016:1068   */\n      tag_231\n      jump\t// in\n    tag_300:\n        /* \"#utility.yul\":1006:1068   */\n      swap2\n      pop\n        /* \"#utility.yul\":962:1078   */\n      pop\n        /* \"#utility.yul\":758:1085   */\n      swap3\n      swap2\n      pop\n      pop\n      jump\t// out\n        /* \"#utility.yul\":1091:1181   */\n    tag_232:\n        /* \"#utility.yul\":1125:1132   */\n      0x00\n        /* \"#utility.yul\":1168:1173   */\n      dup2\n        /* \"#utility.yul\":1161:1174   */\n      iszero\n        /* \"#utility.yul\":1154:1175   */\n      iszero\n        /* \"#utility.yul\":1143:1175   */\n      swap1\n      pop\n        /* \"#utility.yul\":1091:1181   */\n      swap2\n      swap1\n      pop\n      jump\t// out\n        /* \"#utility.yul\":1187:1296   */\n    tag_233:\n        /* \"#utility.yul\":1268:1289   */\n      tag_303\n        /* \"#utility.yul\":1283:1288   */\n      dup2\n        /* \"#utility.yul\":1268:1289   */\n      tag_232\n      jump\t// in\n    tag_303:\n        /* \"#utility.yul\":1263:1266   */\n      dup3\n        /* \"#utility.yul\":1256:1290   */\n      mstore\n        /* \"#utility.yul\":1187:1296   */\n      pop\n      pop\n      jump\t// out\n        /* \"#utility.yul\":1302:1512   */\n    tag_26:\n        /* \"#utility.yul\":1389:1393   */\n      0x00\n        /* \"#utility.yul\":1427:1429   */\n      0x20\n        /* \"#utility.yul\":1416:1425   */\n      dup3\n        /* \"#utility.yul\":1412:1430   */\n      add\n        /* \"#utility.yul\":1404:1430   */\n      swap1\n      pop\n        /* \"#utility.yul\":1440:1505   */\n      tag_305\n        /* \"#utility.yul\":1502:1503   */\n      0x00\n        /* \"#utility.yul\":1491:1500   */\n      dup4\n        /* \"#utility.yul\":1487:1504   */\n      add\n        /* \"#utility.yul\":1478:1484   */\n      dup5\n        /* \"#utility.yul\":1440:1505   */\n      tag_233\n      jump\t// in\n    tag_305:\n        /* \"#utility.yul\":1302:1512   */\n      swap3\n      swap2\n      pop\n      pop\n      jump\t// out\n        /* \"#utility.yul\":1518:1617   */\n    tag_234:\n        /* \"#utility.yul\":1570:1576   */\n      0x00\n        /* \"#utility.yul\":1604:1609   */\n      dup2\n        /* \"#utility.yul\":1598:1610   */\n      mload\n        /* \"#utility.yul\":1588:1610   */\n      swap1\n      pop\n        /* \"#utility.yul\":1518:1617   */\n      swap2\n      swap1\n      pop\n      jump\t// out\n        /* \"#utility.yul\":1623:1792   */\n    tag_235:\n        /* \"#utility.yul\":1707:1718   */\n      0x00\n        /* \"#utility.yul\":1741:1747   */\n      dup3\n        /* \"#utility.yul\":1736:1739   */\n      dup3\n        /* \"#utility.yul\":1729:1748   */\n      mstore\n        /* \"#utility.yul\":1781:1785   */\n      0x20\n        /* \"#utility.yul\":1776:1779   */\n      dup3\n        /* \"#utility.yul\":1772:1786   */\n      add\n        /* \"#utility.yul\":1757:1786   */\n      swap1\n      pop\n        /* \"#utility.yul\":1623:1792   */\n      swap3\n      swap2\n      pop\n      pop\n      jump\t// out\n        /* \"#utility.yul\":1798:2046   */\n    tag_236:\n        /* \"#utility.yul\":1880:1881   */\n      0x00\n        /* \"#utility.yul\":1890:2003   */\n    tag_309:\n        /* \"#utility.yul\":1904:1910   */\n      dup4\n        /* \"#utility.yul\":1901:1902   */\n      dup2\n        /* \"#utility.yul\":1898:1911   */\n      lt\n        /* \"#utility.yul\":1890:2003   */\n      iszero\n      tag_311\n      jumpi\n        /* \"#utility.yul\":1989:1990   */\n      dup1\n        /* \"#utility.yul\":1984:1987   */\n      dup3\n        /* \"#utility.yul\":1980:1991   */\n      add\n        /* \"#utility.yul\":1974:1992   */\n      mload\n        /* \"#utility.yul\":1970:1971   */\n      dup2\n        /* \"#utility.yul\":1965:1968   */\n      dup5\n        /* \"#utility.yul\":1961:1972   */\n      add\n        /* \"#utility.yul\":1954:1993   */\n      mstore\n        /* \"#utility.yul\":1926:1928   */\n      0x20\n        /* \"#utility.yul\":1923:1924   */\n      dup2\n        /* \"#utility.yul\":1919:1929   */\n      add\n        /* \"#utility.yul\":1914:1929   */\n      swap1\n      pop\n        /* \"#utility.yul\":1890:2003   */\n      jump(tag_309)\n    tag_311:\n        /* \"#utility.yul\":2037:2038   */\n      0x00\n        /* \"#utility.yul\":2028:2034   */\n      dup5\n        /* \"#utility.yul\":2023:2026   */\n      dup5\n        /* \"#utility.yul\":2019:2035   */\n      add\n        /* \"#utility.yul\":2012:2039   */\n      mstore\n        /* \"#utility.yul\":1860:2046   */\n      pop\n        /* \"#utility.yul\":1798:2046   */\n      pop\n      pop\n      pop\n      jump\t// out\n        /* \"#utility.yul\":2052:2154   */\n    tag_237:\n        /* \"#utility.yul\":2093:2099   */\n      0x00\n        /* \"#utility.yul\":2144:2146   */\n      0x1f\n        /* \"#utility.yul\":2140:2147   */\n      not\n        /* \"#utility.yul\":2135:2137   */\n      0x1f\n        /* \"#utility.yul\":2128:2133   */\n      dup4\n        /* \"#utility.yul\":2124:2138   */\n      add\n        /* \"#utility.yul\":2120:2148   */\n      and\n        /* \"#utility.yul\":2110:2148   */\n      swap1\n      pop\n        /* \"#utility.yul\":2052:2154   */\n      swap2\n      swap1\n      pop\n      jump\t// out\n        /* \"#utility.yul\":2160:2537   */\n    tag_238:\n        /* \"#utility.yul\":2248:2251   */\n      0x00\n        /* \"#utility.yul\":2276:2315   */\n      tag_314\n        /* \"#utility.yul\":2309:2314   */\n      dup3\n        /* \"#utility.yul\":2276:2315   */\n      tag_234\n      jump\t// in\n    tag_314:\n        /* \"#utility.yul\":2331:2402   */\n      tag_315\n        /* \"#utility.yul\":2395:2401   */\n      dup2\n        /* \"#utility.yul\":2390:2393   */\n      dup6\n        /* \"#utility.yul\":2331:2402   */\n      tag_235\n      jump\t// in\n    tag_315:\n        /* \"#utility.yul\":2324:2402   */\n      swap4\n      pop\n        /* \"#utility.yul\":2411:2476   */\n      tag_316\n        /* \"#utility.yul\":2469:2475   */\n      dup2\n        /* \"#utility.yul\":2464:2467   */\n      dup6\n        /* \"#utility.yul\":2457:2461   */\n      0x20\n        /* \"#utility.yul\":2450:2455   */\n      dup7\n        /* \"#utility.yul\":2446:2462   */\n      add\n        /* \"#utility.yul\":2411:2476   */\n      tag_236\n      jump\t// in\n    tag_316:\n        /* \"#utility.yul\":2501:2530   */\n      tag_317\n        /* \"#utility.yul\":2523:2529   */\n      dup2\n        /* \"#utility.yul\":2501:2530   */\n      tag_237\n      jump\t// in\n    tag_317:\n        /* \"#utility.yul\":2496:2499   */\n      dup5\n        /* \"#utility.yul\":2492:2531   */\n      add\n        /* \"#utility.yul\":2485:2531   */\n      swap2\n      pop\n        /* \"#utility.yul\":2252:2537   */\n      pop\n        /* \"#utility.yul\":2160:2537   */\n      swap3\n      swap2\n      pop\n      pop\n      jump\t// out\n        /* \"#utility.yul\":2543:2856   */\n    tag_30:\n        /* \"#utility.yul\":2656:2660   */\n      0x00\n        /* \"#utility.yul\":2694:2696   */\n      0x20\n        /* \"#utility.yul\":2683:2692   */\n      dup3\n        /* \"#utility.yul\":2679:2697   */\n      add\n        /* \"#utility.yul\":2671:2697   */\n      swap1\n      pop\n        /* \"#utility.yul\":2743:2752   */\n      dup2\n        /* \"#utility.yul\":2737:2741   */\n      dup2\n        /* \"#utility.yul\":2733:2753   */\n      sub\n        /* \"#utility.yul\":2729:2730   */\n      0x00\n        /* \"#utility.yul\":2718:2727   */\n      dup4\n        /* \"#utility.yul\":2714:2731   */\n      add\n        /* \"#utility.yul\":2707:2754   */\n      mstore\n        /* \"#utility.yul\":2771:2849   */\n      tag_319\n        /* \"#utility.yul\":2844:2848   */\n      dup2\n        /* \"#utility.yul\":2835:2841   */\n      dup5\n        /* \"#utility.yul\":2771:2849   */\n      tag_238\n      jump\t// in\n    tag_319:\n        /* \"#utility.yul\":2763:2849   */\n      swap1\n      pop\n        /* \"#utility.yul\":2543:2856   */\n      swap3\n      swap2\n      pop\n      pop\n      jump\t// out\n        /* \"#utility.yul\":2862:2939   */\n    tag_239:\n        /* \"#utility.yul\":2899:2906   */\n      0x00\n        /* \"#utility.yul\":2928:2933   */\n      dup2\n        /* \"#utility.yul\":2917:2933   */\n      swap1\n      pop\n        /* \"#utility.yul\":2862:2939   */\n      swap2\n      swap1\n      pop\n      jump\t// out\n        /* \"#utility.yul\":2945:3067   */\n    tag_240:\n        /* \"#utility.yul\":3018:3042   */\n      tag_322\n        /* \"#utility.yul\":3036:3041   */\n      dup2\n        /* \"#utility.yul\":3018:3042   */\n      tag_239\n      jump\t// in\n    tag_322:\n        /* \"#utility.yul\":3011:3016   */\n      dup2\n        /* \"#utility.yul\":3008:3043   */\n      eq\n        /* \"#utility.yul\":2998:3061   */\n      tag_323\n      jumpi\n        /* \"#utility.yul\":3057:3058   */\n      0x00\n        /* \"#utility.yul\":3054:3055   */\n      0x00\n        /* \"#utility.yul\":3047:3059   */\n      revert\n        /* \"#utility.yul\":2998:3061   */\n    tag_323:\n        /* \"#utility.yul\":2945:3067   */\n      pop\n      jump\t// out\n        /* \"#utility.yul\":3073:3212   */\n    tag_241:\n        /* \"#utility.yul\":3119:3124   */\n      0x00\n        /* \"#utility.yul\":3157:3163   */\n      dup2\n        /* \"#utility.yul\":3144:3164   */\n      calldataload\n        /* \"#utility.yul\":3135:3164   */\n      swap1\n      pop\n        /* \"#utility.yul\":3173:3206   */\n      tag_325\n        /* \"#utility.yul\":3200:3205   */\n      dup2\n        /* \"#utility.yul\":3173:3206   */\n      tag_240\n      jump\t// in\n    tag_325:\n        /* \"#utility.yul\":3073:3212   */\n      swap3\n      swap2\n      pop\n      pop\n      jump\t// out\n        /* \"#utility.yul\":3218:3547   */\n    tag_33:\n        /* \"#utility.yul\":3277:3283   */\n      0x00\n        /* \"#utility.yul\":3326:3328   */\n      0x20\n        /* \"#utility.yul\":3314:3323   */\n      dup3\n        /* \"#utility.yul\":3305:3312   */\n      dup5\n        /* \"#utility.yul\":3301:3324   */\n      sub\n        /* \"#utility.yul\":3297:3329   */\n      slt\n        /* \"#utility.yul\":3294:3413   */\n      iszero\n      tag_327\n      jumpi\n        /* \"#utility.yul\":3332:3411   */\n      tag_328\n      tag_227\n      jump\t// in\n    tag_328:\n        /* \"#utility.yul\":3294:3413   */\n    tag_327:\n        /* \"#utility.yul\":3452:3453   */\n      0x00\n        /* \"#utility.yul\":3477:3530   */\n      tag_329\n        /* \"#utility.yul\":3522:3529   */\n      dup5\n        /* \"#utility.yul\":3513:3519   */\n      dup3\n        /* \"#utility.yul\":3502:3511   */\n      dup6\n        /* \"#utility.yul\":3498:3520   */\n      add\n        /* \"#utility.yul\":3477:3530   */\n      tag_241\n      jump\t// in\n    tag_329:\n        /* \"#utility.yul\":3467:3530   */\n      swap2\n      pop\n        /* \"#utility.yul\":3423:3540   */\n      pop\n        /* \"#utility.yul\":3218:3547   */\n      swap3\n      swap2\n      pop\n      pop\n      jump\t// out\n        /* \"#utility.yul\":3553:3679   */\n    tag_242:\n        /* \"#utility.yul\":3590:3597   */\n      0x00\n        /* \"#utility.yul\":3630:3672   */\n      0xffffffffffffffffffffffffffffffffffffffff\n        /* \"#utility.yul\":3623:3628   */\n      dup3\n        /* \"#utility.yul\":3619:3673   */\n      and\n        /* \"#utility.yul\":3608:3673   */\n      swap1\n      pop\n        /* \"#utility.yul\":3553:3679   */\n      swap2\n      swap1\n      pop\n      jump\t// out\n        /* \"#utility.yul\":3685:3781   */\n    tag_243:\n        /* \"#utility.yul\":3722:3729   */\n      0x00\n        /* \"#utility.yul\":3751:3775   */\n      tag_332\n        /* \"#utility.yul\":3769:3774   */\n      dup3\n        /* \"#utility.yul\":3751:3775   */\n      tag_242\n      jump\t// in\n    tag_332:\n        /* \"#utility.yul\":3740:3775   */\n      swap1\n      pop\n        /* \"#utility.yul\":3685:3781   */\n      swap2\n      swap1\n      pop\n      jump\t// out\n        /* \"#utility.yul\":3787:3905   */\n    tag_244:\n        /* \"#utility.yul\":3874:3898   */\n      tag_334\n        /* \"#utility.yul\":3892:3897   */\n      dup2\n        /* \"#utility.yul\":3874:3898   */\n      tag_243\n      jump\t// in\n    tag_334:\n        /* \"#utility.yul\":3869:3872   */\n      dup3\n        /* \"#utility.yul\":3862:3899   */\n      mstore\n        /* \"#utility.yul\":3787:3905   */\n      pop\n      pop\n      jump\t// out\n        /* \"#utility.yul\":3911:4133   */\n    tag_36:\n        /* \"#utility.yul\":4004:4008   */\n      0x00\n        /* \"#utility.yul\":4042:4044   */\n      0x20\n        /* \"#utility.yul\":4031:4040   */\n      dup3\n        /* \"#utility.yul\":4027:4045   */\n      add\n        /* \"#utility.yul\":4019:4045   */\n      swap1\n      pop\n        /* \"#utility.yul\":4055:4126   */\n      tag_336\n        /* \"#utility.yul\":4123:4124   */\n      0x00\n        /* \"#utility.yul\":4112:4121   */\n      dup4\n        /* \"#utility.yul\":4108:4125   */\n      add\n        /* \"#utility.yul\":4099:4105   */\n      dup5\n        /* \"#utility.yul\":4055:4126   */\n      tag_244\n      jump\t// in\n    tag_336:\n        /* \"#utility.yul\":3911:4133   */\n      swap3\n      swap2\n      pop\n      pop\n      jump\t// out\n        /* \"#utility.yul\":4139:4261   */\n    tag_245:\n        /* \"#utility.yul\":4212:4236   */\n      tag_338\n        /* \"#utility.yul\":4230:4235   */\n      dup2\n        /* \"#utility.yul\":4212:4236   */\n      tag_243\n      jump\t// in\n    tag_338:\n        /* \"#utility.yul\":4205:4210   */\n      dup2\n        /* \"#utility.yul\":4202:4237   */\n      eq\n        /* \"#utility.yul\":4192:4255   */\n      tag_339\n      jumpi\n        /* \"#utility.yul\":4251:4252   */\n      0x00\n        /* \"#utility.yul\":4248:4249   */\n      0x00\n        /* \"#utility.yul\":4241:4253   */\n      revert\n        /* \"#utility.yul\":4192:4255   */\n    tag_339:\n        /* \"#utility.yul\":4139:4261   */\n      pop\n      jump\t// out\n        /* \"#utility.yul\":4267:4406   */\n    tag_246:\n        /* \"#utility.yul\":4313:4318   */\n      0x00\n        /* \"#utility.yul\":4351:4357   */\n      dup2\n        /* \"#utility.yul\":4338:4358   */\n      calldataload\n        /* \"#utility.yul\":4329:4358   */\n      swap1\n      pop\n        /* \"#utility.yul\":4367:4400   */\n      tag_341\n        /* \"#utility.yul\":4394:4399   */\n      dup2\n        /* \"#utility.yul\":4367:4400   */\n      tag_245\n      jump\t// in\n    tag_341:\n        /* \"#utility.yul\":4267:4406   */\n      swap3\n      swap2\n      pop\n      pop\n      jump\t// out\n        /* \"#utility.yul\":4412:4886   */\n    tag_39:\n        /* \"#utility.yul\":4480:4486   */\n      0x00\n        /* \"#utility.yul\":4488:4494   */\n      0x00\n        /* \"#utility.yul\":4537:4539   */\n      0x40\n        /* \"#utility.yul\":4525:4534   */\n      dup4\n        /* \"#utility.yul\":4516:4523   */\n      dup6\n        /* \"#utility.yul\":4512:4535   */\n      sub\n        /* \"#utility.yul\":4508:4540   */\n      slt\n        /* \"#utility.yul\":4505:4624   */\n      iszero\n      tag_343\n      jumpi\n        /* \"#utility.yul\":4543:4622   */\n      tag_344\n      tag_227\n      jump\t// in\n    tag_344:\n        /* \"#utility.yul\":4505:4624   */\n    tag_343:\n        /* \"#utility.yul\":4663:4664   */\n      0x00\n        /* \"#utility.yul\":4688:4741   */\n      tag_345\n        /* \"#utility.yul\":4733:4740   */\n      dup6\n        /* \"#utility.yul\":4724:4730   */\n      dup3\n        /* \"#utility.yul\":4713:4722   */\n      dup7\n        /* \"#utility.yul\":4709:4731   */\n      add\n        /* \"#utility.yul\":4688:4741   */\n      tag_246\n      jump\t// in\n    tag_345:\n        /* \"#utility.yul\":4678:4741   */\n      swap3\n      pop\n        /* \"#utility.yul\":4634:4751   */\n      pop\n        /* \"#utility.yul\":4790:4792   */\n      0x20\n        /* \"#utility.yul\":4816:4869   */\n      tag_346\n        /* \"#utility.yul\":4861:4868   */\n      dup6\n        /* \"#utility.yul\":4852:4858   */\n      dup3\n        /* \"#utility.yul\":4841:4850   */\n      dup7\n        /* \"#utility.yul\":4837:4859   */\n      add\n        /* \"#utility.yul\":4816:4869   */\n      tag_241\n      jump\t// in\n    tag_346:\n        /* \"#utility.yul\":4806:4869   */\n      swap2\n      pop\n        /* \"#utility.yul\":4761:4879   */\n      pop\n        /* \"#utility.yul\":4412:4886   */\n      swap3\n      pop\n      swap3\n      swap1\n      pop\n      jump\t// out\n        /* \"#utility.yul\":4892:5511   */\n    tag_43:\n        /* \"#utility.yul\":4969:4975   */\n      0x00\n        /* \"#utility.yul\":4977:4983   */\n      0x00\n        /* \"#utility.yul\":4985:4991   */\n      0x00\n        /* \"#utility.yul\":5034:5036   */\n      0x60\n        /* \"#utility.yul\":5022:5031   */\n      dup5\n        /* \"#utility.yul\":5013:5020   */\n      dup7\n        /* \"#utility.yul\":5009:5032   */\n      sub\n        /* \"#utility.yul\":5005:5037   */\n      slt\n        /* \"#utility.yul\":5002:5121   */\n      iszero\n      tag_348\n      jumpi\n        /* \"#utility.yul\":5040:5119   */\n      tag_349\n      tag_227\n      jump\t// in\n    tag_349:\n        /* \"#utility.yul\":5002:5121   */\n    tag_348:\n        /* \"#utility.yul\":5160:5161   */\n      0x00\n        /* \"#utility.yul\":5185:5238   */\n      tag_350\n        /* \"#utility.yul\":5230:5237   */\n      dup7\n        /* \"#utility.yul\":5221:5227   */\n      dup3\n        /* \"#utility.yul\":5210:5219   */\n      dup8\n        /* \"#utility.yul\":5206:5228   */\n      add\n        /* \"#utility.yul\":5185:5238   */\n      tag_246\n      jump\t// in\n    tag_350:\n        /* \"#utility.yul\":5175:5238   */\n      swap4\n      pop\n        /* \"#utility.yul\":5131:5248   */\n      pop\n        /* \"#utility.yul\":5287:5289   */\n      0x20\n        /* \"#utility.yul\":5313:5366   */\n      tag_351\n        /* \"#utility.yul\":5358:5365   */\n      dup7\n        /* \"#utility.yul\":5349:5355   */\n      dup3\n        /* \"#utility.yul\":5338:5347   */\n      dup8\n        /* \"#utility.yul\":5334:5356   */\n      add\n        /* \"#utility.yul\":5313:5366   */\n      tag_246\n      jump\t// in\n    tag_351:\n        /* \"#utility.yul\":5303:5366   */\n      swap3\n      pop\n        /* \"#utility.yul\":5258:5376   */\n      pop\n        /* \"#utility.yul\":5415:5417   */\n      0x40\n        /* \"#utility.yul\":5441:5494   */\n      tag_352\n        /* \"#utility.yul\":5486:5493   */\n      dup7\n        /* \"#utility.yul\":5477:5483   */\n      dup3\n        /* \"#utility.yul\":5466:5475   */\n      dup8\n        /* \"#utility.yul\":5462:5484   */\n      add\n        /* \"#utility.yul\":5441:5494   */\n      tag_241\n      jump\t// in\n    tag_352:\n        /* \"#utility.yul\":5431:5494   */\n      swap2\n      pop\n        /* \"#utility.yul\":5386:5504   */\n      pop\n        /* \"#utility.yul\":4892:5511   */\n      swap3\n      pop\n      swap3\n      pop\n      swap3\n      jump\t// out\n        /* \"#utility.yul\":5517:5846   */\n    tag_57:\n        /* \"#utility.yul\":5576:5582   */\n      0x00\n        /* \"#utility.yul\":5625:5627   */\n      0x20\n        /* \"#utility.yul\":5613:5622   */\n      dup3\n        /* \"#utility.yul\":5604:5611   */\n      dup5\n        /* \"#utility.yul\":5600:5623   */\n      sub\n        /* \"#utility.yul\":5596:5628   */\n      slt\n        /* \"#utility.yul\":5593:5712   */\n      iszero\n      tag_354\n      jumpi\n        /* \"#utility.yul\":5631:5710   */\n      tag_355\n      tag_227\n      jump\t// in\n    tag_355:\n        /* \"#utility.yul\":5593:5712   */\n    tag_354:\n        /* \"#utility.yul\":5751:5752   */\n      0x00\n        /* \"#utility.yul\":5776:5829   */\n      tag_356\n        /* \"#utility.yul\":5821:5828   */\n      dup5\n        /* \"#utility.yul\":5812:5818   */\n      dup3\n        /* \"#utility.yul\":5801:5810   */\n      dup6\n        /* \"#utility.yul\":5797:5819   */\n      add\n        /* \"#utility.yul\":5776:5829   */\n      tag_246\n      jump\t// in\n    tag_356:\n        /* \"#utility.yul\":5766:5829   */\n      swap2\n      pop\n        /* \"#utility.yul\":5722:5839   */\n      pop\n        /* \"#utility.yul\":5517:5846   */\n      swap3\n      swap2\n      pop\n      pop\n      jump\t// out\n        /* \"#utility.yul\":5852:5970   */\n    tag_247:\n        /* \"#utility.yul\":5939:5963   */\n      tag_358\n        /* \"#utility.yul\":5957:5962   */\n      dup2\n        /* \"#utility.yul\":5939:5963   */\n      tag_239\n      jump\t// in\n    tag_358:\n        /* \"#utility.yul\":5934:5937   */\n      dup3\n        /* \"#utility.yul\":5927:5964   */\n      mstore\n        /* \"#utility.yul\":5852:5970   */\n      pop\n      pop\n      jump\t// out\n        /* \"#utility.yul\":5976:6198   */\n    tag_60:\n        /* \"#utility.yul\":6069:6073   */\n      0x00\n        /* \"#utility.yul\":6107:6109   */\n      0x20\n        /* \"#utility.yul\":6096:6105   */\n      dup3\n        /* \"#utility.yul\":6092:6110   */\n      add\n        /* \"#utility.yul\":6084:6110   */\n      swap1\n      pop\n        /* \"#utility.yul\":6120:6191   */\n      tag_360\n        /* \"#utility.yul\":6188:6189   */\n      0x00\n        /* \"#utility.yul\":6177:6186   */\n      dup4\n        /* \"#utility.yul\":6173:6190   */\n      add\n        /* \"#utility.yul\":6164:6170   */\n      dup5\n        /* \"#utility.yul\":6120:6191   */\n      tag_247\n      jump\t// in\n    tag_360:\n        /* \"#utility.yul\":5976:6198   */\n      swap3\n      swap2\n      pop\n      pop\n      jump\t// out\n        /* \"#utility.yul\":6204:6320   */\n    tag_248:\n        /* \"#utility.yul\":6274:6295   */\n      tag_362\n        /* \"#utility.yul\":6289:6294   */\n      dup2\n        /* \"#utility.yul\":6274:6295   */\n      tag_232\n      jump\t// in\n    tag_362:\n        /* \"#utility.yul\":6267:6272   */\n      dup2\n        /* \"#utility.yul\":6264:6296   */\n      eq\n        /* \"#utility.yul\":6254:6314   */\n      tag_363\n      jumpi\n        /* \"#utility.yul\":6310:6311   */\n      0x00\n        /* \"#utility.yul\":6307:6308   */\n      0x00\n        /* \"#utility.yul\":6300:6312   */\n      revert\n        /* \"#utility.yul\":6254:6314   */\n    tag_363:\n        /* \"#utility.yul\":6204:6320   */\n      pop\n      jump\t// out\n        /* \"#utility.yul\":6326:6459   */\n    tag_249:\n        /* \"#utility.yul\":6369:6374   */\n      0x00\n        /* \"#utility.yul\":6407:6413   */\n      dup2\n        /* \"#utility.yul\":6394:6414   */\n      calldataload\n        /* \"#utility.yul\":6385:6414   */\n      swap1\n      pop\n        /* \"#utility.yul\":6423:6453   */\n      tag_365\n        /* \"#utility.yul\":6447:6452   */\n      dup2\n        /* \"#utility.yul\":6423:6453   */\n      tag_248\n      jump\t// in\n    tag_365:\n        /* \"#utility.yul\":6326:6459   */\n      swap3\n      swap2\n      pop\n      pop\n      jump\t// out\n        /* \"#utility.yul\":6465:6933   */\n    tag_66:\n        /* \"#utility.yul\":6530:6536   */\n      0x00\n        /* \"#utility.yul\":6538:6544   */\n      0x00\n        /* \"#utility.yul\":6587:6589   */\n      0x40\n        /* \"#utility.yul\":6575:6584   */\n      dup4\n        /* \"#utility.yul\":6566:6573   */\n      dup6\n        /* \"#utility.yul\":6562:6585   */\n      sub\n        /* \"#utility.yul\":6558:6590   */\n      slt\n        /* \"#utility.yul\":6555:6674   */\n      iszero\n      tag_367\n      jumpi\n        /* \"#utility.yul\":6593:6672   */\n      tag_368\n      tag_227\n      jump\t// in\n    tag_368:\n        /* \"#utility.yul\":6555:6674   */\n    tag_367:\n        /* \"#utility.yul\":6713:6714   */\n      0x00\n        /* \"#utility.yul\":6738:6791   */\n      tag_369\n        /* \"#utility.yul\":6783:6790   */\n      dup6\n        /* \"#utility.yul\":6774:6780   */\n      dup3\n        /* \"#utility.yul\":6763:6772   */\n      dup7\n        /* \"#utility.yul\":6759:6781   */\n      add\n        /* \"#utility.yul\":6738:6791   */\n      tag_246\n      jump\t// in\n    tag_369:\n        /* \"#utility.yul\":6728:6791   */\n      swap3\n      pop\n        /* \"#utility.yul\":6684:6801   */\n      pop\n        /* \"#utility.yul\":6840:6842   */\n      0x20\n        /* \"#utility.yul\":6866:6916   */\n      tag_370\n        /* \"#utility.yul\":6908:6915   */\n      dup6\n        /* \"#utility.yul\":6899:6905   */\n      dup3\n        /* \"#utility.yul\":6888:6897   */\n      dup7\n        /* \"#utility.yul\":6884:6906   */\n      add\n        /* \"#utility.yul\":6866:6916   */\n      tag_249\n      jump\t// in\n    tag_370:\n        /* \"#utility.yul\":6856:6916   */\n      swap2\n      pop\n        /* \"#utility.yul\":6811:6926   */\n      pop\n        /* \"#utility.yul\":6465:6933   */\n      swap3\n      pop\n      swap3\n      swap1\n      pop\n      jump\t// out\n        /* \"#utility.yul\":6939:7056   */\n    tag_250:\n        /* \"#utility.yul\":7048:7049   */\n      0x00\n        /* \"#utility.yul\":7045:7046   */\n      0x00\n        /* \"#utility.yul\":7038:7050   */\n      revert\n        /* \"#utility.yul\":7062:7179   */\n    tag_251:\n        /* \"#utility.yul\":7171:7172   */\n      0x00\n        /* \"#utility.yul\":7168:7169   */\n      0x00\n        /* \"#utility.yul\":7161:7173   */\n      revert\n        /* \"#utility.yul\":7185:7365   */\n    tag_195:\n        /* \"#utility.yul\":7233:7310   */\n      0x4e487b7100000000000000000000000000000000000000000000000000000000\n        /* \"#utility.yul\":7230:7231   */\n      0x00\n        /* \"#utility.yul\":7223:7311   */\n      mstore\n        /* \"#utility.yul\":7330:7334   */\n      0x41\n        /* \"#utility.yul\":7327:7328   */\n      0x04\n        /* \"#utility.yul\":7320:7335   */\n      mstore\n        /* \"#utility.yul\":7354:7358   */\n      0x24\n        /* \"#utility.yul\":7351:7352   */\n      0x00\n        /* \"#utility.yul\":7344:7359   */\n      revert\n        /* \"#utility.yul\":7371:7652   */\n    tag_252:\n        /* \"#utility.yul\":7454:7481   */\n      tag_375\n        /* \"#utility.yul\":7476:7480   */\n      dup3\n        /* \"#utility.yul\":7454:7481   */\n      tag_237\n      jump\t// in\n    tag_375:\n        /* \"#utility.yul\":7446:7452   */\n      dup2\n        /* \"#utility.yul\":7442:7482   */\n      add\n        /* \"#utility.yul\":7584:7590   */\n      dup2\n        /* \"#utility.yul\":7572:7582   */\n      dup2\n        /* \"#utility.yul\":7569:7591   */\n      lt\n        /* \"#utility.yul\":7548:7566   */\n      0xffffffffffffffff\n        /* \"#utility.yul\":7536:7546   */\n      dup3\n        /* \"#utility.yul\":7533:7567   */\n      gt\n        /* \"#utility.yul\":7530:7592   */\n      or\n        /* \"#utility.yul\":7527:7615   */\n      iszero\n      tag_376\n      jumpi\n        /* \"#utility.yul\":7595:7613   */\n      tag_377\n      tag_195\n      jump\t// in\n    tag_377:\n        /* \"#utility.yul\":7527:7615   */\n    tag_376:\n        /* \"#utility.yul\":7635:7645   */\n      dup1\n        /* \"#utility.yul\":7631:7633   */\n      0x40\n        /* \"#utility.yul\":7624:7646   */\n      mstore\n        /* \"#utility.yul\":7414:7652   */\n      pop\n        /* \"#utility.yul\":7371:7652   */\n      pop\n      pop\n      jump\t// out\n        /* \"#utility.yul\":7658:7787   */\n    tag_253:\n        /* \"#utility.yul\":7692:7698   */\n      0x00\n        /* \"#utility.yul\":7719:7739   */\n      tag_379\n      tag_226\n      jump\t// in\n    tag_379:\n        /* \"#utility.yul\":7709:7739   */\n      swap1\n      pop\n        /* \"#utility.yul\":7748:7781   */\n      tag_380\n        /* \"#utility.yul\":7776:7780   */\n      dup3\n        /* \"#utility.yul\":7768:7774   */\n      dup3\n        /* \"#utility.yul\":7748:7781   */\n      tag_252\n      jump\t// in\n    tag_380:\n        /* \"#utility.yul\":7658:7787   */\n      swap2\n      swap1\n      pop\n      jump\t// out\n        /* \"#utility.yul\":7793:8100   */\n    tag_254:\n        /* \"#utility.yul\":7854:7858   */\n      0x00\n        /* \"#utility.yul\":7944:7962   */\n      0xffffffffffffffff\n        /* \"#utility.yul\":7936:7942   */\n      dup3\n        /* \"#utility.yul\":7933:7963   */\n      gt\n        /* \"#utility.yul\":7930:7986   */\n      iszero\n      tag_382\n      jumpi\n        /* \"#utility.yul\":7966:7984   */\n      tag_383\n      tag_195\n      jump\t// in\n    tag_383:\n        /* \"#utility.yul\":7930:7986   */\n    tag_382:\n        /* \"#utility.yul\":8004:8033   */\n      tag_384\n        /* \"#utility.yul\":8026:8032   */\n      dup3\n        /* \"#utility.yul\":8004:8033   */\n      tag_237\n      jump\t// in\n    tag_384:\n        /* \"#utility.yul\":7996:8033   */\n      swap1\n      pop\n        /* \"#utility.yul\":8088:8092   */\n      0x20\n        /* \"#utility.yul\":8082:8086   */\n      dup2\n        /* \"#utility.yul\":8078:8093   */\n      add\n        /* \"#utility.yul\":8070:8093   */\n      swap1\n      pop\n        /* \"#utility.yul\":7793:8100   */\n      swap2\n      swap1\n      pop\n      jump\t// out\n        /* \"#utility.yul\":8106:8254   */\n    tag_255:\n        /* \"#utility.yul\":8204:8210   */\n      dup3\n        /* \"#utility.yul\":8199:8202   */\n      dup2\n        /* \"#utility.yul\":8194:8197   */\n      dup4\n        /* \"#utility.yul\":8181:8211   */\n      calldatacopy\n        /* \"#utility.yul\":8245:8246   */\n      0x00\n        /* \"#utility.yul\":8236:8242   */\n      dup4\n        /* \"#utility.yul\":8231:8234   */\n      dup4\n        /* \"#utility.yul\":8227:8243   */\n      add\n        /* \"#utility.yul\":8220:8247   */\n      mstore\n        /* \"#utility.yul\":8106:8254   */\n      pop\n      pop\n      pop\n      jump\t// out\n        /* \"#utility.yul\":8260:8683   */\n    tag_256:\n        /* \"#utility.yul\":8337:8342   */\n      0x00\n        /* \"#utility.yul\":8362:8427   */\n      tag_387\n        /* \"#utility.yul\":8378:8426   */\n      tag_388\n        /* \"#utility.yul\":8419:8425   */\n      dup5\n        /* \"#utility.yul\":8378:8426   */\n      tag_254\n      jump\t// in\n    tag_388:\n        /* \"#utility.yul\":8362:8427   */\n      tag_253\n      jump\t// in\n    tag_387:\n        /* \"#utility.yul\":8353:8427   */\n      swap1\n      pop\n        /* \"#utility.yul\":8450:8456   */\n      dup3\n        /* \"#utility.yul\":8443:8448   */\n      dup2\n        /* \"#utility.yul\":8436:8457   */\n      mstore\n        /* \"#utility.yul\":8488:8492   */\n      0x20\n        /* \"#utility.yul\":8481:8486   */\n      dup2\n        /* \"#utility.yul\":8477:8493   */\n      add\n        /* \"#utility.yul\":8526:8529   */\n      dup5\n        /* \"#utility.yul\":8517:8523   */\n      dup5\n        /* \"#utility.yul\":8512:8515   */\n      dup5\n        /* \"#utility.yul\":8508:8524   */\n      add\n        /* \"#utility.yul\":8505:8530   */\n      gt\n        /* \"#utility.yul\":8502:8614   */\n      iszero\n      tag_389\n      jumpi\n        /* \"#utility.yul\":8533:8612   */\n      tag_390\n      tag_251\n      jump\t// in\n    tag_390:\n        /* \"#utility.yul\":8502:8614   */\n    tag_389:\n        /* \"#utility.yul\":8623:8677   */\n      tag_391\n        /* \"#utility.yul\":8670:8676   */\n      dup5\n        /* \"#utility.yul\":8665:8668   */\n      dup3\n        /* \"#utility.yul\":8660:8663   */\n      dup6\n        /* \"#utility.yul\":8623:8677   */\n      tag_255\n      jump\t// in\n    tag_391:\n        /* \"#utility.yul\":8343:8683   */\n      pop\n        /* \"#utility.yul\":8260:8683   */\n      swap4\n      swap3\n      pop\n      pop\n      pop\n      jump\t// out\n        /* \"#utility.yul\":8702:9040   */\n    tag_257:\n        /* \"#utility.yul\":8757:8762   */\n      0x00\n        /* \"#utility.yul\":8806:8809   */\n      dup3\n        /* \"#utility.yul\":8799:8803   */\n      0x1f\n        /* \"#utility.yul\":8791:8797   */\n      dup4\n        /* \"#utility.yul\":8787:8804   */\n      add\n        /* \"#utility.yul\":8783:8810   */\n      slt\n        /* \"#utility.yul\":8773:8895   */\n      tag_393\n      jumpi\n        /* \"#utility.yul\":8814:8893   */\n      tag_394\n      tag_250\n      jump\t// in\n    tag_394:\n        /* \"#utility.yul\":8773:8895   */\n    tag_393:\n        /* \"#utility.yul\":8931:8937   */\n      dup2\n        /* \"#utility.yul\":8918:8938   */\n      calldataload\n        /* \"#utility.yul\":8956:9034   */\n      tag_395\n        /* \"#utility.yul\":9030:9033   */\n      dup5\n        /* \"#utility.yul\":9022:9028   */\n      dup3\n        /* \"#utility.yul\":9015:9019   */\n      0x20\n        /* \"#utility.yul\":9007:9013   */\n      dup7\n        /* \"#utility.yul\":9003:9020   */\n      add\n        /* \"#utility.yul\":8956:9034   */\n      tag_256\n      jump\t// in\n    tag_395:\n        /* \"#utility.yul\":8947:9034   */\n      swap2\n      pop\n        /* \"#utility.yul\":8763:9040   */\n      pop\n        /* \"#utility.yul\":8702:9040   */\n      swap3\n      swap2\n      pop\n      pop\n      jump\t// out\n        /* \"#utility.yul\":9046:9989   */\n    tag_70:\n        /* \"#utility.yul\":9141:9147   */\n      0x00\n        /* \"#utility.yul\":9149:9155   */\n      0x00\n        /* \"#utility.yul\":9157:9163   */\n      0x00\n        /* \"#utility.yul\":9165:9171   */\n      0x00\n        /* \"#utility.yul\":9214:9217   */\n      0x80\n        /* \"#utility.yul\":9202:9211   */\n      dup6\n        /* \"#utility.yul\":9193:9200   */\n      dup8\n        /* \"#utility.yul\":9189:9212   */\n      sub\n        /* \"#utility.yul\":9185:9218   */\n      slt\n        /* \"#utility.yul\":9182:9302   */\n      iszero\n      tag_397\n      jumpi\n        /* \"#utility.yul\":9221:9300   */\n      tag_398\n      tag_227\n      jump\t// in\n    tag_398:\n        /* \"#utility.yul\":9182:9302   */\n    tag_397:\n        /* \"#utility.yul\":9341:9342   */\n      0x00\n        /* \"#utility.yul\":9366:9419   */\n      tag_399\n        /* \"#utility.yul\":9411:9418   */\n      dup8\n        /* \"#utility.yul\":9402:9408   */\n      dup3\n        /* \"#utility.yul\":9391:9400   */\n      dup9\n        /* \"#utility.yul\":9387:9409   */\n      add\n        /* \"#utility.yul\":9366:9419   */\n      tag_246\n      jump\t// in\n    tag_399:\n        /* \"#utility.yul\":9356:9419   */\n      swap5\n      pop\n        /* \"#utility.yul\":9312:9429   */\n      pop\n        /* \"#utility.yul\":9468:9470   */\n      0x20\n        /* \"#utility.yul\":9494:9547   */\n      tag_400\n        /* \"#utility.yul\":9539:9546   */\n      dup8\n        /* \"#utility.yul\":9530:9536   */\n      dup3\n        /* \"#utility.yul\":9519:9528   */\n      dup9\n        /* \"#utility.yul\":9515:9537   */\n      add\n        /* \"#utility.yul\":9494:9547   */\n      tag_246\n      jump\t// in\n    tag_400:\n        /* \"#utility.yul\":9484:9547   */\n      swap4\n      pop\n        /* \"#utility.yul\":9439:9557   */\n      pop\n        /* \"#utility.yul\":9596:9598   */\n      0x40\n        /* \"#utility.yul\":9622:9675   */\n      tag_401\n        /* \"#utility.yul\":9667:9674   */\n      dup8\n        /* \"#utility.yul\":9658:9664   */\n      dup3\n        /* \"#utility.yul\":9647:9656   */\n      dup9\n        /* \"#utility.yul\":9643:9665   */\n      add\n        /* \"#utility.yul\":9622:9675   */\n      tag_241\n      jump\t// in\n    tag_401:\n        /* \"#utility.yul\":9612:9675   */\n      swap3\n      pop\n        /* \"#utility.yul\":9567:9685   */\n      pop\n        /* \"#utility.yul\":9752:9754   */\n      0x60\n        /* \"#utility.yul\":9741:9750   */\n      dup6\n        /* \"#utility.yul\":9737:9755   */\n      add\n        /* \"#utility.yul\":9724:9756   */\n      calldataload\n        /* \"#utility.yul\":9783:9801   */\n      0xffffffffffffffff\n        /* \"#utility.yul\":9775:9781   */\n      dup2\n        /* \"#utility.yul\":9772:9802   */\n      gt\n        /* \"#utility.yul\":9769:9886   */\n      iszero\n      tag_402\n      jumpi\n        /* \"#utility.yul\":9805:9884   */\n      tag_403\n      tag_228\n      jump\t// in\n    tag_403:\n        /* \"#utility.yul\":9769:9886   */\n    tag_402:\n        /* \"#utility.yul\":9910:9972   */\n      tag_404\n        /* \"#utility.yul\":9964:9971   */\n      dup8\n        /* \"#utility.yul\":9955:9961   */\n      dup3\n        /* \"#utility.yul\":9944:9953   */\n      dup9\n        /* \"#utility.yul\":9940:9962   */\n      add\n        /* \"#utility.yul\":9910:9972   */\n      tag_257\n      jump\t// in\n    tag_404:\n        /* \"#utility.yul\":9900:9972   */\n      swap2\n      pop\n        /* \"#utility.yul\":9695:9982   */\n      pop\n        /* \"#utility.yul\":9046:9989   */\n      swap3\n      swap6\n      swap2\n      swap5\n      pop\n      swap3\n      pop\n      jump\t// out\n        /* \"#utility.yul\":9995:10469   */\n    tag_81:\n        /* \"#utility.yul\":10063:10069   */\n      0x00\n        /* \"#utility.yul\":10071:10077   */\n      0x00\n        /* \"#utility.yul\":10120:10122   */\n      0x40\n        /* \"#utility.yul\":10108:10117   */\n      dup4\n        /* \"#utility.yul\":10099:10106   */\n      dup6\n        /* \"#utility.yul\":10095:10118   */\n      sub\n        /* \"#utility.yul\":10091:10123   */\n      slt\n        /* \"#utility.yul\":10088:10207   */\n      iszero\n      tag_406\n      jumpi\n        /* \"#utility.yul\":10126:10205   */\n      tag_407\n      tag_227\n      jump\t// in\n    tag_407:\n        /* \"#utility.yul\":10088:10207   */\n    tag_406:\n        /* \"#utility.yul\":10246:10247   */\n      0x00\n        /* \"#utility.yul\":10271:10324   */\n      tag_408\n        /* \"#utility.yul\":10316:10323   */\n      dup6\n        /* \"#utility.yul\":10307:10313   */\n      dup3\n        /* \"#utility.yul\":10296:10305   */\n      dup7\n        /* \"#utility.yul\":10292:10314   */\n      add\n        /* \"#utility.yul\":10271:10324   */\n      tag_246\n      jump\t// in\n    tag_408:\n        /* \"#utility.yul\":10261:10324   */\n      swap3\n      pop\n        /* \"#utility.yul\":10217:10334   */\n      pop\n        /* \"#utility.yul\":10373:10375   */\n      0x20\n        /* \"#utility.yul\":10399:10452   */\n      tag_409\n        /* \"#utility.yul\":10444:10451   */\n      dup6\n        /* \"#utility.yul\":10435:10441   */\n      dup3\n        /* \"#utility.yul\":10424:10433   */\n      dup7\n        /* \"#utility.yul\":10420:10442   */\n      add\n        /* \"#utility.yul\":10399:10452   */\n      tag_246\n      jump\t// in\n    tag_409:\n        /* \"#utility.yul\":10389:10452   */\n      swap2\n      pop\n        /* \"#utility.yul\":10344:10462   */\n      pop\n        /* \"#utility.yul\":9995:10469   */\n      swap3\n      pop\n      swap3\n      swap1\n      pop\n      jump\t// out\n        /* \"#utility.yul\":10475:10655   */\n    tag_258:\n        /* \"#utility.yul\":10523:10600   */\n      0x4e487b7100000000000000000000000000000000000000000000000000000000\n        /* \"#utility.yul\":10520:10521   */\n      0x00\n        /* \"#utility.yul\":10513:10601   */\n      mstore\n        /* \"#utility.yul\":10620:10624   */\n      0x22\n        /* \"#utility.yul\":10617:10618   */\n      0x04\n        /* \"#utility.yul\":10610:10625   */\n      mstore\n        /* \"#utility.yul\":10644:10648   */\n      0x24\n        /* \"#utility.yul\":10641:10642   */\n      0x00\n        /* \"#utility.yul\":10634:10649   */\n      revert\n        /* \"#utility.yul\":10661:10981   */\n    tag_88:\n        /* \"#utility.yul\":10705:10711   */\n      0x00\n        /* \"#utility.yul\":10742:10743   */\n      0x02\n        /* \"#utility.yul\":10736:10740   */\n      dup3\n        /* \"#utility.yul\":10732:10744   */\n      div\n        /* \"#utility.yul\":10722:10744   */\n      swap1\n      pop\n        /* \"#utility.yul\":10789:10790   */\n      0x01\n        /* \"#utility.yul\":10783:10787   */\n      dup3\n        /* \"#utility.yul\":10779:10791   */\n      and\n        /* \"#utility.yul\":10810:10828   */\n      dup1\n        /* \"#utility.yul\":10800:10881   */\n      tag_412\n      jumpi\n        /* \"#utility.yul\":10866:10870   */\n      0x7f\n        /* \"#utility.yul\":10858:10864   */\n      dup3\n        /* \"#utility.yul\":10854:10871   */\n      and\n        /* \"#utility.yul\":10844:10871   */\n      swap2\n      pop\n        /* \"#utility.yul\":10800:10881   */\n    tag_412:\n        /* \"#utility.yul\":10928:10930   */\n      0x20\n        /* \"#utility.yul\":10920:10926   */\n      dup3\n        /* \"#utility.yul\":10917:10931   */\n      lt\n        /* \"#utility.yul\":10897:10915   */\n      dup2\n        /* \"#utility.yul\":10894:10932   */\n      sub\n        /* \"#utility.yul\":10891:10975   */\n      tag_413\n      jumpi\n        /* \"#utility.yul\":10947:10965   */\n      tag_414\n      tag_258\n      jump\t// in\n    tag_414:\n        /* \"#utility.yul\":10891:10975   */\n    tag_413:\n        /* \"#utility.yul\":10712:10981   */\n      pop\n        /* \"#utility.yul\":10661:10981   */\n      swap2\n      swap1\n      pop\n      jump\t// out\n        /* \"#utility.yul\":10987:11156   */\n    tag_259:\n        /* \"#utility.yul\":11127:11148   */\n      0x746f6b656e20646f65736e277420657869737400000000000000000000000000\n        /* \"#utility.yul\":11123:11124   */\n      0x00\n        /* \"#utility.yul\":11115:11121   */\n      dup3\n        /* \"#utility.yul\":11111:11125   */\n      add\n        /* \"#utility.yul\":11104:11149   */\n      mstore\n        /* \"#utility.yul\":10987:11156   */\n      pop\n      jump\t// out\n        /* \"#utility.yul\":11162:11528   */\n    tag_260:\n        /* \"#utility.yul\":11304:11307   */\n      0x00\n        /* \"#utility.yul\":11325:11392   */\n      tag_417\n        /* \"#utility.yul\":11389:11391   */\n      0x13\n        /* \"#utility.yul\":11384:11387   */\n      dup4\n        /* \"#utility.yul\":11325:11392   */\n      tag_235\n      jump\t// in\n    tag_417:\n        /* \"#utility.yul\":11318:11392   */\n      swap2\n      pop\n        /* \"#utility.yul\":11401:11494   */\n      tag_418\n        /* \"#utility.yul\":11490:11493   */\n      dup3\n        /* \"#utility.yul\":11401:11494   */\n      tag_259\n      jump\t// in\n    tag_418:\n        /* \"#utility.yul\":11519:11521   */\n      0x20\n        /* \"#utility.yul\":11514:11517   */\n      dup3\n        /* \"#utility.yul\":11510:11522   */\n      add\n        /* \"#utility.yul\":11503:11522   */\n      swap1\n      pop\n        /* \"#utility.yul\":11162:11528   */\n      swap2\n      swap1\n      pop\n      jump\t// out\n        /* \"#utility.yul\":11534:11953   */\n    tag_96:\n        /* \"#utility.yul\":11700:11704   */\n      0x00\n        /* \"#utility.yul\":11738:11740   */\n      0x20\n        /* \"#utility.yul\":11727:11736   */\n      dup3\n        /* \"#utility.yul\":11723:11741   */\n      add\n        /* \"#utility.yul\":11715:11741   */\n      swap1\n      pop\n        /* \"#utility.yul\":11787:11796   */\n      dup2\n        /* \"#utility.yul\":11781:11785   */\n      dup2\n        /* \"#utility.yul\":11777:11797   */\n      sub\n        /* \"#utility.yul\":11773:11774   */\n      0x00\n        /* \"#utility.yul\":11762:11771   */\n      dup4\n        /* \"#utility.yul\":11758:11775   */\n      add\n        /* \"#utility.yul\":11751:11798   */\n      mstore\n        /* \"#utility.yul\":11815:11946   */\n      tag_420\n        /* \"#utility.yul\":11941:11945   */\n      dup2\n        /* \"#utility.yul\":11815:11946   */\n      tag_260\n      jump\t// in\n    tag_420:\n        /* \"#utility.yul\":11807:11946   */\n      swap1\n      pop\n        /* \"#utility.yul\":11534:11953   */\n      swap2\n      swap1\n      pop\n      jump\t// out\n        /* \"#utility.yul\":11959:12139   */\n    tag_261:\n        /* \"#utility.yul\":12099:12131   */\n      0x6e6f74206f776e6572206e6f7220617070726f76656420666f7220616c6c0000\n        /* \"#utility.yul\":12095:12096   */\n      0x00\n        /* \"#utility.yul\":12087:12093   */\n      dup3\n        /* \"#utility.yul\":12083:12097   */\n      add\n        /* \"#utility.yul\":12076:12132   */\n      mstore\n        /* \"#utility.yul\":11959:12139   */\n      pop\n      jump\t// out\n        /* \"#utility.yul\":12145:12511   */\n    tag_262:\n        /* \"#utility.yul\":12287:12290   */\n      0x00\n        /* \"#utility.yul\":12308:12375   */\n      tag_423\n        /* \"#utility.yul\":12372:12374   */\n      0x1e\n        /* \"#utility.yul\":12367:12370   */\n      dup4\n        /* \"#utility.yul\":12308:12375   */\n      tag_235\n      jump\t// in\n    tag_423:\n        /* \"#utility.yul\":12301:12375   */\n      swap2\n      pop\n        /* \"#utility.yul\":12384:12477   */\n      tag_424\n        /* \"#utility.yul\":12473:12476   */\n      dup3\n        /* \"#utility.yul\":12384:12477   */\n      tag_261\n      jump\t// in\n    tag_424:\n        /* \"#utility.yul\":12502:12504   */\n      0x20\n        /* \"#utility.yul\":12497:12500   */\n      dup3\n        /* \"#utility.yul\":12493:12505   */\n      add\n        /* \"#utility.yul\":12486:12505   */\n      swap1\n      pop\n        /* \"#utility.yul\":12145:12511   */\n      swap2\n      swap1\n      pop\n      jump\t// out\n        /* \"#utility.yul\":12517:12936   */\n    tag_101:\n        /* \"#utility.yul\":12683:12687   */\n      0x00\n        /* \"#utility.yul\":12721:12723   */\n      0x20\n        /* \"#utility.yul\":12710:12719   */\n      dup3\n        /* \"#utility.yul\":12706:12724   */\n      add\n        /* \"#utility.yul\":12698:12724   */\n      swap1\n      pop\n        /* \"#utility.yul\":12770:12779   */\n      dup2\n        /* \"#utility.yul\":12764:12768   */\n      dup2\n        /* \"#utility.yul\":12760:12780   */\n      sub\n        /* \"#utility.yul\":12756:12757   */\n      0x00\n        /* \"#utility.yul\":12745:12754   */\n      dup4\n        /* \"#utility.yul\":12741:12758   */\n      add\n        /* \"#utility.yul\":12734:12781   */\n      mstore\n        /* \"#utility.yul\":12798:12929   */\n      tag_426\n        /* \"#utility.yul\":12924:12928   */\n      dup2\n        /* \"#utility.yul\":12798:12929   */\n      tag_262\n      jump\t// in\n    tag_426:\n        /* \"#utility.yul\":12790:12929   */\n      swap1\n      pop\n        /* \"#utility.yul\":12517:12936   */\n      swap2\n      swap1\n      pop\n      jump\t// out\n        /* \"#utility.yul\":12942:13114   */\n    tag_263:\n        /* \"#utility.yul\":13082:13106   */\n      0x6e6f74206f776e6572206e6f7220617070726f76656400000000000000000000\n        /* \"#utility.yul\":13078:13079   */\n      0x00\n        /* \"#utility.yul\":13070:13076   */\n      dup3\n        /* \"#utility.yul\":13066:13080   */\n      add\n        /* \"#utility.yul\":13059:13107   */\n      mstore\n        /* \"#utility.yul\":12942:13114   */\n      pop\n      jump\t// out\n        /* \"#utility.yul\":13120:13486   */\n    tag_264:\n        /* \"#utility.yul\":13262:13265   */\n      0x00\n        /* \"#utility.yul\":13283:13350   */\n      tag_429\n        /* \"#utility.yul\":13347:13349   */\n      0x16\n        /* \"#utility.yul\":13342:13345   */\n      dup4\n        /* \"#utility.yul\":13283:13350   */\n      tag_235\n      jump\t// in\n    tag_429:\n        /* \"#utility.yul\":13276:13350   */\n      swap2\n      pop\n        /* \"#utility.yul\":13359:13452   */\n      tag_430\n        /* \"#utility.yul\":13448:13451   */\n      dup3\n        /* \"#utility.yul\":13359:13452   */\n      tag_263\n      jump\t// in\n    tag_430:\n        /* \"#utility.yul\":13477:13479   */\n      0x20\n        /* \"#utility.yul\":13472:13475   */\n      dup3\n        /* \"#utility.yul\":13468:13480   */\n      add\n        /* \"#utility.yul\":13461:13480   */\n      swap1\n      pop\n        /* \"#utility.yul\":13120:13486   */\n      swap2\n      swap1\n      pop\n      jump\t// out\n        /* \"#utility.yul\":13492:13911   */\n    tag_110:\n        /* \"#utility.yul\":13658:13662   */\n      0x00\n        /* \"#utility.yul\":13696:13698   */\n      0x20\n        /* \"#utility.yul\":13685:13694   */\n      dup3\n        /* \"#utility.yul\":13681:13699   */\n      add\n        /* \"#utility.yul\":13673:13699   */\n      swap1\n      pop\n        /* \"#utility.yul\":13745:13754   */\n      dup2\n        /* \"#utility.yul\":13739:13743   */\n      dup2\n        /* \"#utility.yul\":13735:13755   */\n      sub\n        /* \"#utility.yul\":13731:13732   */\n      0x00\n        /* \"#utility.yul\":13720:13729   */\n      dup4\n        /* \"#utility.yul\":13716:13733   */\n      add\n        /* \"#utility.yul\":13709:13756   */\n      mstore\n        /* \"#utility.yul\":13773:13904   */\n      tag_432\n        /* \"#utility.yul\":13899:13903   */\n      dup2\n        /* \"#utility.yul\":13773:13904   */\n      tag_264\n      jump\t// in\n    tag_432:\n        /* \"#utility.yul\":13765:13904   */\n      swap1\n      pop\n        /* \"#utility.yul\":13492:13911   */\n      swap2\n      swap1\n      pop\n      jump\t// out\n        /* \"#utility.yul\":13917:14087   */\n    tag_265:\n        /* \"#utility.yul\":14057:14079   */\n      0x746f6b656e4964206f7574206f662072616e6765000000000000000000000000\n        /* \"#utility.yul\":14053:14054   */\n      0x00\n        /* \"#utility.yul\":14045:14051   */\n      dup3\n        /* \"#utility.yul\":14041:14055   */\n      add\n        /* \"#utility.yul\":14034:14080   */\n      mstore\n        /* \"#utility.yul\":13917:14087   */\n      pop\n      jump\t// out\n        /* \"#utility.yul\":14093:14459   */\n    tag_266:\n        /* \"#utility.yul\":14235:14238   */\n      0x00\n        /* \"#utility.yul\":14256:14323   */\n      tag_435\n        /* \"#utility.yul\":14320:14322   */\n      0x14\n        /* \"#utility.yul\":14315:14318   */\n      dup4\n        /* \"#utility.yul\":14256:14323   */\n      tag_235\n      jump\t// in\n    tag_435:\n        /* \"#utility.yul\":14249:14323   */\n      swap2\n      pop\n        /* \"#utility.yul\":14332:14425   */\n      tag_436\n        /* \"#utility.yul\":14421:14424   */\n      dup3\n        /* \"#utility.yul\":14332:14425   */\n      tag_265\n      jump\t// in\n    tag_436:\n        /* \"#utility.yul\":14450:14452   */\n      0x20\n        /* \"#utility.yul\":14445:14448   */\n      dup3\n        /* \"#utility.yul\":14441:14453   */\n      add\n        /* \"#utility.yul\":14434:14453   */\n      swap1\n      pop\n        /* \"#utility.yul\":14093:14459   */\n      swap2\n      swap1\n      pop\n      jump\t// out\n        /* \"#utility.yul\":14465:14884   */\n    tag_117:\n        /* \"#utility.yul\":14631:14635   */\n      0x00\n        /* \"#utility.yul\":14669:14671   */\n      0x20\n        /* \"#utility.yul\":14658:14667   */\n      dup3\n        /* \"#utility.yul\":14654:14672   */\n      add\n        /* \"#utility.yul\":14646:14672   */\n      swap1\n      pop\n        /* \"#utility.yul\":14718:14727   */\n      dup2\n        /* \"#utility.yul\":14712:14716   */\n      dup2\n        /* \"#utility.yul\":14708:14728   */\n      sub\n        /* \"#utility.yul\":14704:14705   */\n      0x00\n        /* \"#utility.yul\":14693:14702   */\n      dup4\n        /* \"#utility.yul\":14689:14706   */\n      add\n        /* \"#utility.yul\":14682:14729   */\n      mstore\n        /* \"#utility.yul\":14746:14877   */\n      tag_438\n        /* \"#utility.yul\":14872:14876   */\n      dup2\n        /* \"#utility.yul\":14746:14877   */\n      tag_266\n      jump\t// in\n    tag_438:\n        /* \"#utility.yul\":14738:14877   */\n      swap1\n      pop\n        /* \"#utility.yul\":14465:14884   */\n      swap2\n      swap1\n      pop\n      jump\t// out\n        /* \"#utility.yul\":14890:15060   */\n    tag_267:\n        /* \"#utility.yul\":15030:15052   */\n      0x6f776e6572203d207a65726f2061646472657373000000000000000000000000\n        /* \"#utility.yul\":15026:15027   */\n      0x00\n        /* \"#utility.yul\":15018:15024   */\n      dup3\n        /* \"#utility.yul\":15014:15028   */\n      add\n        /* \"#utility.yul\":15007:15053   */\n      mstore\n        /* \"#utility.yul\":14890:15060   */\n      pop\n      jump\t// out\n        /* \"#utility.yul\":15066:15432   */\n    tag_268:\n        /* \"#utility.yul\":15208:15211   */\n      0x00\n        /* \"#utility.yul\":15229:15296   */\n      tag_441\n        /* \"#utility.yul\":15293:15295   */\n      0x14\n        /* \"#utility.yul\":15288:15291   */\n      dup4\n        /* \"#utility.yul\":15229:15296   */\n      tag_235\n      jump\t// in\n    tag_441:\n        /* \"#utility.yul\":15222:15296   */\n      swap2\n      pop\n        /* \"#utility.yul\":15305:15398   */\n      tag_442\n        /* \"#utility.yul\":15394:15397   */\n      dup3\n        /* \"#utility.yul\":15305:15398   */\n      tag_267\n      jump\t// in\n    tag_442:\n        /* \"#utility.yul\":15423:15425   */\n      0x20\n        /* \"#utility.yul\":15418:15421   */\n      dup3\n        /* \"#utility.yul\":15414:15426   */\n      add\n        /* \"#utility.yul\":15407:15426   */\n      swap1\n      pop\n        /* \"#utility.yul\":15066:15432   */\n      swap2\n      swap1\n      pop\n      jump\t// out\n        /* \"#utility.yul\":15438:15857   */\n    tag_128:\n        /* \"#utility.yul\":15604:15608   */\n      0x00\n        /* \"#utility.yul\":15642:15644   */\n      0x20\n        /* \"#utility.yul\":15631:15640   */\n      dup3\n        /* \"#utility.yul\":15627:15645   */\n      add\n        /* \"#utility.yul\":15619:15645   */\n      swap1\n      pop\n        /* \"#utility.yul\":15691:15700   */\n      dup2\n        /* \"#utility.yul\":15685:15689   */\n      dup2\n        /* \"#utility.yul\":15681:15701   */\n      sub\n        /* \"#utility.yul\":15677:15678   */\n      0x00\n        /* \"#utility.yul\":15666:15675   */\n      dup4\n        /* \"#utility.yul\":15662:15679   */\n      add\n        /* \"#utility.yul\":15655:15702   */\n      mstore\n        /* \"#utility.yul\":15719:15850   */\n      tag_444\n        /* \"#utility.yul\":15845:15849   */\n      dup2\n        /* \"#utility.yul\":15719:15850   */\n      tag_268\n      jump\t// in\n    tag_444:\n        /* \"#utility.yul\":15711:15850   */\n      swap1\n      pop\n        /* \"#utility.yul\":15438:15857   */\n      swap2\n      swap1\n      pop\n      jump\t// out\n        /* \"#utility.yul\":15863:16028   */\n    tag_269:\n        /* \"#utility.yul\":16003:16020   */\n      0x546f6b656e204e6f742045786973740000000000000000000000000000000000\n        /* \"#utility.yul\":15999:16000   */\n      0x00\n        /* \"#utility.yul\":15991:15997   */\n      dup3\n        /* \"#utility.yul\":15987:16001   */\n      add\n        /* \"#utility.yul\":15980:16021   */\n      mstore\n        /* \"#utility.yul\":15863:16028   */\n      pop\n      jump\t// out\n        /* \"#utility.yul\":16034:16400   */\n    tag_270:\n        /* \"#utility.yul\":16176:16179   */\n      0x00\n        /* \"#utility.yul\":16197:16264   */\n      tag_447\n        /* \"#utility.yul\":16261:16263   */\n      0x0f\n        /* \"#utility.yul\":16256:16259   */\n      dup4\n        /* \"#utility.yul\":16197:16264   */\n      tag_235\n      jump\t// in\n    tag_447:\n        /* \"#utility.yul\":16190:16264   */\n      swap2\n      pop\n        /* \"#utility.yul\":16273:16366   */\n      tag_448\n        /* \"#utility.yul\":16362:16365   */\n      dup3\n        /* \"#utility.yul\":16273:16366   */\n      tag_269\n      jump\t// in\n    tag_448:\n        /* \"#utility.yul\":16391:16393   */\n      0x20\n        /* \"#utility.yul\":16386:16389   */\n      dup3\n        /* \"#utility.yul\":16382:16394   */\n      add\n        /* \"#utility.yul\":16375:16394   */\n      swap1\n      pop\n        /* \"#utility.yul\":16034:16400   */\n      swap2\n      swap1\n      pop\n      jump\t// out\n        /* \"#utility.yul\":16406:16825   */\n    tag_146:\n        /* \"#utility.yul\":16572:16576   */\n      0x00\n        /* \"#utility.yul\":16610:16612   */\n      0x20\n        /* \"#utility.yul\":16599:16608   */\n      dup3\n        /* \"#utility.yul\":16595:16613   */\n      add\n        /* \"#utility.yul\":16587:16613   */\n      swap1\n      pop\n        /* \"#utility.yul\":16659:16668   */\n      dup2\n        /* \"#utility.yul\":16653:16657   */\n      dup2\n        /* \"#utility.yul\":16649:16669   */\n      sub\n        /* \"#utility.yul\":16645:16646   */\n      0x00\n        /* \"#utility.yul\":16634:16643   */\n      dup4\n        /* \"#utility.yul\":16630:16647   */\n      add\n        /* \"#utility.yul\":16623:16670   */\n      mstore\n        /* \"#utility.yul\":16687:16818   */\n      tag_450\n        /* \"#utility.yul\":16813:16817   */\n      dup2\n        /* \"#utility.yul\":16687:16818   */\n      tag_270\n      jump\t// in\n    tag_450:\n        /* \"#utility.yul\":16679:16818   */\n      swap1\n      pop\n        /* \"#utility.yul\":16406:16825   */\n      swap2\n      swap1\n      pop\n      jump\t// out\n        /* \"#utility.yul\":16831:16979   */\n    tag_271:\n        /* \"#utility.yul\":16933:16944   */\n      0x00\n        /* \"#utility.yul\":16970:16973   */\n      dup2\n        /* \"#utility.yul\":16955:16973   */\n      swap1\n      pop\n        /* \"#utility.yul\":16831:16979   */\n      swap3\n      swap2\n      pop\n      pop\n      jump\t// out\n        /* \"#utility.yul\":16985:17375   */\n    tag_272:\n        /* \"#utility.yul\":17091:17094   */\n      0x00\n        /* \"#utility.yul\":17119:17158   */\n      tag_453\n        /* \"#utility.yul\":17152:17157   */\n      dup3\n        /* \"#utility.yul\":17119:17158   */\n      tag_234\n      jump\t// in\n    tag_453:\n        /* \"#utility.yul\":17174:17263   */\n      tag_454\n        /* \"#utility.yul\":17256:17262   */\n      dup2\n        /* \"#utility.yul\":17251:17254   */\n      dup6\n        /* \"#utility.yul\":17174:17263   */\n      tag_271\n      jump\t// in\n    tag_454:\n        /* \"#utility.yul\":17167:17263   */\n      swap4\n      pop\n        /* \"#utility.yul\":17272:17337   */\n      tag_455\n        /* \"#utility.yul\":17330:17336   */\n      dup2\n        /* \"#utility.yul\":17325:17328   */\n      dup6\n        /* \"#utility.yul\":17318:17322   */\n      0x20\n        /* \"#utility.yul\":17311:17316   */\n      dup7\n        /* \"#utility.yul\":17307:17323   */\n      add\n        /* \"#utility.yul\":17272:17337   */\n      tag_236\n      jump\t// in\n    tag_455:\n        /* \"#utility.yul\":17362:17368   */\n      dup1\n        /* \"#utility.yul\":17357:17360   */\n      dup5\n        /* \"#utility.yul\":17353:17369   */\n      add\n        /* \"#utility.yul\":17346:17369   */\n      swap2\n      pop\n        /* \"#utility.yul\":17095:17375   */\n      pop\n        /* \"#utility.yul\":16985:17375   */\n      swap3\n      swap2\n      pop\n      pop\n      jump\t// out\n        /* \"#utility.yul\":17381:17816   */\n    tag_154:\n        /* \"#utility.yul\":17561:17564   */\n      0x00\n        /* \"#utility.yul\":17583:17678   */\n      tag_457\n        /* \"#utility.yul\":17674:17677   */\n      dup3\n        /* \"#utility.yul\":17665:17671   */\n      dup6\n        /* \"#utility.yul\":17583:17678   */\n      tag_272\n      jump\t// in\n    tag_457:\n        /* \"#utility.yul\":17576:17678   */\n      swap2\n      pop\n        /* \"#utility.yul\":17695:17790   */\n      tag_458\n        /* \"#utility.yul\":17786:17789   */\n      dup3\n        /* \"#utility.yul\":17777:17783   */\n      dup5\n        /* \"#utility.yul\":17695:17790   */\n      tag_272\n      jump\t// in\n    tag_458:\n        /* \"#utility.yul\":17688:17790   */\n      swap2\n      pop\n        /* \"#utility.yul\":17807:17810   */\n      dup2\n        /* \"#utility.yul\":17800:17810   */\n      swap1\n      pop\n        /* \"#utility.yul\":17381:17816   */\n      swap4\n      swap3\n      pop\n      pop\n      pop\n      jump\t// out\n        /* \"#utility.yul\":17822:17981   */\n    tag_273:\n        /* \"#utility.yul\":17962:17973   */\n      0x6e6f74206f776e65720000000000000000000000000000000000000000000000\n        /* \"#utility.yul\":17958:17959   */\n      0x00\n        /* \"#utility.yul\":17950:17956   */\n      dup3\n        /* \"#utility.yul\":17946:17960   */\n      add\n        /* \"#utility.yul\":17939:17974   */\n      mstore\n        /* \"#utility.yul\":17822:17981   */\n      pop\n      jump\t// out\n        /* \"#utility.yul\":17987:18352   */\n    tag_274:\n        /* \"#utility.yul\":18129:18132   */\n      0x00\n        /* \"#utility.yul\":18150:18216   */\n      tag_461\n        /* \"#utility.yul\":18214:18215   */\n      0x09\n        /* \"#utility.yul\":18209:18212   */\n      dup4\n        /* \"#utility.yul\":18150:18216   */\n      tag_235\n      jump\t// in\n    tag_461:\n        /* \"#utility.yul\":18143:18216   */\n      swap2\n      pop\n        /* \"#utility.yul\":18225:18318   */\n      tag_462\n        /* \"#utility.yul\":18314:18317   */\n      dup3\n        /* \"#utility.yul\":18225:18318   */\n      tag_273\n      jump\t// in\n    tag_462:\n        /* \"#utility.yul\":18343:18345   */\n      0x20\n        /* \"#utility.yul\":18338:18341   */\n      dup3\n        /* \"#utility.yul\":18334:18346   */\n      add\n        /* \"#utility.yul\":18327:18346   */\n      swap1\n      pop\n        /* \"#utility.yul\":17987:18352   */\n      swap2\n      swap1\n      pop\n      jump\t// out\n        /* \"#utility.yul\":18358:18777   */\n    tag_163:\n        /* \"#utility.yul\":18524:18528   */\n      0x00\n        /* \"#utility.yul\":18562:18564   */\n      0x20\n        /* \"#utility.yul\":18551:18560   */\n      dup3\n        /* \"#utility.yul\":18547:18565   */\n      add\n        /* \"#utility.yul\":18539:18565   */\n      swap1\n      pop\n        /* \"#utility.yul\":18611:18620   */\n      dup2\n        /* \"#utility.yul\":18605:18609   */\n      dup2\n        /* \"#utility.yul\":18601:18621   */\n      sub\n        /* \"#utility.yul\":18597:18598   */\n      0x00\n        /* \"#utility.yul\":18586:18595   */\n      dup4\n        /* \"#utility.yul\":18582:18599   */\n      add\n        /* \"#utility.yul\":18575:18622   */\n      mstore\n        /* \"#utility.yul\":18639:18770   */\n      tag_464\n        /* \"#utility.yul\":18765:18769   */\n      dup2\n        /* \"#utility.yul\":18639:18770   */\n      tag_274\n      jump\t// in\n    tag_464:\n        /* \"#utility.yul\":18631:18770   */\n      swap1\n      pop\n        /* \"#utility.yul\":18358:18777   */\n      swap2\n      swap1\n      pop\n      jump\t// out\n        /* \"#utility.yul\":18783:18961   */\n    tag_275:\n        /* \"#utility.yul\":18923:18953   */\n      0x7472616e7366657220746f20746865207a65726f206164647265737300000000\n        /* \"#utility.yul\":18919:18920   */\n      0x00\n        /* \"#utility.yul\":18911:18917   */\n      dup3\n        /* \"#utility.yul\":18907:18921   */\n      add\n        /* \"#utility.yul\":18900:18954   */\n      mstore\n        /* \"#utility.yul\":18783:18961   */\n      pop\n      jump\t// out\n        /* \"#utility.yul\":18967:19333   */\n    tag_276:\n        /* \"#utility.yul\":19109:19112   */\n      0x00\n        /* \"#utility.yul\":19130:19197   */\n      tag_467\n        /* \"#utility.yul\":19194:19196   */\n      0x1c\n        /* \"#utility.yul\":19189:19192   */\n      dup4\n        /* \"#utility.yul\":19130:19197   */\n      tag_235\n      jump\t// in\n    tag_467:\n        /* \"#utility.yul\":19123:19197   */\n      swap2\n      pop\n        /* \"#utility.yul\":19206:19299   */\n      tag_468\n        /* \"#utility.yul\":19295:19298   */\n      dup3\n        /* \"#utility.yul\":19206:19299   */\n      tag_275\n      jump\t// in\n    tag_468:\n        /* \"#utility.yul\":19324:19326   */\n      0x20\n        /* \"#utility.yul\":19319:19322   */\n      dup3\n        /* \"#utility.yul\":19315:19327   */\n      add\n        /* \"#utility.yul\":19308:19327   */\n      swap1\n      pop\n        /* \"#utility.yul\":18967:19333   */\n      swap2\n      swap1\n      pop\n      jump\t// out\n        /* \"#utility.yul\":19339:19758   */\n    tag_166:\n        /* \"#utility.yul\":19505:19509   */\n      0x00\n        /* \"#utility.yul\":19543:19545   */\n      0x20\n        /* \"#utility.yul\":19532:19541   */\n      dup3\n        /* \"#utility.yul\":19528:19546   */\n      add\n        /* \"#utility.yul\":19520:19546   */\n      swap1\n      pop\n        /* \"#utility.yul\":19592:19601   */\n      dup2\n        /* \"#utility.yul\":19586:19590   */\n      dup2\n        /* \"#utility.yul\":19582:19602   */\n      sub\n        /* \"#utility.yul\":19578:19579   */\n      0x00\n        /* \"#utility.yul\":19567:19576   */\n      dup4\n        /* \"#utility.yul\":19563:19580   */\n      add\n        /* \"#utility.yul\":19556:19603   */\n      mstore\n        /* \"#utility.yul\":19620:19751   */\n      tag_470\n        /* \"#utility.yul\":19746:19750   */\n      dup2\n        /* \"#utility.yul\":19620:19751   */\n      tag_276\n      jump\t// in\n    tag_470:\n        /* \"#utility.yul\":19612:19751   */\n      swap1\n      pop\n        /* \"#utility.yul\":19339:19758   */\n      swap2\n      swap1\n      pop\n      jump\t// out\n        /* \"#utility.yul\":19764:19944   */\n    tag_277:\n        /* \"#utility.yul\":19812:19889   */\n      0x4e487b7100000000000000000000000000000000000000000000000000000000\n        /* \"#utility.yul\":19809:19810   */\n      0x00\n        /* \"#utility.yul\":19802:19890   */\n      mstore\n        /* \"#utility.yul\":19909:19913   */\n      0x11\n        /* \"#utility.yul\":19906:19907   */\n      0x04\n        /* \"#utility.yul\":19899:19914   */\n      mstore\n        /* \"#utility.yul\":19933:19937   */\n      0x24\n        /* \"#utility.yul\":19930:19931   */\n      0x00\n        /* \"#utility.yul\":19923:19938   */\n      revert\n        /* \"#utility.yul\":19950:20144   */\n    tag_169:\n        /* \"#utility.yul\":19990:19994   */\n      0x00\n        /* \"#utility.yul\":20010:20030   */\n      tag_473\n        /* \"#utility.yul\":20028:20029   */\n      dup3\n        /* \"#utility.yul\":20010:20030   */\n      tag_239\n      jump\t// in\n    tag_473:\n        /* \"#utility.yul\":20005:20030   */\n      swap2\n      pop\n        /* \"#utility.yul\":20044:20064   */\n      tag_474\n        /* \"#utility.yul\":20062:20063   */\n      dup4\n        /* \"#utility.yul\":20044:20064   */\n      tag_239\n      jump\t// in\n    tag_474:\n        /* \"#utility.yul\":20039:20064   */\n      swap3\n      pop\n        /* \"#utility.yul\":20088:20089   */\n      dup3\n        /* \"#utility.yul\":20085:20086   */\n      dup3\n        /* \"#utility.yul\":20081:20090   */\n      sub\n        /* \"#utility.yul\":20073:20090   */\n      swap1\n      pop\n        /* \"#utility.yul\":20112:20113   */\n      dup2\n        /* \"#utility.yul\":20106:20110   */\n      dup2\n        /* \"#utility.yul\":20103:20114   */\n      gt\n        /* \"#utility.yul\":20100:20137   */\n      iszero\n      tag_475\n      jumpi\n        /* \"#utility.yul\":20117:20135   */\n      tag_476\n      tag_277\n      jump\t// in\n    tag_476:\n        /* \"#utility.yul\":20100:20137   */\n    tag_475:\n        /* \"#utility.yul\":19950:20144   */\n      swap3\n      swap2\n      pop\n      pop\n      jump\t// out\n        /* \"#utility.yul\":20150:20341   */\n    tag_171:\n        /* \"#utility.yul\":20190:20193   */\n      0x00\n        /* \"#utility.yul\":20209:20229   */\n      tag_478\n        /* \"#utility.yul\":20227:20228   */\n      dup3\n        /* \"#utility.yul\":20209:20229   */\n      tag_239\n      jump\t// in\n    tag_478:\n        /* \"#utility.yul\":20204:20229   */\n      swap2\n      pop\n        /* \"#utility.yul\":20243:20263   */\n      tag_479\n        /* \"#utility.yul\":20261:20262   */\n      dup4\n        /* \"#utility.yul\":20243:20263   */\n      tag_239\n      jump\t// in\n    tag_479:\n        /* \"#utility.yul\":20238:20263   */\n      swap3\n      pop\n        /* \"#utility.yul\":20286:20287   */\n      dup3\n        /* \"#utility.yul\":20283:20284   */\n      dup3\n        /* \"#utility.yul\":20279:20288   */\n      add\n        /* \"#utility.yul\":20272:20288   */\n      swap1\n      pop\n        /* \"#utility.yul\":20307:20310   */\n      dup1\n        /* \"#utility.yul\":20304:20305   */\n      dup3\n        /* \"#utility.yul\":20301:20311   */\n      gt\n        /* \"#utility.yul\":20298:20334   */\n      iszero\n      tag_480\n      jumpi\n        /* \"#utility.yul\":20314:20332   */\n      tag_481\n      tag_277\n      jump\t// in\n    tag_481:\n        /* \"#utility.yul\":20298:20334   */\n    tag_480:\n        /* \"#utility.yul\":20150:20341   */\n      swap3\n      swap2\n      pop\n      pop\n      jump\t// out\n        /* \"#utility.yul\":20347:20517   */\n    tag_278:\n        /* \"#utility.yul\":20487:20509   */\n      0x6d696e7420746f207a65726f2061646472657373000000000000000000000000\n        /* \"#utility.yul\":20483:20484   */\n      0x00\n        /* \"#utility.yul\":20475:20481   */\n      dup3\n        /* \"#utility.yul\":20471:20485   */\n      add\n        /* \"#utility.yul\":20464:20510   */\n      mstore\n        /* \"#utility.yul\":20347:20517   */\n      pop\n      jump\t// out\n        /* \"#utility.yul\":20523:20889   */\n    tag_279:\n        /* \"#utility.yul\":20665:20668   */\n      0x00\n        /* \"#utility.yul\":20686:20753   */\n      tag_484\n        /* \"#utility.yul\":20750:20752   */\n      0x14\n        /* \"#utility.yul\":20745:20748   */\n      dup4\n        /* \"#utility.yul\":20686:20753   */\n      tag_235\n      jump\t// in\n    tag_484:\n        /* \"#utility.yul\":20679:20753   */\n      swap2\n      pop\n        /* \"#utility.yul\":20762:20855   */\n      tag_485\n        /* \"#utility.yul\":20851:20854   */\n      dup3\n        /* \"#utility.yul\":20762:20855   */\n      tag_278\n      jump\t// in\n    tag_485:\n        /* \"#utility.yul\":20880:20882   */\n      0x20\n        /* \"#utility.yul\":20875:20878   */\n      dup3\n        /* \"#utility.yul\":20871:20883   */\n      add\n        /* \"#utility.yul\":20864:20883   */\n      swap1\n      pop\n        /* \"#utility.yul\":20523:20889   */\n      swap2\n      swap1\n      pop\n      jump\t// out\n        /* \"#utility.yul\":20895:21314   */\n    tag_175:\n        /* \"#utility.yul\":21061:21065   */\n      0x00\n        /* \"#utility.yul\":21099:21101   */\n      0x20\n        /* \"#utility.yul\":21088:21097   */\n      dup3\n        /* \"#utility.yul\":21084:21102   */\n      add\n        /* \"#utility.yul\":21076:21102   */\n      swap1\n      pop\n        /* \"#utility.yul\":21148:21157   */\n      dup2\n        /* \"#utility.yul\":21142:21146   */\n      dup2\n        /* \"#utility.yul\":21138:21158   */\n      sub\n        /* \"#utility.yul\":21134:21135   */\n      0x00\n        /* \"#utility.yul\":21123:21132   */\n      dup4\n        /* \"#utility.yul\":21119:21136   */\n      add\n        /* \"#utility.yul\":21112:21159   */\n      mstore\n        /* \"#utility.yul\":21176:21307   */\n      tag_487\n        /* \"#utility.yul\":21302:21306   */\n      dup2\n        /* \"#utility.yul\":21176:21307   */\n      tag_279\n      jump\t// in\n    tag_487:\n        /* \"#utility.yul\":21168:21307   */\n      swap1\n      pop\n        /* \"#utility.yul\":20895:21314   */\n      swap2\n      swap1\n      pop\n      jump\t// out\n        /* \"#utility.yul\":21320:21490   */\n    tag_280:\n        /* \"#utility.yul\":21460:21482   */\n      0x746f6b656e20616c7265616479206d696e746564000000000000000000000000\n        /* \"#utility.yul\":21456:21457   */\n      0x00\n        /* \"#utility.yul\":21448:21454   */\n      dup3\n        /* \"#utility.yul\":21444:21458   */\n      add\n        /* \"#utility.yul\":21437:21483   */\n      mstore\n        /* \"#utility.yul\":21320:21490   */\n      pop\n      jump\t// out\n        /* \"#utility.yul\":21496:21862   */\n    tag_281:\n        /* \"#utility.yul\":21638:21641   */\n      0x00\n        /* \"#utility.yul\":21659:21726   */\n      tag_490\n        /* \"#utility.yul\":21723:21725   */\n      0x14\n        /* \"#utility.yul\":21718:21721   */\n      dup4\n        /* \"#utility.yul\":21659:21726   */\n      tag_235\n      jump\t// in\n    tag_490:\n        /* \"#utility.yul\":21652:21726   */\n      swap2\n      pop\n        /* \"#utility.yul\":21735:21828   */\n      tag_491\n        /* \"#utility.yul\":21824:21827   */\n      dup3\n        /* \"#utility.yul\":21735:21828   */\n      tag_280\n      jump\t// in\n    tag_491:\n        /* \"#utility.yul\":21853:21855   */\n      0x20\n        /* \"#utility.yul\":21848:21851   */\n      dup3\n        /* \"#utility.yul\":21844:21856   */\n      add\n        /* \"#utility.yul\":21837:21856   */\n      swap1\n      pop\n        /* \"#utility.yul\":21496:21862   */\n      swap2\n      swap1\n      pop\n      jump\t// out\n        /* \"#utility.yul\":21868:22287   */\n    tag_178:\n        /* \"#utility.yul\":22034:22038   */\n      0x00\n        /* \"#utility.yul\":22072:22074   */\n      0x20\n        /* \"#utility.yul\":22061:22070   */\n      dup3\n        /* \"#utility.yul\":22057:22075   */\n      add\n        /* \"#utility.yul\":22049:22075   */\n      swap1\n      pop\n        /* \"#utility.yul\":22121:22130   */\n      dup2\n        /* \"#utility.yul\":22115:22119   */\n      dup2\n        /* \"#utility.yul\":22111:22131   */\n      sub\n        /* \"#utility.yul\":22107:22108   */\n      0x00\n        /* \"#utility.yul\":22096:22105   */\n      dup4\n        /* \"#utility.yul\":22092:22109   */\n      add\n        /* \"#utility.yul\":22085:22132   */\n      mstore\n        /* \"#utility.yul\":22149:22280   */\n      tag_493\n        /* \"#utility.yul\":22275:22279   */\n      dup2\n        /* \"#utility.yul\":22149:22280   */\n      tag_281\n      jump\t// in\n    tag_493:\n        /* \"#utility.yul\":22141:22280   */\n      swap1\n      pop\n        /* \"#utility.yul\":21868:22287   */\n      swap2\n      swap1\n      pop\n      jump\t// out\n        /* \"#utility.yul\":22293:22526   */\n    tag_190:\n        /* \"#utility.yul\":22332:22335   */\n      0x00\n        /* \"#utility.yul\":22355:22379   */\n      tag_495\n        /* \"#utility.yul\":22373:22378   */\n      dup3\n        /* \"#utility.yul\":22355:22379   */\n      tag_239\n      jump\t// in\n    tag_495:\n        /* \"#utility.yul\":22346:22379   */\n      swap2\n      pop\n        /* \"#utility.yul\":22401:22467   */\n      0xffffffffffffffffffffffffffffffffffffffffffffffffffffffffffffffff\n        /* \"#utility.yul\":22394:22399   */\n      dup3\n        /* \"#utility.yul\":22391:22468   */\n      sub\n        /* \"#utility.yul\":22388:22491   */\n      tag_496\n      jumpi\n        /* \"#utility.yul\":22471:22489   */\n      tag_497\n      tag_277\n      jump\t// in\n    tag_497:\n        /* \"#utility.yul\":22388:22491   */\n    tag_496:\n        /* \"#utility.yul\":22518:22519   */\n      0x01\n        /* \"#utility.yul\":22511:22516   */\n      dup3\n        /* \"#utility.yul\":22507:22520   */\n      add\n        /* \"#utility.yul\":22500:22520   */\n      swap1\n      pop\n        /* \"#utility.yul\":22293:22526   */\n      swap2\n      swap1\n      pop\n      jump\t// out\n        /* \"#utility.yul\":22532:22712   */\n    tag_282:\n        /* \"#utility.yul\":22580:22657   */\n      0x4e487b7100000000000000000000000000000000000000000000000000000000\n        /* \"#utility.yul\":22577:22578   */\n      0x00\n        /* \"#utility.yul\":22570:22658   */\n      mstore\n        /* \"#utility.yul\":22677:22681   */\n      0x12\n        /* \"#utility.yul\":22674:22675   */\n      0x04\n        /* \"#utility.yul\":22667:22682   */\n      mstore\n        /* \"#utility.yul\":22701:22705   */\n      0x24\n        /* \"#utility.yul\":22698:22699   */\n      0x00\n        /* \"#utility.yul\":22691:22706   */\n      revert\n        /* \"#utility.yul\":22718:22903   */\n    tag_192:\n        /* \"#utility.yul\":22758:22759   */\n      0x00\n        /* \"#utility.yul\":22775:22795   */\n      tag_500\n        /* \"#utility.yul\":22793:22794   */\n      dup3\n        /* \"#utility.yul\":22775:22795   */\n      tag_239\n      jump\t// in\n    tag_500:\n        /* \"#utility.yul\":22770:22795   */\n      swap2\n      pop\n        /* \"#utility.yul\":22809:22829   */\n      tag_501\n        /* \"#utility.yul\":22827:22828   */\n      dup4\n        /* \"#utility.yul\":22809:22829   */\n      tag_239\n      jump\t// in\n    tag_501:\n        /* \"#utility.yul\":22804:22829   */\n      swap3\n      pop\n        /* \"#utility.yul\":22848:22849   */\n      dup3\n        /* \"#utility.yul\":22838:22873   */\n      tag_502\n      jumpi\n        /* \"#utility.yul\":22853:22871   */\n      tag_503\n      tag_282\n      jump\t// in\n    tag_503:\n        /* \"#utility.yul\":22838:22873   */\n    tag_502:\n        /* \"#utility.yul\":22895:22896   */\n      dup3\n        /* \"#utility.yul\":22892:22893   */\n      dup3\n        /* \"#utility.yul\":22888:22897   */\n      div\n        /* \"#utility.yul\":22883:22897   */\n      swap1\n      pop\n        /* \"#utility.yul\":22718:22903   */\n      swap3\n      swap2\n      pop\n      pop\n      jump\t// out\n        /* \"#utility.yul\":22909:23085   */\n    tag_201:\n        /* \"#utility.yul\":22941:22942   */\n      0x00\n        /* \"#utility.yul\":22958:22978   */\n      tag_505\n        /* \"#utility.yul\":22976:22977   */\n      dup3\n        /* \"#utility.yul\":22958:22978   */\n      tag_239\n      jump\t// in\n    tag_505:\n        /* \"#utility.yul\":22953:22978   */\n      swap2\n      pop\n        /* \"#utility.yul\":22992:23012   */\n      tag_506\n        /* \"#utility.yul\":23010:23011   */\n      dup4\n        /* \"#utility.yul\":22992:23012   */\n      tag_239\n      jump\t// in\n    tag_506:\n        /* \"#utility.yul\":22987:23012   */\n      swap3\n      pop\n        /* \"#utility.yul\":23031:23032   */\n      dup3\n        /* \"#utility.yul\":23021:23056   */\n      tag_507\n      jumpi\n        /* \"#utility.yul\":23036:23054   */\n      tag_508\n      tag_282\n      jump\t// in\n    tag_508:\n        /* \"#utility.yul\":23021:23056   */\n    tag_507:\n        /* \"#utility.yul\":23077:23078   */\n      dup3\n        /* \"#utility.yul\":23074:23075   */\n      dup3\n        /* \"#utility.yul\":23070:23079   */\n      mod\n        /* \"#utility.yul\":23065:23079   */\n      swap1\n      pop\n        /* \"#utility.yul\":22909:23085   */\n      swap3\n      swap2\n      pop\n      pop\n      jump\t// out\n        /* \"#utility.yul\":23091:23271   */\n    tag_205:\n        /* \"#utility.yul\":23139:23216   */\n      0x4e487b7100000000000000000000000000000000000000000000000000000000\n        /* \"#utility.yul\":23136:23137   */\n      0x00\n        /* \"#utility.yul\":23129:23217   */\n      mstore\n        /* \"#utility.yul\":23236:23240   */\n      0x32\n        /* \"#utility.yul\":23233:23234   */\n      0x04\n        /* \"#utility.yul\":23226:23241   */\n      mstore\n        /* \"#utility.yul\":23260:23264   */\n      0x24\n        /* \"#utility.yul\":23257:23258   */\n      0x00\n        /* \"#utility.yul\":23250:23265   */\n      revert\n        /* \"#utility.yul\":23277:23375   */\n    tag_283:\n        /* \"#utility.yul\":23328:23334   */\n      0x00\n        /* \"#utility.yul\":23362:23367   */\n      dup2\n        /* \"#utility.yul\":23356:23368   */\n      mload\n        /* \"#utility.yul\":23346:23368   */\n      swap1\n      pop\n        /* \"#utility.yul\":23277:23375   */\n      swap2\n      swap1\n      pop\n      jump\t// out\n        /* \"#utility.yul\":23381:23549   */\n    tag_284:\n        /* \"#utility.yul\":23464:23475   */\n      0x00\n        /* \"#utility.yul\":23498:23504   */\n      dup3\n        /* \"#utility.yul\":23493:23496   */\n      dup3\n        /* \"#utility.yul\":23486:23505   */\n      mstore\n        /* \"#utility.yul\":23538:23542   */\n      0x20\n        /* \"#utility.yul\":23533:23536   */\n      dup3\n        /* \"#utility.yul\":23529:23543   */\n      add\n        /* \"#utility.yul\":23514:23543   */\n      swap1\n      pop\n        /* \"#utility.yul\":23381:23549   */\n      swap3\n      swap2\n      pop\n      pop\n      jump\t// out\n        /* \"#utility.yul\":23555:23928   */\n    tag_285:\n        /* \"#utility.yul\":23641:23644   */\n      0x00\n        /* \"#utility.yul\":23669:23707   */\n      tag_513\n        /* \"#utility.yul\":23701:23706   */\n      dup3\n        /* \"#utility.yul\":23669:23707   */\n      tag_283\n      jump\t// in\n    tag_513:\n        /* \"#utility.yul\":23723:23793   */\n      tag_514\n        /* \"#utility.yul\":23786:23792   */\n      dup2\n        /* \"#utility.yul\":23781:23784   */\n      dup6\n        /* \"#utility.yul\":23723:23793   */\n      tag_284\n      jump\t// in\n    tag_514:\n        /* \"#utility.yul\":23716:23793   */\n      swap4\n      pop\n        /* \"#utility.yul\":23802:23867   */\n      tag_515\n        /* \"#utility.yul\":23860:23866   */\n      dup2\n        /* \"#utility.yul\":23855:23858   */\n      dup6\n        /* \"#utility.yul\":23848:23852   */\n      0x20\n        /* \"#utility.yul\":23841:23846   */\n      dup7\n        /* \"#utility.yul\":23837:23853   */\n      add\n        /* \"#utility.yul\":23802:23867   */\n      tag_236\n      jump\t// in\n    tag_515:\n        /* \"#utility.yul\":23892:23921   */\n      tag_516\n        /* \"#utility.yul\":23914:23920   */\n      dup2\n        /* \"#utility.yul\":23892:23921   */\n      tag_237\n      jump\t// in\n    tag_516:\n        /* \"#utility.yul\":23887:23890   */\n      dup5\n        /* \"#utility.yul\":23883:23922   */\n      add\n        /* \"#utility.yul\":23876:23922   */\n      swap2\n      pop\n        /* \"#utility.yul\":23645:23928   */\n      pop\n        /* \"#utility.yul\":23555:23928   */\n      swap3\n      swap2\n      pop\n      pop\n      jump\t// out\n        /* \"#utility.yul\":23934:24574   */\n    tag_210:\n        /* \"#utility.yul\":24129:24133   */\n      0x00\n        /* \"#utility.yul\":24167:24170   */\n      0x80\n        /* \"#utility.yul\":24156:24165   */\n      dup3\n        /* \"#utility.yul\":24152:24171   */\n      add\n        /* \"#utility.yul\":24144:24171   */\n      swap1\n      pop\n        /* \"#utility.yul\":24181:24252   */\n      tag_518\n        /* \"#utility.yul\":24249:24250   */\n      0x00\n        /* \"#utility.yul\":24238:24247   */\n      dup4\n        /* \"#utility.yul\":24234:24251   */\n      add\n        /* \"#utility.yul\":24225:24231   */\n      dup8\n        /* \"#utility.yul\":24181:24252   */\n      tag_244\n      jump\t// in\n    tag_518:\n        /* \"#utility.yul\":24262:24334   */\n      tag_519\n        /* \"#utility.yul\":24330:24332   */\n      0x20\n        /* \"#utility.yul\":24319:24328   */\n      dup4\n        /* \"#utility.yul\":24315:24333   */\n      add\n        /* \"#utility.yul\":24306:24312   */\n      dup7\n        /* \"#utility.yul\":24262:24334   */\n      tag_244\n      jump\t// in\n    tag_519:\n        /* \"#utility.yul\":24344:24416   */\n      tag_520\n        /* \"#utility.yul\":24412:24414   */\n      0x40\n        /* \"#utility.yul\":24401:24410   */\n      dup4\n        /* \"#utility.yul\":24397:24415   */\n      add\n        /* \"#utility.yul\":24388:24394   */\n      dup6\n        /* \"#utility.yul\":24344:24416   */\n      tag_247\n      jump\t// in\n    tag_520:\n        /* \"#utility.yul\":24463:24472   */\n      dup2\n        /* \"#utility.yul\":24457:24461   */\n      dup2\n        /* \"#utility.yul\":24453:24473   */\n      sub\n        /* \"#utility.yul\":24448:24450   */\n      0x60\n        /* \"#utility.yul\":24437:24446   */\n      dup4\n        /* \"#utility.yul\":24433:24451   */\n      add\n        /* \"#utility.yul\":24426:24474   */\n      mstore\n        /* \"#utility.yul\":24491:24567   */\n      tag_521\n        /* \"#utility.yul\":24562:24566   */\n      dup2\n        /* \"#utility.yul\":24553:24559   */\n      dup5\n        /* \"#utility.yul\":24491:24567   */\n      tag_285\n      jump\t// in\n    tag_521:\n        /* \"#utility.yul\":24483:24567   */\n      swap1\n      pop\n        /* \"#utility.yul\":23934:24574   */\n      swap6\n      swap5\n      pop\n      pop\n      pop\n      pop\n      pop\n      jump\t// out\n        /* \"#utility.yul\":24580:24721   */\n    tag_286:\n        /* \"#utility.yul\":24636:24641   */\n      0x00\n        /* \"#utility.yul\":24667:24673   */\n      dup2\n        /* \"#utility.yul\":24661:24674   */\n      mload\n        /* \"#utility.yul\":24652:24674   */\n      swap1\n      pop\n        /* \"#utility.yul\":24683:24715   */\n      tag_523\n        /* \"#utility.yul\":24709:24714   */\n      dup2\n        /* \"#utility.yul\":24683:24715   */\n      tag_230\n      jump\t// in\n    tag_523:\n        /* \"#utility.yul\":24580:24721   */\n      swap3\n      swap2\n      pop\n      pop\n      jump\t// out\n        /* \"#utility.yul\":24727:25076   */\n    tag_213:\n        /* \"#utility.yul\":24796:24802   */\n      0x00\n        /* \"#utility.yul\":24845:24847   */\n      0x20\n        /* \"#utility.yul\":24833:24842   */\n      dup3\n        /* \"#utility.yul\":24824:24831   */\n      dup5\n        /* \"#utility.yul\":24820:24843   */\n      sub\n        /* \"#utility.yul\":24816:24848   */\n      slt\n        /* \"#utility.yul\":24813:24932   */\n      iszero\n      tag_525\n      jumpi\n        /* \"#utility.yul\":24851:24930   */\n      tag_526\n      tag_227\n      jump\t// in\n    tag_526:\n        /* \"#utility.yul\":24813:24932   */\n    tag_525:\n        /* \"#utility.yul\":24971:24972   */\n      0x00\n        /* \"#utility.yul\":24996:25059   */\n      tag_527\n        /* \"#utility.yul\":25051:25058   */\n      dup5\n        /* \"#utility.yul\":25042:25048   */\n      dup3\n        /* \"#utility.yul\":25031:25040   */\n      dup6\n        /* \"#utility.yul\":25027:25049   */\n      add\n        /* \"#utility.yul\":24996:25059   */\n      tag_286\n      jump\t// in\n    tag_527:\n        /* \"#utility.yul\":24986:25059   */\n      swap2\n      pop\n        /* \"#utility.yul\":24942:25069   */\n      pop\n        /* \"#utility.yul\":24727:25076   */\n      swap3\n      swap2\n      pop\n      pop\n      jump\t// out\n    stop\n    data_8382b382247cd07401a2ef2f394137c3f3b0972798bae0a9c78b0c261acbb56b 697066733a2f2f516d65536a53696e4870506e6d586d73704d6a776958794e367a533445397a63636172694752336a7863615774712f\n\n    auxdata: 0xa264697066735822122041bda81f1f94ce88a44d6996979f727b48335014c5c649fec845409293f8827e64736f6c634300081e0033\n}\n",
				"bytecode": {
					"linkReferences": {},
					"object": "6080604052612710600655348015610015575f5ffd5b50604051612868380380612868833981810160405281019061003791906101c8565b8181815f9081610047919061044e565b508060019081610057919061044e565b505050505061051d565b5f604051905090565b5f5ffd5b5f5ffd5b5f5ffd5b5f5ffd5b5f601f19601f8301169050919050565b7f4e487b71000000000000000000000000000000000000000000000000000000005f52604160045260245ffd5b6100c08261007a565b810181811067ffffffffffffffff821117156100df576100de61008a565b5b80604052505050565b5f6100f1610061565b90506100fd82826100b7565b919050565b5f67ffffffffffffffff82111561011c5761011b61008a565b5b6101258261007a565b9050602081019050919050565b5f5b8381101561014f578082015181840152602081019050610134565b5f8484015250505050565b5f61016c61016784610102565b6100e8565b90508281526020810184848401111561018857610187610076565b5b610193848285610132565b509392505050565b5f82601f8301126101af576101ae610072565b5b81516101bf84826020860161015a565b91505092915050565b5f5f604083850312156101de576101dd61006a565b5b5f83015167ffffffffffffffff8111156101fb576101fa61006e565b5b6102078582860161019b565b925050602083015167ffffffffffffffff8111156102285761022761006e565b5b6102348582860161019b565b9150509250929050565b5f81519050919050565b7f4e487b71000000000000000000000000000000000000000000000000000000005f52602260045260245ffd5b5f600282049050600182168061028c57607f821691505b60208210810361029f5761029e610248565b5b50919050565b5f819050815f5260205f209050919050565b5f6020601f8301049050919050565b5f82821b905092915050565b5f600883026103017fffffffffffffffffffffffffffffffffffffffffffffffffffffffffffffffff826102c6565b61030b86836102c6565b95508019841693508086168417925050509392505050565b5f819050919050565b5f819050919050565b5f61034f61034a61034584610323565b61032c565b610323565b9050919050565b5f819050919050565b61036883610335565b61037c61037482610356565b8484546102d2565b825550505050565b5f5f905090565b610393610384565b61039e81848461035f565b505050565b5b818110156103c1576103b65f8261038b565b6001810190506103a4565b5050565b601f821115610406576103d7816102a5565b6103e0846102b7565b810160208510156103ef578190505b6104036103fb856102b7565b8301826103a3565b50505b505050565b5f82821c905092915050565b5f6104265f198460080261040b565b1980831691505092915050565b5f61043e8383610417565b9150826002028217905092915050565b6104578261023e565b67ffffffffffffffff8111156104705761046f61008a565b5b61047a8254610275565b6104858282856103c5565b5f60209050601f8311600181146104b6575f84156104a4578287015190505b6104ae8582610433565b865550610515565b601f1984166104c4866102a5565b5f5b828110156104eb578489015182556001820191506020850194506020810190506104c6565b868310156105085784890151610504601f891682610417565b8355505b6001600288020188555050505b505050505050565b61233e8061052a5f395ff3fe608060405234801561000f575f5ffd5b50600436106100f3575f3560e01c80636352211e11610095578063b88d4fde11610064578063b88d4fde1461027f578063bb8a16bd1461029b578063c87b56dd146102b9578063e985e9c5146102e9576100f3565b80636352211e146101e557806370a082311461021557806395d89b4114610245578063a22cb46514610263576100f3565b8063095ea7b3116100d1578063095ea7b31461017557806323b872dd1461019157806340c10f19146101ad57806342842e0e146101c9576100f3565b806301ffc9a7146100f757806306fdde0314610127578063081812fc14610145575b5f5ffd5b610111600480360381019061010c919061167e565b610319565b60405161011e91906116c3565b60405180910390f35b61012f610452565b60405161013c9190611766565b60405180910390f35b61015f600480360381019061015a91906117b9565b6104dd565b60405161016c9190611823565b60405180910390f35b61018f600480360381019061018a9190611866565b6105b4565b005b6101ab60048036038101906101a691906118a4565b6106f2565b005b6101c760048036038101906101c29190611866565b61075a565b005b6101e360048036038101906101de91906118a4565b6107b8565b005b6101ff60048036038101906101fa91906117b9565b6107d7565b60405161020c9190611823565b60405180910390f35b61022f600480360381019061022a91906118f4565b61087e565b60405161023c919061192e565b60405180910390f35b61024d610932565b60405161025a9190611766565b60405180910390f35b61027d60048036038101906102789190611971565b6109be565b005b61029960048036038101906102949190611adb565b610ab6565b005b6102a3610b20565b6040516102b0919061192e565b60405180910390f35b6102d360048036038101906102ce91906117b9565b610b26565b6040516102e09190611766565b60405180910390f35b61030360048036038101906102fe9190611b5b565b610c20565b60405161031091906116c3565b60405180910390f35b5f7f80ac58cd000000000000000000000000000000000000000000000000000000007bffffffffffffffffffffffffffffffffffffffffffffffffffffffff1916827bffffffffffffffffffffffffffffffffffffffffffffffffffffffff191614806103e357507f01ffc9a7000000000000000000000000000000000000000000000000000000007bffffffffffffffffffffffffffffffffffffffffffffffffffffffff1916827bffffffffffffffffffffffffffffffffffffffffffffffffffffffff1916145b8061044b57507f5b5e139f000000000000000000000000000000000000000000000000000000007bffffffffffffffffffffffffffffffffffffffffffffffffffffffff1916827bffffffffffffffffffffffffffffffffffffffffffffffffffffffff1916145b9050919050565b5f805461045e90611bc6565b80601f016020809104026020016040519081016040528092919081815260200182805461048a90611bc6565b80156104d55780601f106104ac576101008083540402835291602001916104d5565b820191905f5260205f20905b8154815290600101906020018083116104b857829003601f168201915b505050505081565b5f5f73ffffffffffffffffffffffffffffffffffffffff1660025f8481526020019081526020015f205f9054906101000a900473ffffffffffffffffffffffffffffffffffffffff1673ffffffffffffffffffffffffffffffffffffffff160361057c576040517f08c379a000000000000000000000000000000000000000000000000000000000815260040161057390611c40565b60405180910390fd5b60045f8381526020019081526020015f205f9054906101000a900473ffffffffffffffffffffffffffffffffffffffff169050919050565b5f60025f8381526020019081526020015f205f9054906101000a900473ffffffffffffffffffffffffffffffffffffffff1690508073ffffffffffffffffffffffffffffffffffffffff163373ffffffffffffffffffffffffffffffffffffffff1614806106a3575060055f8273ffffffffffffffffffffffffffffffffffffffff1673ffffffffffffffffffffffffffffffffffffffff1681526020019081526020015f205f3373ffffffffffffffffffffffffffffffffffffffff1673ffffffffffffffffffffffffffffffffffffffff1681526020019081526020015f205f9054906101000a900460ff165b6106e2576040517f08c379a00000000000000000000000000000000000000000000000000000000081526004016106d990611ca8565b60405180910390fd5b6106ed818484610cae565b505050565b5f6106fc826107d7565b9050610709813384610d5d565b610748576040517f08c379a000000000000000000000000000000000000000000000000000000000815260040161073f90611d10565b60405180910390fd5b61075481858585610e88565b50505050565b5f811015801561076b575060065481105b6107aa576040517f08c379a00000000000000000000000000000000000000000000000000000000081526004016107a190611d78565b60405180910390fd5b6107b482826110c7565b5050565b6107d283838360405180602001604052805f815250610ab6565b505050565b5f60025f8381526020019081526020015f205f9054906101000a900473ffffffffffffffffffffffffffffffffffffffff1690505f73ffffffffffffffffffffffffffffffffffffffff168173ffffffffffffffffffffffffffffffffffffffff1603610879576040517f08c379a000000000000000000000000000000000000000000000000000000000815260040161087090611c40565b60405180910390fd5b919050565b5f5f73ffffffffffffffffffffffffffffffffffffffff168273ffffffffffffffffffffffffffffffffffffffff16036108ed576040517f08c379a00000000000000000000000000000000000000000000000000000000081526004016108e490611de0565b60405180910390fd5b60035f8373ffffffffffffffffffffffffffffffffffffffff1673ffffffffffffffffffffffffffffffffffffffff1681526020019081526020015f20549050919050565b6001805461093f90611bc6565b80601f016020809104026020016040519081016040528092919081815260200182805461096b90611bc6565b80156109b65780601f1061098d576101008083540402835291602001916109b6565b820191905f5260205f20905b81548152906001019060200180831161099957829003601f168201915b505050505081565b8060055f3373ffffffffffffffffffffffffffffffffffffffff1673ffffffffffffffffffffffffffffffffffffffff1681526020019081526020015f205f8473ffffffffffffffffffffffffffffffffffffffff1673ffffffffffffffffffffffffffffffffffffffff1681526020019081526020015f205f6101000a81548160ff0219169083151502179055508173ffffffffffffffffffffffffffffffffffffffff163373ffffffffffffffffffffffffffffffffffffffff167f17307eab39ab6107e8899845ad3d59bd9653f200f220920489ca2b5937696c3183604051610aaa91906116c3565b60405180910390a35050565b5f610ac0836107d7565b9050610acd813385610d5d565b610b0c576040517f08c379a0000000000000000000000000000000000000000000000000000000008152600401610b0390611d10565b60405180910390fd5b610b1981868686866112d5565b5050505050565b60065481565b60605f73ffffffffffffffffffffffffffffffffffffffff1660025f8481526020019081526020015f205f9054906101000a900473ffffffffffffffffffffffffffffffffffffffff1673ffffffffffffffffffffffffffffffffffffffff1603610bc6576040517f08c379a0000000000000000000000000000000000000000000000000000000008152600401610bbd90611e48565b60405180910390fd5b5f610bcf6112f4565b90505f815111610bed5760405180602001604052805f815250610c18565b80610bf784611314565b604051602001610c08929190611ea0565b6040516020818303038152906040525b915050919050565b5f60055f8473ffffffffffffffffffffffffffffffffffffffff1673ffffffffffffffffffffffffffffffffffffffff1681526020019081526020015f205f8373ffffffffffffffffffffffffffffffffffffffff1673ffffffffffffffffffffffffffffffffffffffff1681526020019081526020015f205f9054906101000a900460ff16905092915050565b8160045f8381526020019081526020015f205f6101000a81548173ffffffffffffffffffffffffffffffffffffffff021916908373ffffffffffffffffffffffffffffffffffffffff160217905550808273ffffffffffffffffffffffffffffffffffffffff168473ffffffffffffffffffffffffffffffffffffffff167f8c5be1e5ebec7d5bd14f71427d1e84f3dd0314c0f7b2291e5b200ac8c7c3b92560405160405180910390a4505050565b5f8373ffffffffffffffffffffffffffffffffffffffff168373ffffffffffffffffffffffffffffffffffffffff161480610df357508273ffffffffffffffffffffffffffffffffffffffff1660045f8481526020019081526020015f205f9054906101000a900473ffffffffffffffffffffffffffffffffffffffff1673ffffffffffffffffffffffffffffffffffffffff16145b80610e7f575060055f8573ffffffffffffffffffffffffffffffffffffffff1673ffffffffffffffffffffffffffffffffffffffff1681526020019081526020015f205f8473ffffffffffffffffffffffffffffffffffffffff1673ffffffffffffffffffffffffffffffffffffffff1681526020019081526020015f205f9054906101000a900460ff165b90509392505050565b8373ffffffffffffffffffffffffffffffffffffffff168373ffffffffffffffffffffffffffffffffffffffff1614610ef6576040517f08c379a0000000000000000000000000000000000000000000000000000000008152600401610eed90611f0d565b60405180910390fd5b5f73ffffffffffffffffffffffffffffffffffffffff168273ffffffffffffffffffffffffffffffffffffffff1603610f64576040517f08c379a0000000000000000000000000000000000000000000000000000000008152600401610f5b90611f75565b60405180910390fd5b610f6f845f83610cae565b600160035f8573ffffffffffffffffffffffffffffffffffffffff1673ffffffffffffffffffffffffffffffffffffffff1681526020019081526020015f205f828254610fbc9190611fc0565b92505081905550600160035f8473ffffffffffffffffffffffffffffffffffffffff1673ffffffffffffffffffffffffffffffffffffffff1681526020019081526020015f205f8282546110109190611ff3565b925050819055508160025f8381526020019081526020015f205f6101000a81548173ffffffffffffffffffffffffffffffffffffffff021916908373ffffffffffffffffffffffffffffffffffffffff160217905550808273ffffffffffffffffffffffffffffffffffffffff168473ffffffffffffffffffffffffffffffffffffffff167fddf252ad1be2c89b69c2b068fc378daa952ba7f163c4a11628f55a4df523b3ef60405160405180910390a450505050565b5f73ffffffffffffffffffffffffffffffffffffffff168273ffffffffffffffffffffffffffffffffffffffff1603611135576040517f08c379a000000000000000000000000000000000000000000000000000000000815260040161112c90612070565b60405180910390fd5b5f73ffffffffffffffffffffffffffffffffffffffff1660025f8381526020019081526020015f205f9054906101000a900473ffffffffffffffffffffffffffffffffffffffff1673ffffffffffffffffffffffffffffffffffffffff16146111d3576040517f08c379a00000000000000000000000000000000000000000000000000000000081526004016111ca906120d8565b60405180910390fd5b600160035f8473ffffffffffffffffffffffffffffffffffffffff1673ffffffffffffffffffffffffffffffffffffffff1681526020019081526020015f205f8282546112209190611ff3565b925050819055508160025f8381526020019081526020015f205f6101000a81548173ffffffffffffffffffffffffffffffffffffffff021916908373ffffffffffffffffffffffffffffffffffffffff160217905550808273ffffffffffffffffffffffffffffffffffffffff165f73ffffffffffffffffffffffffffffffffffffffff167fddf252ad1be2c89b69c2b068fc378daa952ba7f163c4a11628f55a4df523b3ef60405160405180910390a45050565b6112e185858585610e88565b6112ed8484848461146d565b5050505050565b60606040518060600160405280603681526020016122d360369139905090565b60605f820361135a576040518060400160405280600181526020017f30000000000000000000000000000000000000000000000000000000000000008152509050611468565b5f8290505f5b5f8214611389578080611372906120f6565b915050600a82611382919061216a565b9150611360565b5f8167ffffffffffffffff8111156113a4576113a36119b7565b5b6040519080825280601f01601f1916602001820160405280156113d65781602001600182028036833780820191505090505b5090505b5f8514611461576001826113ee9190611fc0565b9150600a856113fd919061219a565b60306114099190611ff3565b60f81b81838151811061141f5761141e6121ca565b5b60200101907effffffffffffffffffffffffffffffffffffffffffffffffffffffffffffff191690815f1a905350600a8561145a919061216a565b94506113da565b8093505050505b919050565b5f8373ffffffffffffffffffffffffffffffffffffffff163b1115611612578273ffffffffffffffffffffffffffffffffffffffff1663150b7a02338685856040518563ffffffff1660e01b81526004016114cb9493929190612249565b6020604051808303815f875af192505050801561150657506040513d601f19601f8201168201806040525081019061150391906122a7565b60015b611587573d805f8114611534576040519150601f19603f3d011682016040523d82523d5f602084013e611539565b606091505b505f81510361157f57836040517f64a0ae920000000000000000000000000000000000000000000000000000000081526004016115769190611823565b60405180910390fd5b805181602001fd5b63150b7a0260e01b7bffffffffffffffffffffffffffffffffffffffffffffffffffffffff1916817bffffffffffffffffffffffffffffffffffffffffffffffffffffffff19161461161057836040517f64a0ae920000000000000000000000000000000000000000000000000000000081526004016116079190611823565b60405180910390fd5b505b50505050565b5f604051905090565b5f5ffd5b5f5ffd5b5f7fffffffff0000000000000000000000000000000000000000000000000000000082169050919050565b61165d81611629565b8114611667575f5ffd5b50565b5f8135905061167881611654565b92915050565b5f6020828403121561169357611692611621565b5b5f6116a08482850161166a565b91505092915050565b5f8115159050919050565b6116bd816116a9565b82525050565b5f6020820190506116d65f8301846116b4565b92915050565b5f81519050919050565b5f82825260208201905092915050565b5f5b838110156117135780820151818401526020810190506116f8565b5f8484015250505050565b5f601f19601f8301169050919050565b5f611738826116dc565b61174281856116e6565b93506117528185602086016116f6565b61175b8161171e565b840191505092915050565b5f6020820190508181035f83015261177e818461172e565b905092915050565b5f819050919050565b61179881611786565b81146117a2575f5ffd5b50565b5f813590506117b38161178f565b92915050565b5f602082840312156117ce576117cd611621565b5b5f6117db848285016117a5565b91505092915050565b5f73ffffffffffffffffffffffffffffffffffffffff82169050919050565b5f61180d826117e4565b9050919050565b61181d81611803565b82525050565b5f6020820190506118365f830184611814565b92915050565b61184581611803565b811461184f575f5ffd5b50565b5f813590506118608161183c565b92915050565b5f5f6040838503121561187c5761187b611621565b5b5f61188985828601611852565b925050602061189a858286016117a5565b9150509250929050565b5f5f5f606084860312156118bb576118ba611621565b5b5f6118c886828701611852565b93505060206118d986828701611852565b92505060406118ea868287016117a5565b9150509250925092565b5f6020828403121561190957611908611621565b5b5f61191684828501611852565b91505092915050565b61192881611786565b82525050565b5f6020820190506119415f83018461191f565b92915050565b611950816116a9565b811461195a575f5ffd5b50565b5f8135905061196b81611947565b92915050565b5f5f6040838503121561198757611986611621565b5b5f61199485828601611852565b92505060206119a58582860161195d565b9150509250929050565b5f5ffd5b5f5ffd5b7f4e487b71000000000000000000000000000000000000000000000000000000005f52604160045260245ffd5b6119ed8261171e565b810181811067ffffffffffffffff82111715611a0c57611a0b6119b7565b5b80604052505050565b5f611a1e611618565b9050611a2a82826119e4565b919050565b5f67ffffffffffffffff821115611a4957611a486119b7565b5b611a528261171e565b9050602081019050919050565b828183375f83830152505050565b5f611a7f611a7a84611a2f565b611a15565b905082815260208101848484011115611a9b57611a9a6119b3565b5b611aa6848285611a5f565b509392505050565b5f82601f830112611ac257611ac16119af565b5b8135611ad2848260208601611a6d565b91505092915050565b5f5f5f5f60808587031215611af357611af2611621565b5b5f611b0087828801611852565b9450506020611b1187828801611852565b9350506040611b22878288016117a5565b925050606085013567ffffffffffffffff811115611b4357611b42611625565b5b611b4f87828801611aae565b91505092959194509250565b5f5f60408385031215611b7157611b70611621565b5b5f611b7e85828601611852565b9250506020611b8f85828601611852565b9150509250929050565b7f4e487b71000000000000000000000000000000000000000000000000000000005f52602260045260245ffd5b5f6002820490506001821680611bdd57607f821691505b602082108103611bf057611bef611b99565b5b50919050565b7f746f6b656e20646f65736e2774206578697374000000000000000000000000005f82015250565b5f611c2a6013836116e6565b9150611c3582611bf6565b602082019050919050565b5f6020820190508181035f830152611c5781611c1e565b9050919050565b7f6e6f74206f776e6572206e6f7220617070726f76656420666f7220616c6c00005f82015250565b5f611c92601e836116e6565b9150611c9d82611c5e565b602082019050919050565b5f6020820190508181035f830152611cbf81611c86565b9050919050565b7f6e6f74206f776e6572206e6f7220617070726f766564000000000000000000005f82015250565b5f611cfa6016836116e6565b9150611d0582611cc6565b602082019050919050565b5f6020820190508181035f830152611d2781611cee565b9050919050565b7f746f6b656e4964206f7574206f662072616e67650000000000000000000000005f82015250565b5f611d626014836116e6565b9150611d6d82611d2e565b602082019050919050565b5f6020820190508181035f830152611d8f81611d56565b9050919050565b7f6f776e6572203d207a65726f20616464726573730000000000000000000000005f82015250565b5f611dca6014836116e6565b9150611dd582611d96565b602082019050919050565b5f6020820190508181035f830152611df781611dbe565b9050919050565b7f546f6b656e204e6f7420457869737400000000000000000000000000000000005f82015250565b5f611e32600f836116e6565b9150611e3d82611dfe565b602082019050919050565b5f6020820190508181035f830152611e5f81611e26565b9050919050565b5f81905092915050565b5f611e7a826116dc565b611e848185611e66565b9350611e948185602086016116f6565b80840191505092915050565b5f611eab8285611e70565b9150611eb78284611e70565b91508190509392505050565b7f6e6f74206f776e657200000000000000000000000000000000000000000000005f82015250565b5f611ef76009836116e6565b9150611f0282611ec3565b602082019050919050565b5f6020820190508181035f830152611f2481611eeb565b9050919050565b7f7472616e7366657220746f20746865207a65726f2061646472657373000000005f82015250565b5f611f5f601c836116e6565b9150611f6a82611f2b565b602082019050919050565b5f6020820190508181035f830152611f8c81611f53565b9050919050565b7f4e487b71000000000000000000000000000000000000000000000000000000005f52601160045260245ffd5b5f611fca82611786565b9150611fd583611786565b9250828203905081811115611fed57611fec611f93565b5b92915050565b5f611ffd82611786565b915061200883611786565b92508282019050808211156120205761201f611f93565b5b92915050565b7f6d696e7420746f207a65726f20616464726573730000000000000000000000005f82015250565b5f61205a6014836116e6565b915061206582612026565b602082019050919050565b5f6020820190508181035f8301526120878161204e565b9050919050565b7f746f6b656e20616c7265616479206d696e7465640000000000000000000000005f82015250565b5f6120c26014836116e6565b91506120cd8261208e565b602082019050919050565b5f6020820190508181035f8301526120ef816120b6565b9050919050565b5f61210082611786565b91507fffffffffffffffffffffffffffffffffffffffffffffffffffffffffffffffff820361213257612131611f93565b5b600182019050919050565b7f4e487b71000000000000000000000000000000000000000000000000000000005f52601260045260245ffd5b5f61217482611786565b915061217f83611786565b92508261218f5761218e61213d565b5b828204905092915050565b5f6121a482611786565b91506121af83611786565b9250826121bf576121be61213d565b5b828206905092915050565b7f4e487b71000000000000000000000000000000000000000000000000000000005f52603260045260245ffd5b5f81519050919050565b5f82825260208201905092915050565b5f61221b826121f7565b6122258185612201565b93506122358185602086016116f6565b61223e8161171e565b840191505092915050565b5f60808201905061225c5f830187611814565b6122696020830186611814565b612276604083018561191f565b81810360608301526122888184612211565b905095945050505050565b5f815190506122a181611654565b92915050565b5f602082840312156122bc576122bb611621565b5b5f6122c984828501612293565b9150509291505056fe697066733a2f2f516d65536a53696e4870506e6d586d73704d6a776958794e367a533445397a63636172694752336a7863615774712fa264697066735822122041bda81f1f94ce88a44d6996979f727b48335014c5c649fec845409293f8827e64736f6c634300081e0033",
					"opcodes": "PUSH1 0x80 PUSH1 0x40 MSTORE PUSH2 0x2710 PUSH1 0x6 SSTORE CALLVALUE DUP1 ISZERO PUSH2 0x15 JUMPI PUSH0 PUSH0 REVERT JUMPDEST POP PUSH1 0x40 MLOAD PUSH2 0x2868 CODESIZE SUB DUP1 PUSH2 0x2868 DUP4 CODECOPY DUP2 DUP2 ADD PUSH1 0x40 MSTORE DUP2 ADD SWAP1 PUSH2 0x37 SWAP2 SWAP1 PUSH2 0x1C8 JUMP JUMPDEST DUP2 DUP2 DUP2 PUSH0 SWAP1 DUP2 PUSH2 0x47 SWAP2 SWAP1 PUSH2 0x44E JUMP JUMPDEST POP DUP1 PUSH1 0x1 SWAP1 DUP2 PUSH2 0x57 SWAP2 SWAP1 PUSH2 0x44E JUMP JUMPDEST POP POP POP POP POP PUSH2 0x51D JUMP JUMPDEST PUSH0 PUSH1 0x40 MLOAD SWAP1 POP SWAP1 JUMP JUMPDEST PUSH0 PUSH0 REVERT JUMPDEST PUSH0 PUSH0 REVERT JUMPDEST PUSH0 PUSH0 REVERT JUMPDEST PUSH0 PUSH0 REVERT JUMPDEST PUSH0 PUSH1 0x1F NOT PUSH1 0x1F DUP4 ADD AND SWAP1 POP SWAP2 SWAP1 POP JUMP JUMPDEST PUSH32 0x4E487B7100000000000000000000000000000000000000000000000000000000 PUSH0 MSTORE PUSH1 0x41 PUSH1 0x4 MSTORE PUSH1 0x24 PUSH0 REVERT JUMPDEST PUSH2 0xC0 DUP3 PUSH2 0x7A JUMP JUMPDEST DUP2 ADD DUP2 DUP2 LT PUSH8 0xFFFFFFFFFFFFFFFF DUP3 GT OR ISZERO PUSH2 0xDF JUMPI PUSH2 0xDE PUSH2 0x8A JUMP JUMPDEST JUMPDEST DUP1 PUSH1 0x40 MSTORE POP POP POP JUMP JUMPDEST PUSH0 PUSH2 0xF1 PUSH2 0x61 JUMP JUMPDEST SWAP1 POP PUSH2 0xFD DUP3 DUP3 PUSH2 0xB7 JUMP JUMPDEST SWAP2 SWAP1 POP JUMP JUMPDEST PUSH0 PUSH8 0xFFFFFFFFFFFFFFFF DUP3 GT ISZERO PUSH2 0x11C JUMPI PUSH2 0x11B PUSH2 0x8A JUMP JUMPDEST JUMPDEST PUSH2 0x125 DUP3 PUSH2 0x7A JUMP JUMPDEST SWAP1 POP PUSH1 0x20 DUP2 ADD SWAP1 POP SWAP2 SWAP1 POP JUMP JUMPDEST PUSH0 JUMPDEST DUP4 DUP2 LT ISZERO PUSH2 0x14F JUMPI DUP1 DUP3 ADD MLOAD DUP2 DUP5 ADD MSTORE PUSH1 0x20 DUP2 ADD SWAP1 POP PUSH2 0x134 JUMP JUMPDEST PUSH0 DUP5 DUP5 ADD MSTORE POP POP POP POP JUMP JUMPDEST PUSH0 PUSH2 0x16C PUSH2 0x167 DUP5 PUSH2 0x102 JUMP JUMPDEST PUSH2 0xE8 JUMP JUMPDEST SWAP1 POP DUP3 DUP2 MSTORE PUSH1 0x20 DUP2 ADD DUP5 DUP5 DUP5 ADD GT ISZERO PUSH2 0x188 JUMPI PUSH2 0x187 PUSH2 0x76 JUMP JUMPDEST JUMPDEST PUSH2 0x193 DUP5 DUP3 DUP6 PUSH2 0x132 JUMP JUMPDEST POP SWAP4 SWAP3 POP POP POP JUMP JUMPDEST PUSH0 DUP3 PUSH1 0x1F DUP4 ADD SLT PUSH2 0x1AF JUMPI PUSH2 0x1AE PUSH2 0x72 JUMP JUMPDEST JUMPDEST DUP2 MLOAD PUSH2 0x1BF DUP5 DUP3 PUSH1 0x20 DUP7 ADD PUSH2 0x15A JUMP JUMPDEST SWAP2 POP POP SWAP3 SWAP2 POP POP JUMP JUMPDEST PUSH0 PUSH0 PUSH1 0x40 DUP4 DUP6 SUB SLT ISZERO PUSH2 0x1DE JUMPI PUSH2 0x1DD PUSH2 0x6A JUMP JUMPDEST JUMPDEST PUSH0 DUP4 ADD MLOAD PUSH8 0xFFFFFFFFFFFFFFFF DUP2 GT ISZERO PUSH2 0x1FB JUMPI PUSH2 0x1FA PUSH2 0x6E JUMP JUMPDEST JUMPDEST PUSH2 0x207 DUP6 DUP3 DUP7 ADD PUSH2 0x19B JUMP JUMPDEST SWAP3 POP POP PUSH1 0x20 DUP4 ADD MLOAD PUSH8 0xFFFFFFFFFFFFFFFF DUP2 GT ISZERO PUSH2 0x228 JUMPI PUSH2 0x227 PUSH2 0x6E JUMP JUMPDEST JUMPDEST PUSH2 0x234 DUP6 DUP3 DUP7 ADD PUSH2 0x19B JUMP JUMPDEST SWAP2 POP POP SWAP3 POP SWAP3 SWAP1 POP JUMP JUMPDEST PUSH0 DUP2 MLOAD SWAP1 POP SWAP2 SWAP1 POP JUMP JUMPDEST PUSH32 0x4E487B7100000000000000000000000000000000000000000000000000000000 PUSH0 MSTORE PUSH1 0x22 PUSH1 0x4 MSTORE PUSH1 0x24 PUSH0 REVERT JUMPDEST PUSH0 PUSH1 0x2 DUP3 DIV SWAP1 POP PUSH1 0x1 DUP3 AND DUP1 PUSH2 0x28C JUMPI PUSH1 0x7F DUP3 AND SWAP2 POP JUMPDEST PUSH1 0x20 DUP3 LT DUP2 SUB PUSH2 0x29F JUMPI PUSH2 0x29E PUSH2 0x248 JUMP JUMPDEST JUMPDEST POP SWAP2 SWAP1 POP JUMP JUMPDEST PUSH0 DUP2 SWAP1 POP DUP2 PUSH0 MSTORE PUSH1 0x20 PUSH0 KECCAK256 SWAP1 POP SWAP2 SWAP1 POP JUMP JUMPDEST PUSH0 PUSH1 0x20 PUSH1 0x1F DUP4 ADD DIV SWAP1 POP SWAP2 SWAP1 POP JUMP JUMPDEST PUSH0 DUP3 DUP3 SHL SWAP1 POP SWAP3 SWAP2 POP POP JUMP JUMPDEST PUSH0 PUSH1 0x8 DUP4 MUL PUSH2 0x301 PUSH32 0xFFFFFFFFFFFFFFFFFFFFFFFFFFFFFFFFFFFFFFFFFFFFFFFFFFFFFFFFFFFFFFFF DUP3 PUSH2 0x2C6 JUMP JUMPDEST PUSH2 0x30B DUP7 DUP4 PUSH2 0x2C6 JUMP JUMPDEST SWAP6 POP DUP1 NOT DUP5 AND SWAP4 POP DUP1 DUP7 AND DUP5 OR SWAP3 POP POP POP SWAP4 SWAP3 POP POP POP JUMP JUMPDEST PUSH0 DUP2 SWAP1 POP SWAP2 SWAP1 POP JUMP JUMPDEST PUSH0 DUP2 SWAP1 POP SWAP2 SWAP1 POP JUMP JUMPDEST PUSH0 PUSH2 0x34F PUSH2 0x34A PUSH2 0x345 DUP5 PUSH2 0x323 JUMP JUMPDEST PUSH2 0x32C JUMP JUMPDEST PUSH2 0x323 JUMP JUMPDEST SWAP1 POP SWAP2 SWAP1 POP JUMP JUMPDEST PUSH0 DUP2 SWAP1 POP SWAP2 SWAP1 POP JUMP JUMPDEST PUSH2 0x368 DUP4 PUSH2 0x335 JUMP JUMPDEST PUSH2 0x37C PUSH2 0x374 DUP3 PUSH2 0x356 JUMP JUMPDEST DUP5 DUP5 SLOAD PUSH2 0x2D2 JUMP JUMPDEST DUP3 SSTORE POP POP POP POP JUMP JUMPDEST PUSH0 PUSH0 SWAP1 POP SWAP1 JUMP JUMPDEST PUSH2 0x393 PUSH2 0x384 JUMP JUMPDEST PUSH2 0x39E DUP2 DUP5 DUP5 PUSH2 0x35F JUMP JUMPDEST POP POP POP JUMP JUMPDEST JUMPDEST DUP2 DUP2 LT ISZERO PUSH2 0x3C1 JUMPI PUSH2 0x3B6 PUSH0 DUP3 PUSH2 0x38B JUMP JUMPDEST PUSH1 0x1 DUP2 ADD SWAP1 POP PUSH2 0x3A4 JUMP JUMPDEST POP POP JUMP JUMPDEST PUSH1 0x1F DUP3 GT ISZERO PUSH2 0x406 JUMPI PUSH2 0x3D7 DUP2 PUSH2 0x2A5 JUMP JUMPDEST PUSH2 0x3E0 DUP5 PUSH2 0x2B7 JUMP JUMPDEST DUP2 ADD PUSH1 0x20 DUP6 LT ISZERO PUSH2 0x3EF JUMPI DUP2 SWAP1 POP JUMPDEST PUSH2 0x403 PUSH2 0x3FB DUP6 PUSH2 0x2B7 JUMP JUMPDEST DUP4 ADD DUP3 PUSH2 0x3A3 JUMP JUMPDEST POP POP JUMPDEST POP POP POP JUMP JUMPDEST PUSH0 DUP3 DUP3 SHR SWAP1 POP SWAP3 SWAP2 POP POP JUMP JUMPDEST PUSH0 PUSH2 0x426 PUSH0 NOT DUP5 PUSH1 0x8 MUL PUSH2 0x40B JUMP JUMPDEST NOT DUP1 DUP4 AND SWAP2 POP POP SWAP3 SWAP2 POP POP JUMP JUMPDEST PUSH0 PUSH2 0x43E DUP4 DUP4 PUSH2 0x417 JUMP JUMPDEST SWAP2 POP DUP3 PUSH1 0x2 MUL DUP3 OR SWAP1 POP SWAP3 SWAP2 POP POP JUMP JUMPDEST PUSH2 0x457 DUP3 PUSH2 0x23E JUMP JUMPDEST PUSH8 0xFFFFFFFFFFFFFFFF DUP2 GT ISZERO PUSH2 0x470 JUMPI PUSH2 0x46F PUSH2 0x8A JUMP JUMPDEST JUMPDEST PUSH2 0x47A DUP3 SLOAD PUSH2 0x275 JUMP JUMPDEST PUSH2 0x485 DUP3 DUP3 DUP6 PUSH2 0x3C5 JUMP JUMPDEST PUSH0 PUSH1 0x20 SWAP1 POP PUSH1 0x1F DUP4 GT PUSH1 0x1 DUP2 EQ PUSH2 0x4B6 JUMPI PUSH0 DUP5 ISZERO PUSH2 0x4A4 JUMPI DUP3 DUP8 ADD MLOAD SWAP1 POP JUMPDEST PUSH2 0x4AE DUP6 DUP3 PUSH2 0x433 JUMP JUMPDEST DUP7 SSTORE POP PUSH2 0x515 JUMP JUMPDEST PUSH1 0x1F NOT DUP5 AND PUSH2 0x4C4 DUP7 PUSH2 0x2A5 JUMP JUMPDEST PUSH0 JUMPDEST DUP3 DUP2 LT ISZERO PUSH2 0x4EB JUMPI DUP5 DUP10 ADD MLOAD DUP3 SSTORE PUSH1 0x1 DUP3 ADD SWAP2 POP PUSH1 0x20 DUP6 ADD SWAP5 POP PUSH1 0x20 DUP2 ADD SWAP1 POP PUSH2 0x4C6 JUMP JUMPDEST DUP7 DUP4 LT ISZERO PUSH2 0x508 JUMPI DUP5 DUP10 ADD MLOAD PUSH2 0x504 PUSH1 0x1F DUP10 AND DUP3 PUSH2 0x417 JUMP JUMPDEST DUP4 SSTORE POP JUMPDEST PUSH1 0x1 PUSH1 0x2 DUP9 MUL ADD DUP9 SSTORE POP POP POP JUMPDEST POP POP POP POP POP POP JUMP JUMPDEST PUSH2 0x233E DUP1 PUSH2 0x52A PUSH0 CODECOPY PUSH0 RETURN INVALID PUSH1 0x80 PUSH1 0x40 MSTORE CALLVALUE DUP1 ISZERO PUSH2 0xF JUMPI PUSH0 PUSH0 REVERT JUMPDEST POP PUSH1 0x4 CALLDATASIZE LT PUSH2 0xF3 JUMPI PUSH0 CALLDATALOAD PUSH1 0xE0 SHR DUP1 PUSH4 0x6352211E GT PUSH2 0x95 JUMPI DUP1 PUSH4 0xB88D4FDE GT PUSH2 0x64 JUMPI DUP1 PUSH4 0xB88D4FDE EQ PUSH2 0x27F JUMPI DUP1 PUSH4 0xBB8A16BD EQ PUSH2 0x29B JUMPI DUP1 PUSH4 0xC87B56DD EQ PUSH2 0x2B9 JUMPI DUP1 PUSH4 0xE985E9C5 EQ PUSH2 0x2E9 JUMPI PUSH2 0xF3 JUMP JUMPDEST DUP1 PUSH4 0x6352211E EQ PUSH2 0x1E5 JUMPI DUP1 PUSH4 0x70A08231 EQ PUSH2 0x215 JUMPI DUP1 PUSH4 0x95D89B41 EQ PUSH2 0x245 JUMPI DUP1 PUSH4 0xA22CB465 EQ PUSH2 0x263 JUMPI PUSH2 0xF3 JUMP JUMPDEST DUP1 PUSH4 0x95EA7B3 GT PUSH2 0xD1 JUMPI DUP1 PUSH4 0x95EA7B3 EQ PUSH2 0x175 JUMPI DUP1 PUSH4 0x23B872DD EQ PUSH2 0x191 JUMPI DUP1 PUSH4 0x40C10F19 EQ PUSH2 0x1AD JUMPI DUP1 PUSH4 0x42842E0E EQ PUSH2 0x1C9 JUMPI PUSH2 0xF3 JUMP JUMPDEST DUP1 PUSH4 0x1FFC9A7 EQ PUSH2 0xF7 JUMPI DUP1 PUSH4 0x6FDDE03 EQ PUSH2 0x127 JUMPI DUP1 PUSH4 0x81812FC EQ PUSH2 0x145 JUMPI JUMPDEST PUSH0 PUSH0 REVERT JUMPDEST PUSH2 0x111 PUSH1 0x4 DUP1 CALLDATASIZE SUB DUP2 ADD SWAP1 PUSH2 0x10C SWAP2 SWAP1 PUSH2 0x167E JUMP JUMPDEST PUSH2 0x319 JUMP JUMPDEST PUSH1 0x40 MLOAD PUSH2 0x11E SWAP2 SWAP1 PUSH2 0x16C3 JUMP JUMPDEST PUSH1 0x40 MLOAD DUP1 SWAP2 SUB SWAP1 RETURN JUMPDEST PUSH2 0x12F PUSH2 0x452 JUMP JUMPDEST PUSH1 0x40 MLOAD PUSH2 0x13C SWAP2 SWAP1 PUSH2 0x1766 JUMP JUMPDEST PUSH1 0x40 MLOAD DUP1 SWAP2 SUB SWAP1 RETURN JUMPDEST PUSH2 0x15F PUSH1 0x4 DUP1 CALLDATASIZE SUB DUP2 ADD SWAP1 PUSH2 0x15A SWAP2 SWAP1 PUSH2 0x17B9 JUMP JUMPDEST PUSH2 0x4DD JUMP JUMPDEST PUSH1 0x40 MLOAD PUSH2 0x16C SWAP2 SWAP1 PUSH2 0x1823 JUMP JUMPDEST PUSH1 0x40 MLOAD DUP1 SWAP2 SUB SWAP1 RETURN JUMPDEST PUSH2 0x18F PUSH1 0x4 DUP1 CALLDATASIZE SUB DUP2 ADD SWAP1 PUSH2 0x18A SWAP2 SWAP1 PUSH2 0x1866 JUMP JUMPDEST PUSH2 0x5B4 JUMP JUMPDEST STOP JUMPDEST PUSH2 0x1AB PUSH1 0x4 DUP1 CALLDATASIZE SUB DUP2 ADD SWAP1 PUSH2 0x1A6 SWAP2 SWAP1 PUSH2 0x18A4 JUMP JUMPDEST PUSH2 0x6F2 JUMP JUMPDEST STOP JUMPDEST PUSH2 0x1C7 PUSH1 0x4 DUP1 CALLDATASIZE SUB DUP2 ADD SWAP1 PUSH2 0x1C2 SWAP2 SWAP1 PUSH2 0x1866 JUMP JUMPDEST PUSH2 0x75A JUMP JUMPDEST STOP JUMPDEST PUSH2 0x1E3 PUSH1 0x4 DUP1 CALLDATASIZE SUB DUP2 ADD SWAP1 PUSH2 0x1DE SWAP2 SWAP1 PUSH2 0x18A4 JUMP JUMPDEST PUSH2 0x7B8 JUMP JUMPDEST STOP JUMPDEST PUSH2 0x1FF PUSH1 0x4 DUP1 CALLDATASIZE SUB DUP2 ADD SWAP1 PUSH2 0x1FA SWAP2 SWAP1 PUSH2 0x17B9 JUMP JUMPDEST PUSH2 0x7D7 JUMP JUMPDEST PUSH1 0x40 MLOAD PUSH2 0x20C SWAP2 SWAP1 PUSH2 0x1823 JUMP JUMPDEST PUSH1 0x40 MLOAD DUP1 SWAP2 SUB SWAP1 RETURN JUMPDEST PUSH2 0x22F PUSH1 0x4 DUP1 CALLDATASIZE SUB DUP2 ADD SWAP1 PUSH2 0x22A SWAP2 SWAP1 PUSH2 0x18F4 JUMP JUMPDEST PUSH2 0x87E JUMP JUMPDEST PUSH1 0x40 MLOAD PUSH2 0x23C SWAP2 SWAP1 PUSH2 0x192E JUMP JUMPDEST PUSH1 0x40 MLOAD DUP1 SWAP2 SUB SWAP1 RETURN JUMPDEST PUSH2 0x24D PUSH2 0x932 JUMP JUMPDEST PUSH1 0x40 MLOAD PUSH2 0x25A SWAP2 SWAP1 PUSH2 0x1766 JUMP JUMPDEST PUSH1 0x40 MLOAD DUP1 SWAP2 SUB SWAP1 RETURN JUMPDEST PUSH2 0x27D PUSH1 0x4 DUP1 CALLDATASIZE SUB DUP2 ADD SWAP1 PUSH2 0x278 SWAP2 SWAP1 PUSH2 0x1971 JUMP JUMPDEST PUSH2 0x9BE JUMP JUMPDEST STOP JUMPDEST PUSH2 0x299 PUSH1 0x4 DUP1 CALLDATASIZE SUB DUP2 ADD SWAP1 PUSH2 0x294 SWAP2 SWAP1 PUSH2 0x1ADB JUMP JUMPDEST PUSH2 0xAB6 JUMP JUMPDEST STOP JUMPDEST PUSH2 0x2A3 PUSH2 0xB20 JUMP JUMPDEST PUSH1 0x40 MLOAD PUSH2 0x2B0 SWAP2 SWAP1 PUSH2 0x192E JUMP JUMPDEST PUSH1 0x40 MLOAD DUP1 SWAP2 SUB SWAP1 RETURN JUMPDEST PUSH2 0x2D3 PUSH1 0x4 DUP1 CALLDATASIZE SUB DUP2 ADD SWAP1 PUSH2 0x2CE SWAP2 SWAP1 PUSH2 0x17B9 JUMP JUMPDEST PUSH2 0xB26 JUMP JUMPDEST PUSH1 0x40 MLOAD PUSH2 0x2E0 SWAP2 SWAP1 PUSH2 0x1766 JUMP JUMPDEST PUSH1 0x40 MLOAD DUP1 SWAP2 SUB SWAP1 RETURN JUMPDEST PUSH2 0x303 PUSH1 0x4 DUP1 CALLDATASIZE SUB DUP2 ADD SWAP1 PUSH2 0x2FE SWAP2 SWAP1 PUSH2 0x1B5B JUMP JUMPDEST PUSH2 0xC20 JUMP JUMPDEST PUSH1 0x40 MLOAD PUSH2 0x310 SWAP2 SWAP1 PUSH2 0x16C3 JUMP JUMPDEST PUSH1 0x40 MLOAD DUP1 SWAP2 SUB SWAP1 RETURN JUMPDEST PUSH0 PUSH32 0x80AC58CD00000000000000000000000000000000000000000000000000000000 PUSH28 0xFFFFFFFFFFFFFFFFFFFFFFFFFFFFFFFFFFFFFFFFFFFFFFFFFFFFFFFF NOT AND DUP3 PUSH28 0xFFFFFFFFFFFFFFFFFFFFFFFFFFFFFFFFFFFFFFFFFFFFFFFFFFFFFFFF NOT AND EQ DUP1 PUSH2 0x3E3 JUMPI POP PUSH32 0x1FFC9A700000000000000000000000000000000000000000000000000000000 PUSH28 0xFFFFFFFFFFFFFFFFFFFFFFFFFFFFFFFFFFFFFFFFFFFFFFFFFFFFFFFF NOT AND DUP3 PUSH28 0xFFFFFFFFFFFFFFFFFFFFFFFFFFFFFFFFFFFFFFFFFFFFFFFFFFFFFFFF NOT AND EQ JUMPDEST DUP1 PUSH2 0x44B JUMPI POP PUSH32 0x5B5E139F00000000000000000000000000000000000000000000000000000000 PUSH28 0xFFFFFFFFFFFFFFFFFFFFFFFFFFFFFFFFFFFFFFFFFFFFFFFFFFFFFFFF NOT AND DUP3 PUSH28 0xFFFFFFFFFFFFFFFFFFFFFFFFFFFFFFFFFFFFFFFFFFFFFFFFFFFFFFFF NOT AND EQ JUMPDEST SWAP1 POP SWAP2 SWAP1 POP JUMP JUMPDEST PUSH0 DUP1 SLOAD PUSH2 0x45E SWAP1 PUSH2 0x1BC6 JUMP JUMPDEST DUP1 PUSH1 0x1F ADD PUSH1 0x20 DUP1 SWAP2 DIV MUL PUSH1 0x20 ADD PUSH1 0x40 MLOAD SWAP1 DUP2 ADD PUSH1 0x40 MSTORE DUP1 SWAP3 SWAP2 SWAP1 DUP2 DUP2 MSTORE PUSH1 0x20 ADD DUP3 DUP1 SLOAD PUSH2 0x48A SWAP1 PUSH2 0x1BC6 JUMP JUMPDEST DUP1 ISZERO PUSH2 0x4D5 JUMPI DUP1 PUSH1 0x1F LT PUSH2 0x4AC JUMPI PUSH2 0x100 DUP1 DUP4 SLOAD DIV MUL DUP4 MSTORE SWAP2 PUSH1 0x20 ADD SWAP2 PUSH2 0x4D5 JUMP JUMPDEST DUP3 ADD SWAP2 SWAP1 PUSH0 MSTORE PUSH1 0x20 PUSH0 KECCAK256 SWAP1 JUMPDEST DUP2 SLOAD DUP2 MSTORE SWAP1 PUSH1 0x1 ADD SWAP1 PUSH1 0x20 ADD DUP1 DUP4 GT PUSH2 0x4B8 JUMPI DUP3 SWAP1 SUB PUSH1 0x1F AND DUP3 ADD SWAP2 JUMPDEST POP POP POP POP POP DUP2 JUMP JUMPDEST PUSH0 PUSH0 PUSH20 0xFFFFFFFFFFFFFFFFFFFFFFFFFFFFFFFFFFFFFFFF AND PUSH1 0x2 PUSH0 DUP5 DUP2 MSTORE PUSH1 0x20 ADD SWAP1 DUP2 MSTORE PUSH1 0x20 ADD PUSH0 KECCAK256 PUSH0 SWAP1 SLOAD SWAP1 PUSH2 0x100 EXP SWAP1 DIV PUSH20 0xFFFFFFFFFFFFFFFFFFFFFFFFFFFFFFFFFFFFFFFF AND PUSH20 0xFFFFFFFFFFFFFFFFFFFFFFFFFFFFFFFFFFFFFFFF AND SUB PUSH2 0x57C JUMPI PUSH1 0x40 MLOAD PUSH32 0x8C379A000000000000000000000000000000000000000000000000000000000 DUP2 MSTORE PUSH1 0x4 ADD PUSH2 0x573 SWAP1 PUSH2 0x1C40 JUMP JUMPDEST PUSH1 0x40 MLOAD DUP1 SWAP2 SUB SWAP1 REVERT JUMPDEST PUSH1 0x4 PUSH0 DUP4 DUP2 MSTORE PUSH1 0x20 ADD SWAP1 DUP2 MSTORE PUSH1 0x20 ADD PUSH0 KECCAK256 PUSH0 SWAP1 SLOAD SWAP1 PUSH2 0x100 EXP SWAP1 DIV PUSH20 0xFFFFFFFFFFFFFFFFFFFFFFFFFFFFFFFFFFFFFFFF AND SWAP1 POP SWAP2 SWAP1 POP JUMP JUMPDEST PUSH0 PUSH1 0x2 PUSH0 DUP4 DUP2 MSTORE PUSH1 0x20 ADD SWAP1 DUP2 MSTORE PUSH1 0x20 ADD PUSH0 KECCAK256 PUSH0 SWAP1 SLOAD SWAP1 PUSH2 0x100 EXP SWAP1 DIV PUSH20 0xFFFFFFFFFFFFFFFFFFFFFFFFFFFFFFFFFFFFFFFF AND SWAP1 POP DUP1 PUSH20 0xFFFFFFFFFFFFFFFFFFFFFFFFFFFFFFFFFFFFFFFF AND CALLER PUSH20 0xFFFFFFFFFFFFFFFFFFFFFFFFFFFFFFFFFFFFFFFF AND EQ DUP1 PUSH2 0x6A3 JUMPI POP PUSH1 0x5 PUSH0 DUP3 PUSH20 0xFFFFFFFFFFFFFFFFFFFFFFFFFFFFFFFFFFFFFFFF AND PUSH20 0xFFFFFFFFFFFFFFFFFFFFFFFFFFFFFFFFFFFFFFFF AND DUP2 MSTORE PUSH1 0x20 ADD SWAP1 DUP2 MSTORE PUSH1 0x20 ADD PUSH0 KECCAK256 PUSH0 CALLER PUSH20 0xFFFFFFFFFFFFFFFFFFFFFFFFFFFFFFFFFFFFFFFF AND PUSH20 0xFFFFFFFFFFFFFFFFFFFFFFFFFFFFFFFFFFFFFFFF AND DUP2 MSTORE PUSH1 0x20 ADD SWAP1 DUP2 MSTORE PUSH1 0x20 ADD PUSH0 KECCAK256 PUSH0 SWAP1 SLOAD SWAP1 PUSH2 0x100 EXP SWAP1 DIV PUSH1 0xFF AND JUMPDEST PUSH2 0x6E2 JUMPI PUSH1 0x40 MLOAD PUSH32 0x8C379A000000000000000000000000000000000000000000000000000000000 DUP2 MSTORE PUSH1 0x4 ADD PUSH2 0x6D9 SWAP1 PUSH2 0x1CA8 JUMP JUMPDEST PUSH1 0x40 MLOAD DUP1 SWAP2 SUB SWAP1 REVERT JUMPDEST PUSH2 0x6ED DUP2 DUP5 DUP5 PUSH2 0xCAE JUMP JUMPDEST POP POP POP JUMP JUMPDEST PUSH0 PUSH2 0x6FC DUP3 PUSH2 0x7D7 JUMP JUMPDEST SWAP1 POP PUSH2 0x709 DUP2 CALLER DUP5 PUSH2 0xD5D JUMP JUMPDEST PUSH2 0x748 JUMPI PUSH1 0x40 MLOAD PUSH32 0x8C379A000000000000000000000000000000000000000000000000000000000 DUP2 MSTORE PUSH1 0x4 ADD PUSH2 0x73F SWAP1 PUSH2 0x1D10 JUMP JUMPDEST PUSH1 0x40 MLOAD DUP1 SWAP2 SUB SWAP1 REVERT JUMPDEST PUSH2 0x754 DUP2 DUP6 DUP6 DUP6 PUSH2 0xE88 JUMP JUMPDEST POP POP POP POP JUMP JUMPDEST PUSH0 DUP2 LT ISZERO DUP1 ISZERO PUSH2 0x76B JUMPI POP PUSH1 0x6 SLOAD DUP2 LT JUMPDEST PUSH2 0x7AA JUMPI PUSH1 0x40 MLOAD PUSH32 0x8C379A000000000000000000000000000000000000000000000000000000000 DUP2 MSTORE PUSH1 0x4 ADD PUSH2 0x7A1 SWAP1 PUSH2 0x1D78 JUMP JUMPDEST PUSH1 0x40 MLOAD DUP1 SWAP2 SUB SWAP1 REVERT JUMPDEST PUSH2 0x7B4 DUP3 DUP3 PUSH2 0x10C7 JUMP JUMPDEST POP POP JUMP JUMPDEST PUSH2 0x7D2 DUP4 DUP4 DUP4 PUSH1 0x40 MLOAD DUP1 PUSH1 0x20 ADD PUSH1 0x40 MSTORE DUP1 PUSH0 DUP2 MSTORE POP PUSH2 0xAB6 JUMP JUMPDEST POP POP POP JUMP JUMPDEST PUSH0 PUSH1 0x2 PUSH0 DUP4 DUP2 MSTORE PUSH1 0x20 ADD SWAP1 DUP2 MSTORE PUSH1 0x20 ADD PUSH0 KECCAK256 PUSH0 SWAP1 SLOAD SWAP1 PUSH2 0x100 EXP SWAP1 DIV PUSH20 0xFFFFFFFFFFFFFFFFFFFFFFFFFFFFFFFFFFFFFFFF AND SWAP1 POP PUSH0 PUSH20 0xFFFFFFFFFFFFFFFFFFFFFFFFFFFFFFFFFFFFFFFF AND DUP2 PUSH20 0xFFFFFFFFFFFFFFFFFFFFFFFFFFFFFFFFFFFFFFFF AND SUB PUSH2 0x879 JUMPI PUSH1 0x40 MLOAD PUSH32 0x8C379A000000000000000000000000000000000000000000000000000000000 DUP2 MSTORE PUSH1 0x4 ADD PUSH2 0x870 SWAP1 PUSH2 0x1C40 JUMP JUMPDEST PUSH1 0x40 MLOAD DUP1 SWAP2 SUB SWAP1 REVERT JUMPDEST SWAP2 SWAP1 POP JUMP JUMPDEST PUSH0 PUSH0 PUSH20 0xFFFFFFFFFFFFFFFFFFFFFFFFFFFFFFFFFFFFFFFF AND DUP3 PUSH20 0xFFFFFFFFFFFFFFFFFFFFFFFFFFFFFFFFFFFFFFFF AND SUB PUSH2 0x8ED JUMPI PUSH1 0x40 MLOAD PUSH32 0x8C379A000000000000000000000000000000000000000000000000000000000 DUP2 MSTORE PUSH1 0x4 ADD PUSH2 0x8E4 SWAP1 PUSH2 0x1DE0 JUMP JUMPDEST PUSH1 0x40 MLOAD DUP1 SWAP2 SUB SWAP1 REVERT JUMPDEST PUSH1 0x3 PUSH0 DUP4 PUSH20 0xFFFFFFFFFFFFFFFFFFFFFFFFFFFFFFFFFFFFFFFF AND PUSH20 0xFFFFFFFFFFFFFFFFFFFFFFFFFFFFFFFFFFFFFFFF AND DUP2 MSTORE PUSH1 0x20 ADD SWAP1 DUP2 MSTORE PUSH1 0x20 ADD PUSH0 KECCAK256 SLOAD SWAP1 POP SWAP2 SWAP1 POP JUMP JUMPDEST PUSH1 0x1 DUP1 SLOAD PUSH2 0x93F SWAP1 PUSH2 0x1BC6 JUMP JUMPDEST DUP1 PUSH1 0x1F ADD PUSH1 0x20 DUP1 SWAP2 DIV MUL PUSH1 0x20 ADD PUSH1 0x40 MLOAD SWAP1 DUP2 ADD PUSH1 0x40 MSTORE DUP1 SWAP3 SWAP2 SWAP1 DUP2 DUP2 MSTORE PUSH1 0x20 ADD DUP3 DUP1 SLOAD PUSH2 0x96B SWAP1 PUSH2 0x1BC6 JUMP JUMPDEST DUP1 ISZERO PUSH2 0x9B6 JUMPI DUP1 PUSH1 0x1F LT PUSH2 0x98D JUMPI PUSH2 0x100 DUP1 DUP4 SLOAD DIV MUL DUP4 MSTORE SWAP2 PUSH1 0x20 ADD SWAP2 PUSH2 0x9B6 JUMP JUMPDEST DUP3 ADD SWAP2 SWAP1 PUSH0 MSTORE PUSH1 0x20 PUSH0 KECCAK256 SWAP1 JUMPDEST DUP2 SLOAD DUP2 MSTORE SWAP1 PUSH1 0x1 ADD SWAP1 PUSH1 0x20 ADD DUP1 DUP4 GT PUSH2 0x999 JUMPI DUP3 SWAP1 SUB PUSH1 0x1F AND DUP3 ADD SWAP2 JUMPDEST POP POP POP POP POP DUP2 JUMP JUMPDEST DUP1 PUSH1 0x5 PUSH0 CALLER PUSH20 0xFFFFFFFFFFFFFFFFFFFFFFFFFFFFFFFFFFFFFFFF AND PUSH20 0xFFFFFFFFFFFFFFFFFFFFFFFFFFFFFFFFFFFFFFFF AND DUP2 MSTORE PUSH1 0x20 ADD SWAP1 DUP2 MSTORE PUSH1 0x20 ADD PUSH0 KECCAK256 PUSH0 DUP5 PUSH20 0xFFFFFFFFFFFFFFFFFFFFFFFFFFFFFFFFFFFFFFFF AND PUSH20 0xFFFFFFFFFFFFFFFFFFFFFFFFFFFFFFFFFFFFFFFF AND DUP2 MSTORE PUSH1 0x20 ADD SWAP1 DUP2 MSTORE PUSH1 0x20 ADD PUSH0 KECCAK256 PUSH0 PUSH2 0x100 EXP DUP2 SLOAD DUP2 PUSH1 0xFF MUL NOT AND SWAP1 DUP4 ISZERO ISZERO MUL OR SWAP1 SSTORE POP DUP2 PUSH20 0xFFFFFFFFFFFFFFFFFFFFFFFFFFFFFFFFFFFFFFFF AND CALLER PUSH20 0xFFFFFFFFFFFFFFFFFFFFFFFFFFFFFFFFFFFFFFFF AND PUSH32 0x17307EAB39AB6107E8899845AD3D59BD9653F200F220920489CA2B5937696C31 DUP4 PUSH1 0x40 MLOAD PUSH2 0xAAA SWAP2 SWAP1 PUSH2 0x16C3 JUMP JUMPDEST PUSH1 0x40 MLOAD DUP1 SWAP2 SUB SWAP1 LOG3 POP POP JUMP JUMPDEST PUSH0 PUSH2 0xAC0 DUP4 PUSH2 0x7D7 JUMP JUMPDEST SWAP1 POP PUSH2 0xACD DUP2 CALLER DUP6 PUSH2 0xD5D JUMP JUMPDEST PUSH2 0xB0C JUMPI PUSH1 0x40 MLOAD PUSH32 0x8C379A000000000000000000000000000000000000000000000000000000000 DUP2 MSTORE PUSH1 0x4 ADD PUSH2 0xB03 SWAP1 PUSH2 0x1D10 JUMP JUMPDEST PUSH1 0x40 MLOAD DUP1 SWAP2 SUB SWAP1 REVERT JUMPDEST PUSH2 0xB19 DUP2 DUP7 DUP7 DUP7 DUP7 PUSH2 0x12D5 JUMP JUMPDEST POP POP POP POP POP JUMP JUMPDEST PUSH1 0x6 SLOAD DUP2 JUMP JUMPDEST PUSH1 0x60 PUSH0 PUSH20 0xFFFFFFFFFFFFFFFFFFFFFFFFFFFFFFFFFFFFFFFF AND PUSH1 0x2 PUSH0 DUP5 DUP2 MSTORE PUSH1 0x20 ADD SWAP1 DUP2 MSTORE PUSH1 0x20 ADD PUSH0 KECCAK256 PUSH0 SWAP1 SLOAD SWAP1 PUSH2 0x100 EXP SWAP1 DIV PUSH20 0xFFFFFFFFFFFFFFFFFFFFFFFFFFFFFFFFFFFFFFFF AND PUSH20 0xFFFFFFFFFFFFFFFFFFFFFFFFFFFFFFFFFFFFFFFF AND SUB PUSH2 0xBC6 JUMPI PUSH1 0x40 MLOAD PUSH32 0x8C379A000000000000000000000000000000000000000000000000000000000 DUP2 MSTORE PUSH1 0x4 ADD PUSH2 0xBBD SWAP1 PUSH2 0x1E48 JUMP JUMPDEST PUSH1 0x40 MLOAD DUP1 SWAP2 SUB SWAP1 REVERT JUMPDEST PUSH0 PUSH2 0xBCF PUSH2 0x12F4 JUMP JUMPDEST SWAP1 POP PUSH0 DUP2 MLOAD GT PUSH2 0xBED JUMPI PUSH1 0x40 MLOAD DUP1 PUSH1 0x20 ADD PUSH1 0x40 MSTORE DUP1 PUSH0 DUP2 MSTORE POP PUSH2 0xC18 JUMP JUMPDEST DUP1 PUSH2 0xBF7 DUP5 PUSH2 0x1314 JUMP JUMPDEST PUSH1 0x40 MLOAD PUSH1 0x20 ADD PUSH2 0xC08 SWAP3 SWAP2 SWAP1 PUSH2 0x1EA0 JUMP JUMPDEST PUSH1 0x40 MLOAD PUSH1 0x20 DUP2 DUP4 SUB SUB DUP2 MSTORE SWAP1 PUSH1 0x40 MSTORE JUMPDEST SWAP2 POP POP SWAP2 SWAP1 POP JUMP JUMPDEST PUSH0 PUSH1 0x5 PUSH0 DUP5 PUSH20 0xFFFFFFFFFFFFFFFFFFFFFFFFFFFFFFFFFFFFFFFF AND PUSH20 0xFFFFFFFFFFFFFFFFFFFFFFFFFFFFFFFFFFFFFFFF AND DUP2 MSTORE PUSH1 0x20 ADD SWAP1 DUP2 MSTORE PUSH1 0x20 ADD PUSH0 KECCAK256 PUSH0 DUP4 PUSH20 0xFFFFFFFFFFFFFFFFFFFFFFFFFFFFFFFFFFFFFFFF AND PUSH20 0xFFFFFFFFFFFFFFFFFFFFFFFFFFFFFFFFFFFFFFFF AND DUP2 MSTORE PUSH1 0x20 ADD SWAP1 DUP2 MSTORE PUSH1 0x20 ADD PUSH0 KECCAK256 PUSH0 SWAP1 SLOAD SWAP1 PUSH2 0x100 EXP SWAP1 DIV PUSH1 0xFF AND SWAP1 POP SWAP3 SWAP2 POP POP JUMP JUMPDEST DUP2 PUSH1 0x4 PUSH0 DUP4 DUP2 MSTORE PUSH1 0x20 ADD SWAP1 DUP2 MSTORE PUSH1 0x20 ADD PUSH0 KECCAK256 PUSH0 PUSH2 0x100 EXP DUP2 SLOAD DUP2 PUSH20 0xFFFFFFFFFFFFFFFFFFFFFFFFFFFFFFFFFFFFFFFF MUL NOT AND SWAP1 DUP4 PUSH20 0xFFFFFFFFFFFFFFFFFFFFFFFFFFFFFFFFFFFFFFFF AND MUL OR SWAP1 SSTORE POP DUP1 DUP3 PUSH20 0xFFFFFFFFFFFFFFFFFFFFFFFFFFFFFFFFFFFFFFFF AND DUP5 PUSH20 0xFFFFFFFFFFFFFFFFFFFFFFFFFFFFFFFFFFFFFFFF AND PUSH32 0x8C5BE1E5EBEC7D5BD14F71427D1E84F3DD0314C0F7B2291E5B200AC8C7C3B925 PUSH1 0x40 MLOAD PUSH1 0x40 MLOAD DUP1 SWAP2 SUB SWAP1 LOG4 POP POP POP JUMP JUMPDEST PUSH0 DUP4 PUSH20 0xFFFFFFFFFFFFFFFFFFFFFFFFFFFFFFFFFFFFFFFF AND DUP4 PUSH20 0xFFFFFFFFFFFFFFFFFFFFFFFFFFFFFFFFFFFFFFFF AND EQ DUP1 PUSH2 0xDF3 JUMPI POP DUP3 PUSH20 0xFFFFFFFFFFFFFFFFFFFFFFFFFFFFFFFFFFFFFFFF AND PUSH1 0x4 PUSH0 DUP5 DUP2 MSTORE PUSH1 0x20 ADD SWAP1 DUP2 MSTORE PUSH1 0x20 ADD PUSH0 KECCAK256 PUSH0 SWAP1 SLOAD SWAP1 PUSH2 0x100 EXP SWAP1 DIV PUSH20 0xFFFFFFFFFFFFFFFFFFFFFFFFFFFFFFFFFFFFFFFF AND PUSH20 0xFFFFFFFFFFFFFFFFFFFFFFFFFFFFFFFFFFFFFFFF AND EQ JUMPDEST DUP1 PUSH2 0xE7F JUMPI POP PUSH1 0x5 PUSH0 DUP6 PUSH20 0xFFFFFFFFFFFFFFFFFFFFFFFFFFFFFFFFFFFFFFFF AND PUSH20 0xFFFFFFFFFFFFFFFFFFFFFFFFFFFFFFFFFFFFFFFF AND DUP2 MSTORE PUSH1 0x20 ADD SWAP1 DUP2 MSTORE PUSH1 0x20 ADD PUSH0 KECCAK256 PUSH0 DUP5 PUSH20 0xFFFFFFFFFFFFFFFFFFFFFFFFFFFFFFFFFFFFFFFF AND PUSH20 0xFFFFFFFFFFFFFFFFFFFFFFFFFFFFFFFFFFFFFFFF AND DUP2 MSTORE PUSH1 0x20 ADD SWAP1 DUP2 MSTORE PUSH1 0x20 ADD PUSH0 KECCAK256 PUSH0 SWAP1 SLOAD SWAP1 PUSH2 0x100 EXP SWAP1 DIV PUSH1 0xFF AND JUMPDEST SWAP1 POP SWAP4 SWAP3 POP POP POP JUMP JUMPDEST DUP4 PUSH20 0xFFFFFFFFFFFFFFFFFFFFFFFFFFFFFFFFFFFFFFFF AND DUP4 PUSH20 0xFFFFFFFFFFFFFFFFFFFFFFFFFFFFFFFFFFFFFFFF AND EQ PUSH2 0xEF6 JUMPI PUSH1 0x40 MLOAD PUSH32 0x8C379A000000000000000000000000000000000000000000000000000000000 DUP2 MSTORE PUSH1 0x4 ADD PUSH2 0xEED SWAP1 PUSH2 0x1F0D JUMP JUMPDEST PUSH1 0x40 MLOAD DUP1 SWAP2 SUB SWAP1 REVERT JUMPDEST PUSH0 PUSH20 0xFFFFFFFFFFFFFFFFFFFFFFFFFFFFFFFFFFFFFFFF AND DUP3 PUSH20 0xFFFFFFFFFFFFFFFFFFFFFFFFFFFFFFFFFFFFFFFF AND SUB PUSH2 0xF64 JUMPI PUSH1 0x40 MLOAD PUSH32 0x8C379A000000000000000000000000000000000000000000000000000000000 DUP2 MSTORE PUSH1 0x4 ADD PUSH2 0xF5B SWAP1 PUSH2 0x1F75 JUMP JUMPDEST PUSH1 0x40 MLOAD DUP1 SWAP2 SUB SWAP1 REVERT JUMPDEST PUSH2 0xF6F DUP5 PUSH0 DUP4 PUSH2 0xCAE JUMP JUMPDEST PUSH1 0x1 PUSH1 0x3 PUSH0 DUP6 PUSH20 0xFFFFFFFFFFFFFFFFFFFFFFFFFFFFFFFFFFFFFFFF AND PUSH20 0xFFFFFFFFFFFFFFFFFFFFFFFFFFFFFFFFFFFFFFFF AND DUP2 MSTORE PUSH1 0x20 ADD SWAP1 DUP2 MSTORE PUSH1 0x20 ADD PUSH0 KECCAK256 PUSH0 DUP3 DUP3 SLOAD PUSH2 0xFBC SWAP2 SWAP1 PUSH2 0x1FC0 JUMP JUMPDEST SWAP3 POP POP DUP2 SWAP1 SSTORE POP PUSH1 0x1 PUSH1 0x3 PUSH0 DUP5 PUSH20 0xFFFFFFFFFFFFFFFFFFFFFFFFFFFFFFFFFFFFFFFF AND PUSH20 0xFFFFFFFFFFFFFFFFFFFFFFFFFFFFFFFFFFFFFFFF AND DUP2 MSTORE PUSH1 0x20 ADD SWAP1 DUP2 MSTORE PUSH1 0x20 ADD PUSH0 KECCAK256 PUSH0 DUP3 DUP3 SLOAD PUSH2 0x1010 SWAP2 SWAP1 PUSH2 0x1FF3 JUMP JUMPDEST SWAP3 POP POP DUP2 SWAP1 SSTORE POP DUP2 PUSH1 0x2 PUSH0 DUP4 DUP2 MSTORE PUSH1 0x20 ADD SWAP1 DUP2 MSTORE PUSH1 0x20 ADD PUSH0 KECCAK256 PUSH0 PUSH2 0x100 EXP DUP2 SLOAD DUP2 PUSH20 0xFFFFFFFFFFFFFFFFFFFFFFFFFFFFFFFFFFFFFFFF MUL NOT AND SWAP1 DUP4 PUSH20 0xFFFFFFFFFFFFFFFFFFFFFFFFFFFFFFFFFFFFFFFF AND MUL OR SWAP1 SSTORE POP DUP1 DUP3 PUSH20 0xFFFFFFFFFFFFFFFFFFFFFFFFFFFFFFFFFFFFFFFF AND DUP5 PUSH20 0xFFFFFFFFFFFFFFFFFFFFFFFFFFFFFFFFFFFFFFFF AND PUSH32 0xDDF252AD1BE2C89B69C2B068FC378DAA952BA7F163C4A11628F55A4DF523B3EF PUSH1 0x40 MLOAD PUSH1 0x40 MLOAD DUP1 SWAP2 SUB SWAP1 LOG4 POP POP POP POP JUMP JUMPDEST PUSH0 PUSH20 0xFFFFFFFFFFFFFFFFFFFFFFFFFFFFFFFFFFFFFFFF AND DUP3 PUSH20 0xFFFFFFFFFFFFFFFFFFFFFFFFFFFFFFFFFFFFFFFF AND SUB PUSH2 0x1135 JUMPI PUSH1 0x40 MLOAD PUSH32 0x8C379A000000000000000000000000000000000000000000000000000000000 DUP2 MSTORE PUSH1 0x4 ADD PUSH2 0x112C SWAP1 PUSH2 0x2070 JUMP JUMPDEST PUSH1 0x40 MLOAD DUP1 SWAP2 SUB SWAP1 REVERT JUMPDEST PUSH0 PUSH20 0xFFFFFFFFFFFFFFFFFFFFFFFFFFFFFFFFFFFFFFFF AND PUSH1 0x2 PUSH0 DUP4 DUP2 MSTORE PUSH1 0x20 ADD SWAP1 DUP2 MSTORE PUSH1 0x20 ADD PUSH0 KECCAK256 PUSH0 SWAP1 SLOAD SWAP1 PUSH2 0x100 EXP SWAP1 DIV PUSH20 0xFFFFFFFFFFFFFFFFFFFFFFFFFFFFFFFFFFFFFFFF AND PUSH20 0xFFFFFFFFFFFFFFFFFFFFFFFFFFFFFFFFFFFFFFFF AND EQ PUSH2 0x11D3 JUMPI PUSH1 0x40 MLOAD PUSH32 0x8C379A000000000000000000000000000000000000000000000000000000000 DUP2 MSTORE PUSH1 0x4 ADD PUSH2 0x11CA SWAP1 PUSH2 0x20D8 JUMP JUMPDEST PUSH1 0x40 MLOAD DUP1 SWAP2 SUB SWAP1 REVERT JUMPDEST PUSH1 0x1 PUSH1 0x3 PUSH0 DUP5 PUSH20 0xFFFFFFFFFFFFFFFFFFFFFFFFFFFFFFFFFFFFFFFF AND PUSH20 0xFFFFFFFFFFFFFFFFFFFFFFFFFFFFFFFFFFFFFFFF AND DUP2 MSTORE PUSH1 0x20 ADD SWAP1 DUP2 MSTORE PUSH1 0x20 ADD PUSH0 KECCAK256 PUSH0 DUP3 DUP3 SLOAD PUSH2 0x1220 SWAP2 SWAP1 PUSH2 0x1FF3 JUMP JUMPDEST SWAP3 POP POP DUP2 SWAP1 SSTORE POP DUP2 PUSH1 0x2 PUSH0 DUP4 DUP2 MSTORE PUSH1 0x20 ADD SWAP1 DUP2 MSTORE PUSH1 0x20 ADD PUSH0 KECCAK256 PUSH0 PUSH2 0x100 EXP DUP2 SLOAD DUP2 PUSH20 0xFFFFFFFFFFFFFFFFFFFFFFFFFFFFFFFFFFFFFFFF MUL NOT AND SWAP1 DUP4 PUSH20 0xFFFFFFFFFFFFFFFFFFFFFFFFFFFFFFFFFFFFFFFF AND MUL OR SWAP1 SSTORE POP DUP1 DUP3 PUSH20 0xFFFFFFFFFFFFFFFFFFFFFFFFFFFFFFFFFFFFFFFF AND PUSH0 PUSH20 0xFFFFFFFFFFFFFFFFFFFFFFFFFFFFFFFFFFFFFFFF AND PUSH32 0xDDF252AD1BE2C89B69C2B068FC378DAA952BA7F163C4A11628F55A4DF523B3EF PUSH1 0x40 MLOAD PUSH1 0x40 MLOAD DUP1 SWAP2 SUB SWAP1 LOG4 POP POP JUMP JUMPDEST PUSH2 0x12E1 DUP6 DUP6 DUP6 DUP6 PUSH2 0xE88 JUMP JUMPDEST PUSH2 0x12ED DUP5 DUP5 DUP5 DUP5 PUSH2 0x146D JUMP JUMPDEST POP POP POP POP POP JUMP JUMPDEST PUSH1 0x60 PUSH1 0x40 MLOAD DUP1 PUSH1 0x60 ADD PUSH1 0x40 MSTORE DUP1 PUSH1 0x36 DUP2 MSTORE PUSH1 0x20 ADD PUSH2 0x22D3 PUSH1 0x36 SWAP2 CODECOPY SWAP1 POP SWAP1 JUMP JUMPDEST PUSH1 0x60 PUSH0 DUP3 SUB PUSH2 0x135A JUMPI PUSH1 0x40 MLOAD DUP1 PUSH1 0x40 ADD PUSH1 0x40 MSTORE DUP1 PUSH1 0x1 DUP2 MSTORE PUSH1 0x20 ADD PUSH32 0x3000000000000000000000000000000000000000000000000000000000000000 DUP2 MSTORE POP SWAP1 POP PUSH2 0x1468 JUMP JUMPDEST PUSH0 DUP3 SWAP1 POP PUSH0 JUMPDEST PUSH0 DUP3 EQ PUSH2 0x1389 JUMPI DUP1 DUP1 PUSH2 0x1372 SWAP1 PUSH2 0x20F6 JUMP JUMPDEST SWAP2 POP POP PUSH1 0xA DUP3 PUSH2 0x1382 SWAP2 SWAP1 PUSH2 0x216A JUMP JUMPDEST SWAP2 POP PUSH2 0x1360 JUMP JUMPDEST PUSH0 DUP2 PUSH8 0xFFFFFFFFFFFFFFFF DUP2 GT ISZERO PUSH2 0x13A4 JUMPI PUSH2 0x13A3 PUSH2 0x19B7 JUMP JUMPDEST JUMPDEST PUSH1 0x40 MLOAD SWAP1 DUP1 DUP3 MSTORE DUP1 PUSH1 0x1F ADD PUSH1 0x1F NOT AND PUSH1 0x20 ADD DUP3 ADD PUSH1 0x40 MSTORE DUP1 ISZERO PUSH2 0x13D6 JUMPI DUP2 PUSH1 0x20 ADD PUSH1 0x1 DUP3 MUL DUP1 CALLDATASIZE DUP4 CALLDATACOPY DUP1 DUP3 ADD SWAP2 POP POP SWAP1 POP JUMPDEST POP SWAP1 POP JUMPDEST PUSH0 DUP6 EQ PUSH2 0x1461 JUMPI PUSH1 0x1 DUP3 PUSH2 0x13EE SWAP2 SWAP1 PUSH2 0x1FC0 JUMP JUMPDEST SWAP2 POP PUSH1 0xA DUP6 PUSH2 0x13FD SWAP2 SWAP1 PUSH2 0x219A JUMP JUMPDEST PUSH1 0x30 PUSH2 0x1409 SWAP2 SWAP1 PUSH2 0x1FF3 JUMP JUMPDEST PUSH1 0xF8 SHL DUP2 DUP4 DUP2 MLOAD DUP2 LT PUSH2 0x141F JUMPI PUSH2 0x141E PUSH2 0x21CA JUMP JUMPDEST JUMPDEST PUSH1 0x20 ADD ADD SWAP1 PUSH31 0xFFFFFFFFFFFFFFFFFFFFFFFFFFFFFFFFFFFFFFFFFFFFFFFFFFFFFFFFFFFFFF NOT AND SWAP1 DUP2 PUSH0 BYTE SWAP1 MSTORE8 POP PUSH1 0xA DUP6 PUSH2 0x145A SWAP2 SWAP1 PUSH2 0x216A JUMP JUMPDEST SWAP5 POP PUSH2 0x13DA JUMP JUMPDEST DUP1 SWAP4 POP POP POP POP JUMPDEST SWAP2 SWAP1 POP JUMP JUMPDEST PUSH0 DUP4 PUSH20 0xFFFFFFFFFFFFFFFFFFFFFFFFFFFFFFFFFFFFFFFF AND EXTCODESIZE GT ISZERO PUSH2 0x1612 JUMPI DUP3 PUSH20 0xFFFFFFFFFFFFFFFFFFFFFFFFFFFFFFFFFFFFFFFF AND PUSH4 0x150B7A02 CALLER DUP7 DUP6 DUP6 PUSH1 0x40 MLOAD DUP6 PUSH4 0xFFFFFFFF AND PUSH1 0xE0 SHL DUP2 MSTORE PUSH1 0x4 ADD PUSH2 0x14CB SWAP5 SWAP4 SWAP3 SWAP2 SWAP1 PUSH2 0x2249 JUMP JUMPDEST PUSH1 0x20 PUSH1 0x40 MLOAD DUP1 DUP4 SUB DUP2 PUSH0 DUP8 GAS CALL SWAP3 POP POP POP DUP1 ISZERO PUSH2 0x1506 JUMPI POP PUSH1 0x40 MLOAD RETURNDATASIZE PUSH1 0x1F NOT PUSH1 0x1F DUP3 ADD AND DUP3 ADD DUP1 PUSH1 0x40 MSTORE POP DUP2 ADD SWAP1 PUSH2 0x1503 SWAP2 SWAP1 PUSH2 0x22A7 JUMP JUMPDEST PUSH1 0x1 JUMPDEST PUSH2 0x1587 JUMPI RETURNDATASIZE DUP1 PUSH0 DUP2 EQ PUSH2 0x1534 JUMPI PUSH1 0x40 MLOAD SWAP2 POP PUSH1 0x1F NOT PUSH1 0x3F RETURNDATASIZE ADD AND DUP3 ADD PUSH1 0x40 MSTORE RETURNDATASIZE DUP3 MSTORE RETURNDATASIZE PUSH0 PUSH1 0x20 DUP5 ADD RETURNDATACOPY PUSH2 0x1539 JUMP JUMPDEST PUSH1 0x60 SWAP2 POP JUMPDEST POP PUSH0 DUP2 MLOAD SUB PUSH2 0x157F JUMPI DUP4 PUSH1 0x40 MLOAD PUSH32 0x64A0AE9200000000000000000000000000000000000000000000000000000000 DUP2 MSTORE PUSH1 0x4 ADD PUSH2 0x1576 SWAP2 SWAP1 PUSH2 0x1823 JUMP JUMPDEST PUSH1 0x40 MLOAD DUP1 SWAP2 SUB SWAP1 REVERT JUMPDEST DUP1 MLOAD DUP2 PUSH1 0x20 ADD REVERT JUMPDEST PUSH4 0x150B7A02 PUSH1 0xE0 SHL PUSH28 0xFFFFFFFFFFFFFFFFFFFFFFFFFFFFFFFFFFFFFFFFFFFFFFFFFFFFFFFF NOT AND DUP2 PUSH28 0xFFFFFFFFFFFFFFFFFFFFFFFFFFFFFFFFFFFFFFFFFFFFFFFFFFFFFFFF NOT AND EQ PUSH2 0x1610 JUMPI DUP4 PUSH1 0x40 MLOAD PUSH32 0x64A0AE9200000000000000000000000000000000000000000000000000000000 DUP2 MSTORE PUSH1 0x4 ADD PUSH2 0x1607 SWAP2 SWAP1 PUSH2 0x1823 JUMP JUMPDEST PUSH1 0x40 MLOAD DUP1 SWAP2 SUB SWAP1 REVERT JUMPDEST POP JUMPDEST POP POP POP POP JUMP JUMPDEST PUSH0 PUSH1 0x40 MLOAD SWAP1 POP SWAP1 JUMP JUMPDEST PUSH0 PUSH0 REVERT JUMPDEST PUSH0 PUSH0 REVERT JUMPDEST PUSH0 PUSH32 0xFFFFFFFF00000000000000000000000000000000000000000000000000000000 DUP3 AND SWAP1 POP SWAP2 SWAP1 POP JUMP JUMPDEST PUSH2 0x165D DUP2 PUSH2 0x1629 JUMP JUMPDEST DUP2 EQ PUSH2 0x1667 JUMPI PUSH0 PUSH0 REVERT JUMPDEST POP JUMP JUMPDEST PUSH0 DUP2 CALLDATALOAD SWAP1 POP PUSH2 0x1678 DUP2 PUSH2 0x1654 JUMP JUMPDEST SWAP3 SWAP2 POP POP JUMP JUMPDEST PUSH0 PUSH1 0x20 DUP3 DUP5 SUB SLT ISZERO PUSH2 0x1693 JUMPI PUSH2 0x1692 PUSH2 0x1621 JUMP JUMPDEST JUMPDEST PUSH0 PUSH2 0x16A0 DUP5 DUP3 DUP6 ADD PUSH2 0x166A JUMP JUMPDEST SWAP2 POP POP SWAP3 SWAP2 POP POP JUMP JUMPDEST PUSH0 DUP2 ISZERO ISZERO SWAP1 POP SWAP2 SWAP1 POP JUMP JUMPDEST PUSH2 0x16BD DUP2 PUSH2 0x16A9 JUMP JUMPDEST DUP3 MSTORE POP POP JUMP JUMPDEST PUSH0 PUSH1 0x20 DUP3 ADD SWAP1 POP PUSH2 0x16D6 PUSH0 DUP4 ADD DUP5 PUSH2 0x16B4 JUMP JUMPDEST SWAP3 SWAP2 POP POP JUMP JUMPDEST PUSH0 DUP2 MLOAD SWAP1 POP SWAP2 SWAP1 POP JUMP JUMPDEST PUSH0 DUP3 DUP3 MSTORE PUSH1 0x20 DUP3 ADD SWAP1 POP SWAP3 SWAP2 POP POP JUMP JUMPDEST PUSH0 JUMPDEST DUP4 DUP2 LT ISZERO PUSH2 0x1713 JUMPI DUP1 DUP3 ADD MLOAD DUP2 DUP5 ADD MSTORE PUSH1 0x20 DUP2 ADD SWAP1 POP PUSH2 0x16F8 JUMP JUMPDEST PUSH0 DUP5 DUP5 ADD MSTORE POP POP POP POP JUMP JUMPDEST PUSH0 PUSH1 0x1F NOT PUSH1 0x1F DUP4 ADD AND SWAP1 POP SWAP2 SWAP1 POP JUMP JUMPDEST PUSH0 PUSH2 0x1738 DUP3 PUSH2 0x16DC JUMP JUMPDEST PUSH2 0x1742 DUP2 DUP6 PUSH2 0x16E6 JUMP JUMPDEST SWAP4 POP PUSH2 0x1752 DUP2 DUP6 PUSH1 0x20 DUP7 ADD PUSH2 0x16F6 JUMP JUMPDEST PUSH2 0x175B DUP2 PUSH2 0x171E JUMP JUMPDEST DUP5 ADD SWAP2 POP POP SWAP3 SWAP2 POP POP JUMP JUMPDEST PUSH0 PUSH1 0x20 DUP3 ADD SWAP1 POP DUP2 DUP2 SUB PUSH0 DUP4 ADD MSTORE PUSH2 0x177E DUP2 DUP5 PUSH2 0x172E JUMP JUMPDEST SWAP1 POP SWAP3 SWAP2 POP POP JUMP JUMPDEST PUSH0 DUP2 SWAP1 POP SWAP2 SWAP1 POP JUMP JUMPDEST PUSH2 0x1798 DUP2 PUSH2 0x1786 JUMP JUMPDEST DUP2 EQ PUSH2 0x17A2 JUMPI PUSH0 PUSH0 REVERT JUMPDEST POP JUMP JUMPDEST PUSH0 DUP2 CALLDATALOAD SWAP1 POP PUSH2 0x17B3 DUP2 PUSH2 0x178F JUMP JUMPDEST SWAP3 SWAP2 POP POP JUMP JUMPDEST PUSH0 PUSH1 0x20 DUP3 DUP5 SUB SLT ISZERO PUSH2 0x17CE JUMPI PUSH2 0x17CD PUSH2 0x1621 JUMP JUMPDEST JUMPDEST PUSH0 PUSH2 0x17DB DUP5 DUP3 DUP6 ADD PUSH2 0x17A5 JUMP JUMPDEST SWAP2 POP POP SWAP3 SWAP2 POP POP JUMP JUMPDEST PUSH0 PUSH20 0xFFFFFFFFFFFFFFFFFFFFFFFFFFFFFFFFFFFFFFFF DUP3 AND SWAP1 POP SWAP2 SWAP1 POP JUMP JUMPDEST PUSH0 PUSH2 0x180D DUP3 PUSH2 0x17E4 JUMP JUMPDEST SWAP1 POP SWAP2 SWAP1 POP JUMP JUMPDEST PUSH2 0x181D DUP2 PUSH2 0x1803 JUMP JUMPDEST DUP3 MSTORE POP POP JUMP JUMPDEST PUSH0 PUSH1 0x20 DUP3 ADD SWAP1 POP PUSH2 0x1836 PUSH0 DUP4 ADD DUP5 PUSH2 0x1814 JUMP JUMPDEST SWAP3 SWAP2 POP POP JUMP JUMPDEST PUSH2 0x1845 DUP2 PUSH2 0x1803 JUMP JUMPDEST DUP2 EQ PUSH2 0x184F JUMPI PUSH0 PUSH0 REVERT JUMPDEST POP JUMP JUMPDEST PUSH0 DUP2 CALLDATALOAD SWAP1 POP PUSH2 0x1860 DUP2 PUSH2 0x183C JUMP JUMPDEST SWAP3 SWAP2 POP POP JUMP JUMPDEST PUSH0 PUSH0 PUSH1 0x40 DUP4 DUP6 SUB SLT ISZERO PUSH2 0x187C JUMPI PUSH2 0x187B PUSH2 0x1621 JUMP JUMPDEST JUMPDEST PUSH0 PUSH2 0x1889 DUP6 DUP3 DUP7 ADD PUSH2 0x1852 JUMP JUMPDEST SWAP3 POP POP PUSH1 0x20 PUSH2 0x189A DUP6 DUP3 DUP7 ADD PUSH2 0x17A5 JUMP JUMPDEST SWAP2 POP POP SWAP3 POP SWAP3 SWAP1 POP JUMP JUMPDEST PUSH0 PUSH0 PUSH0 PUSH1 0x60 DUP5 DUP7 SUB SLT ISZERO PUSH2 0x18BB JUMPI PUSH2 0x18BA PUSH2 0x1621 JUMP JUMPDEST JUMPDEST PUSH0 PUSH2 0x18C8 DUP7 DUP3 DUP8 ADD PUSH2 0x1852 JUMP JUMPDEST SWAP4 POP POP PUSH1 0x20 PUSH2 0x18D9 DUP7 DUP3 DUP8 ADD PUSH2 0x1852 JUMP JUMPDEST SWAP3 POP POP PUSH1 0x40 PUSH2 0x18EA DUP7 DUP3 DUP8 ADD PUSH2 0x17A5 JUMP JUMPDEST SWAP2 POP POP SWAP3 POP SWAP3 POP SWAP3 JUMP JUMPDEST PUSH0 PUSH1 0x20 DUP3 DUP5 SUB SLT ISZERO PUSH2 0x1909 JUMPI PUSH2 0x1908 PUSH2 0x1621 JUMP JUMPDEST JUMPDEST PUSH0 PUSH2 0x1916 DUP5 DUP3 DUP6 ADD PUSH2 0x1852 JUMP JUMPDEST SWAP2 POP POP SWAP3 SWAP2 POP POP JUMP JUMPDEST PUSH2 0x1928 DUP2 PUSH2 0x1786 JUMP JUMPDEST DUP3 MSTORE POP POP JUMP JUMPDEST PUSH0 PUSH1 0x20 DUP3 ADD SWAP1 POP PUSH2 0x1941 PUSH0 DUP4 ADD DUP5 PUSH2 0x191F JUMP JUMPDEST SWAP3 SWAP2 POP POP JUMP JUMPDEST PUSH2 0x1950 DUP2 PUSH2 0x16A9 JUMP JUMPDEST DUP2 EQ PUSH2 0x195A JUMPI PUSH0 PUSH0 REVERT JUMPDEST POP JUMP JUMPDEST PUSH0 DUP2 CALLDATALOAD SWAP1 POP PUSH2 0x196B DUP2 PUSH2 0x1947 JUMP JUMPDEST SWAP3 SWAP2 POP POP JUMP JUMPDEST PUSH0 PUSH0 PUSH1 0x40 DUP4 DUP6 SUB SLT ISZERO PUSH2 0x1987 JUMPI PUSH2 0x1986 PUSH2 0x1621 JUMP JUMPDEST JUMPDEST PUSH0 PUSH2 0x1994 DUP6 DUP3 DUP7 ADD PUSH2 0x1852 JUMP JUMPDEST SWAP3 POP POP PUSH1 0x20 PUSH2 0x19A5 DUP6 DUP3 DUP7 ADD PUSH2 0x195D JUMP JUMPDEST SWAP2 POP POP SWAP3 POP SWAP3 SWAP1 POP JUMP JUMPDEST PUSH0 PUSH0 REVERT JUMPDEST PUSH0 PUSH0 REVERT JUMPDEST PUSH32 0x4E487B7100000000000000000000000000000000000000000000000000000000 PUSH0 MSTORE PUSH1 0x41 PUSH1 0x4 MSTORE PUSH1 0x24 PUSH0 REVERT JUMPDEST PUSH2 0x19ED DUP3 PUSH2 0x171E JUMP JUMPDEST DUP2 ADD DUP2 DUP2 LT PUSH8 0xFFFFFFFFFFFFFFFF DUP3 GT OR ISZERO PUSH2 0x1A0C JUMPI PUSH2 0x1A0B PUSH2 0x19B7 JUMP JUMPDEST JUMPDEST DUP1 PUSH1 0x40 MSTORE POP POP POP JUMP JUMPDEST PUSH0 PUSH2 0x1A1E PUSH2 0x1618 JUMP JUMPDEST SWAP1 POP PUSH2 0x1A2A DUP3 DUP3 PUSH2 0x19E4 JUMP JUMPDEST SWAP2 SWAP1 POP JUMP JUMPDEST PUSH0 PUSH8 0xFFFFFFFFFFFFFFFF DUP3 GT ISZERO PUSH2 0x1A49 JUMPI PUSH2 0x1A48 PUSH2 0x19B7 JUMP JUMPDEST JUMPDEST PUSH2 0x1A52 DUP3 PUSH2 0x171E JUMP JUMPDEST SWAP1 POP PUSH1 0x20 DUP2 ADD SWAP1 POP SWAP2 SWAP1 POP JUMP JUMPDEST DUP3 DUP2 DUP4 CALLDATACOPY PUSH0 DUP4 DUP4 ADD MSTORE POP POP POP JUMP JUMPDEST PUSH0 PUSH2 0x1A7F PUSH2 0x1A7A DUP5 PUSH2 0x1A2F JUMP JUMPDEST PUSH2 0x1A15 JUMP JUMPDEST SWAP1 POP DUP3 DUP2 MSTORE PUSH1 0x20 DUP2 ADD DUP5 DUP5 DUP5 ADD GT ISZERO PUSH2 0x1A9B JUMPI PUSH2 0x1A9A PUSH2 0x19B3 JUMP JUMPDEST JUMPDEST PUSH2 0x1AA6 DUP5 DUP3 DUP6 PUSH2 0x1A5F JUMP JUMPDEST POP SWAP4 SWAP3 POP POP POP JUMP JUMPDEST PUSH0 DUP3 PUSH1 0x1F DUP4 ADD SLT PUSH2 0x1AC2 JUMPI PUSH2 0x1AC1 PUSH2 0x19AF JUMP JUMPDEST JUMPDEST DUP2 CALLDATALOAD PUSH2 0x1AD2 DUP5 DUP3 PUSH1 0x20 DUP7 ADD PUSH2 0x1A6D JUMP JUMPDEST SWAP2 POP POP SWAP3 SWAP2 POP POP JUMP JUMPDEST PUSH0 PUSH0 PUSH0 PUSH0 PUSH1 0x80 DUP6 DUP8 SUB SLT ISZERO PUSH2 0x1AF3 JUMPI PUSH2 0x1AF2 PUSH2 0x1621 JUMP JUMPDEST JUMPDEST PUSH0 PUSH2 0x1B00 DUP8 DUP3 DUP9 ADD PUSH2 0x1852 JUMP JUMPDEST SWAP5 POP POP PUSH1 0x20 PUSH2 0x1B11 DUP8 DUP3 DUP9 ADD PUSH2 0x1852 JUMP JUMPDEST SWAP4 POP POP PUSH1 0x40 PUSH2 0x1B22 DUP8 DUP3 DUP9 ADD PUSH2 0x17A5 JUMP JUMPDEST SWAP3 POP POP PUSH1 0x60 DUP6 ADD CALLDATALOAD PUSH8 0xFFFFFFFFFFFFFFFF DUP2 GT ISZERO PUSH2 0x1B43 JUMPI PUSH2 0x1B42 PUSH2 0x1625 JUMP JUMPDEST JUMPDEST PUSH2 0x1B4F DUP8 DUP3 DUP9 ADD PUSH2 0x1AAE JUMP JUMPDEST SWAP2 POP POP SWAP3 SWAP6 SWAP2 SWAP5 POP SWAP3 POP JUMP JUMPDEST PUSH0 PUSH0 PUSH1 0x40 DUP4 DUP6 SUB SLT ISZERO PUSH2 0x1B71 JUMPI PUSH2 0x1B70 PUSH2 0x1621 JUMP JUMPDEST JUMPDEST PUSH0 PUSH2 0x1B7E DUP6 DUP3 DUP7 ADD PUSH2 0x1852 JUMP JUMPDEST SWAP3 POP POP PUSH1 0x20 PUSH2 0x1B8F DUP6 DUP3 DUP7 ADD PUSH2 0x1852 JUMP JUMPDEST SWAP2 POP POP SWAP3 POP SWAP3 SWAP1 POP JUMP JUMPDEST PUSH32 0x4E487B7100000000000000000000000000000000000000000000000000000000 PUSH0 MSTORE PUSH1 0x22 PUSH1 0x4 MSTORE PUSH1 0x24 PUSH0 REVERT JUMPDEST PUSH0 PUSH1 0x2 DUP3 DIV SWAP1 POP PUSH1 0x1 DUP3 AND DUP1 PUSH2 0x1BDD JUMPI PUSH1 0x7F DUP3 AND SWAP2 POP JUMPDEST PUSH1 0x20 DUP3 LT DUP2 SUB PUSH2 0x1BF0 JUMPI PUSH2 0x1BEF PUSH2 0x1B99 JUMP JUMPDEST JUMPDEST POP SWAP2 SWAP1 POP JUMP JUMPDEST PUSH32 0x746F6B656E20646F65736E277420657869737400000000000000000000000000 PUSH0 DUP3 ADD MSTORE POP JUMP JUMPDEST PUSH0 PUSH2 0x1C2A PUSH1 0x13 DUP4 PUSH2 0x16E6 JUMP JUMPDEST SWAP2 POP PUSH2 0x1C35 DUP3 PUSH2 0x1BF6 JUMP JUMPDEST PUSH1 0x20 DUP3 ADD SWAP1 POP SWAP2 SWAP1 POP JUMP JUMPDEST PUSH0 PUSH1 0x20 DUP3 ADD SWAP1 POP DUP2 DUP2 SUB PUSH0 DUP4 ADD MSTORE PUSH2 0x1C57 DUP2 PUSH2 0x1C1E JUMP JUMPDEST SWAP1 POP SWAP2 SWAP1 POP JUMP JUMPDEST PUSH32 0x6E6F74206F776E6572206E6F7220617070726F76656420666F7220616C6C0000 PUSH0 DUP3 ADD MSTORE POP JUMP JUMPDEST PUSH0 PUSH2 0x1C92 PUSH1 0x1E DUP4 PUSH2 0x16E6 JUMP JUMPDEST SWAP2 POP PUSH2 0x1C9D DUP3 PUSH2 0x1C5E JUMP JUMPDEST PUSH1 0x20 DUP3 ADD SWAP1 POP SWAP2 SWAP1 POP JUMP JUMPDEST PUSH0 PUSH1 0x20 DUP3 ADD SWAP1 POP DUP2 DUP2 SUB PUSH0 DUP4 ADD MSTORE PUSH2 0x1CBF DUP2 PUSH2 0x1C86 JUMP JUMPDEST SWAP1 POP SWAP2 SWAP1 POP JUMP JUMPDEST PUSH32 0x6E6F74206F776E6572206E6F7220617070726F76656400000000000000000000 PUSH0 DUP3 ADD MSTORE POP JUMP JUMPDEST PUSH0 PUSH2 0x1CFA PUSH1 0x16 DUP4 PUSH2 0x16E6 JUMP JUMPDEST SWAP2 POP PUSH2 0x1D05 DUP3 PUSH2 0x1CC6 JUMP JUMPDEST PUSH1 0x20 DUP3 ADD SWAP1 POP SWAP2 SWAP1 POP JUMP JUMPDEST PUSH0 PUSH1 0x20 DUP3 ADD SWAP1 POP DUP2 DUP2 SUB PUSH0 DUP4 ADD MSTORE PUSH2 0x1D27 DUP2 PUSH2 0x1CEE JUMP JUMPDEST SWAP1 POP SWAP2 SWAP1 POP JUMP JUMPDEST PUSH32 0x746F6B656E4964206F7574206F662072616E6765000000000000000000000000 PUSH0 DUP3 ADD MSTORE POP JUMP JUMPDEST PUSH0 PUSH2 0x1D62 PUSH1 0x14 DUP4 PUSH2 0x16E6 JUMP JUMPDEST SWAP2 POP PUSH2 0x1D6D DUP3 PUSH2 0x1D2E JUMP JUMPDEST PUSH1 0x20 DUP3 ADD SWAP1 POP SWAP2 SWAP1 POP JUMP JUMPDEST PUSH0 PUSH1 0x20 DUP3 ADD SWAP1 POP DUP2 DUP2 SUB PUSH0 DUP4 ADD MSTORE PUSH2 0x1D8F DUP2 PUSH2 0x1D56 JUMP JUMPDEST SWAP1 POP SWAP2 SWAP1 POP JUMP JUMPDEST PUSH32 0x6F776E6572203D207A65726F2061646472657373000000000000000000000000 PUSH0 DUP3 ADD MSTORE POP JUMP JUMPDEST PUSH0 PUSH2 0x1DCA PUSH1 0x14 DUP4 PUSH2 0x16E6 JUMP JUMPDEST SWAP2 POP PUSH2 0x1DD5 DUP3 PUSH2 0x1D96 JUMP JUMPDEST PUSH1 0x20 DUP3 ADD SWAP1 POP SWAP2 SWAP1 POP JUMP JUMPDEST PUSH0 PUSH1 0x20 DUP3 ADD SWAP1 POP DUP2 DUP2 SUB PUSH0 DUP4 ADD MSTORE PUSH2 0x1DF7 DUP2 PUSH2 0x1DBE JUMP JUMPDEST SWAP1 POP SWAP2 SWAP1 POP JUMP JUMPDEST PUSH32 0x546F6B656E204E6F742045786973740000000000000000000000000000000000 PUSH0 DUP3 ADD MSTORE POP JUMP JUMPDEST PUSH0 PUSH2 0x1E32 PUSH1 0xF DUP4 PUSH2 0x16E6 JUMP JUMPDEST SWAP2 POP PUSH2 0x1E3D DUP3 PUSH2 0x1DFE JUMP JUMPDEST PUSH1 0x20 DUP3 ADD SWAP1 POP SWAP2 SWAP1 POP JUMP JUMPDEST PUSH0 PUSH1 0x20 DUP3 ADD SWAP1 POP DUP2 DUP2 SUB PUSH0 DUP4 ADD MSTORE PUSH2 0x1E5F DUP2 PUSH2 0x1E26 JUMP JUMPDEST SWAP1 POP SWAP2 SWAP1 POP JUMP JUMPDEST PUSH0 DUP2 SWAP1 POP SWAP3 SWAP2 POP POP JUMP JUMPDEST PUSH0 PUSH2 0x1E7A DUP3 PUSH2 0x16DC JUMP JUMPDEST PUSH2 0x1E84 DUP2 DUP6 PUSH2 0x1E66 JUMP JUMPDEST SWAP4 POP PUSH2 0x1E94 DUP2 DUP6 PUSH1 0x20 DUP7 ADD PUSH2 0x16F6 JUMP JUMPDEST DUP1 DUP5 ADD SWAP2 POP POP SWAP3 SWAP2 POP POP JUMP JUMPDEST PUSH0 PUSH2 0x1EAB DUP3 DUP6 PUSH2 0x1E70 JUMP JUMPDEST SWAP2 POP PUSH2 0x1EB7 DUP3 DUP5 PUSH2 0x1E70 JUMP JUMPDEST SWAP2 POP DUP2 SWAP1 POP SWAP4 SWAP3 POP POP POP JUMP JUMPDEST PUSH32 0x6E6F74206F776E65720000000000000000000000000000000000000000000000 PUSH0 DUP3 ADD MSTORE POP JUMP JUMPDEST PUSH0 PUSH2 0x1EF7 PUSH1 0x9 DUP4 PUSH2 0x16E6 JUMP JUMPDEST SWAP2 POP PUSH2 0x1F02 DUP3 PUSH2 0x1EC3 JUMP JUMPDEST PUSH1 0x20 DUP3 ADD SWAP1 POP SWAP2 SWAP1 POP JUMP JUMPDEST PUSH0 PUSH1 0x20 DUP3 ADD SWAP1 POP DUP2 DUP2 SUB PUSH0 DUP4 ADD MSTORE PUSH2 0x1F24 DUP2 PUSH2 0x1EEB JUMP JUMPDEST SWAP1 POP SWAP2 SWAP1 POP JUMP JUMPDEST PUSH32 0x7472616E7366657220746F20746865207A65726F206164647265737300000000 PUSH0 DUP3 ADD MSTORE POP JUMP JUMPDEST PUSH0 PUSH2 0x1F5F PUSH1 0x1C DUP4 PUSH2 0x16E6 JUMP JUMPDEST SWAP2 POP PUSH2 0x1F6A DUP3 PUSH2 0x1F2B JUMP JUMPDEST PUSH1 0x20 DUP3 ADD SWAP1 POP SWAP2 SWAP1 POP JUMP JUMPDEST PUSH0 PUSH1 0x20 DUP3 ADD SWAP1 POP DUP2 DUP2 SUB PUSH0 DUP4 ADD MSTORE PUSH2 0x1F8C DUP2 PUSH2 0x1F53 JUMP JUMPDEST SWAP1 POP SWAP2 SWAP1 POP JUMP JUMPDEST PUSH32 0x4E487B7100000000000000000000000000000000000000000000000000000000 PUSH0 MSTORE PUSH1 0x11 PUSH1 0x4 MSTORE PUSH1 0x24 PUSH0 REVERT JUMPDEST PUSH0 PUSH2 0x1FCA DUP3 PUSH2 0x1786 JUMP JUMPDEST SWAP2 POP PUSH2 0x1FD5 DUP4 PUSH2 0x1786 JUMP JUMPDEST SWAP3 POP DUP3 DUP3 SUB SWAP1 POP DUP2 DUP2 GT ISZERO PUSH2 0x1FED JUMPI PUSH2 0x1FEC PUSH2 0x1F93 JUMP JUMPDEST JUMPDEST SWAP3 SWAP2 POP POP JUMP JUMPDEST PUSH0 PUSH2 0x1FFD DUP3 PUSH2 0x1786 JUMP JUMPDEST SWAP2 POP PUSH2 0x2008 DUP4 PUSH2 0x1786 JUMP JUMPDEST SWAP3 POP DUP3 DUP3 ADD SWAP1 POP DUP1 DUP3 GT ISZERO PUSH2 0x2020 JUMPI PUSH2 0x201F PUSH2 0x1F93 JUMP JUMPDEST JUMPDEST SWAP3 SWAP2 POP POP JUMP JUMPDEST PUSH32 0x6D696E7420746F207A65726F2061646472657373000000000000000000000000 PUSH0 DUP3 ADD MSTORE POP JUMP JUMPDEST PUSH0 PUSH2 0x205A PUSH1 0x14 DUP4 PUSH2 0x16E6 JUMP JUMPDEST SWAP2 POP PUSH2 0x2065 DUP3 PUSH2 0x2026 JUMP JUMPDEST PUSH1 0x20 DUP3 ADD SWAP1 POP SWAP2 SWAP1 POP JUMP JUMPDEST PUSH0 PUSH1 0x20 DUP3 ADD SWAP1 POP DUP2 DUP2 SUB PUSH0 DUP4 ADD MSTORE PUSH2 0x2087 DUP2 PUSH2 0x204E JUMP JUMPDEST SWAP1 POP SWAP2 SWAP1 POP JUMP JUMPDEST PUSH32 0x746F6B656E20616C7265616479206D696E746564000000000000000000000000 PUSH0 DUP3 ADD MSTORE POP JUMP JUMPDEST PUSH0 PUSH2 0x20C2 PUSH1 0x14 DUP4 PUSH2 0x16E6 JUMP JUMPDEST SWAP2 POP PUSH2 0x20CD DUP3 PUSH2 0x208E JUMP JUMPDEST PUSH1 0x20 DUP3 ADD SWAP1 POP SWAP2 SWAP1 POP JUMP JUMPDEST PUSH0 PUSH1 0x20 DUP3 ADD SWAP1 POP DUP2 DUP2 SUB PUSH0 DUP4 ADD MSTORE PUSH2 0x20EF DUP2 PUSH2 0x20B6 JUMP JUMPDEST SWAP1 POP SWAP2 SWAP1 POP JUMP JUMPDEST PUSH0 PUSH2 0x2100 DUP3 PUSH2 0x1786 JUMP JUMPDEST SWAP2 POP PUSH32 0xFFFFFFFFFFFFFFFFFFFFFFFFFFFFFFFFFFFFFFFFFFFFFFFFFFFFFFFFFFFFFFFF DUP3 SUB PUSH2 0x2132 JUMPI PUSH2 0x2131 PUSH2 0x1F93 JUMP JUMPDEST JUMPDEST PUSH1 0x1 DUP3 ADD SWAP1 POP SWAP2 SWAP1 POP JUMP JUMPDEST PUSH32 0x4E487B7100000000000000000000000000000000000000000000000000000000 PUSH0 MSTORE PUSH1 0x12 PUSH1 0x4 MSTORE PUSH1 0x24 PUSH0 REVERT JUMPDEST PUSH0 PUSH2 0x2174 DUP3 PUSH2 0x1786 JUMP JUMPDEST SWAP2 POP PUSH2 0x217F DUP4 PUSH2 0x1786 JUMP JUMPDEST SWAP3 POP DUP3 PUSH2 0x218F JUMPI PUSH2 0x218E PUSH2 0x213D JUMP JUMPDEST JUMPDEST DUP3 DUP3 DIV SWAP1 POP SWAP3 SWAP2 POP POP JUMP JUMPDEST PUSH0 PUSH2 0x21A4 DUP3 PUSH2 0x1786 JUMP JUMPDEST SWAP2 POP PUSH2 0x21AF DUP4 PUSH2 0x1786 JUMP JUMPDEST SWAP3 POP DUP3 PUSH2 0x21BF JUMPI PUSH2 0x21BE PUSH2 0x213D JUMP JUMPDEST JUMPDEST DUP3 DUP3 MOD SWAP1 POP SWAP3 SWAP2 POP POP JUMP JUMPDEST PUSH32 0x4E487B7100000000000000000000000000000000000000000000000000000000 PUSH0 MSTORE PUSH1 0x32 PUSH1 0x4 MSTORE PUSH1 0x24 PUSH0 REVERT JUMPDEST PUSH0 DUP2 MLOAD SWAP1 POP SWAP2 SWAP1 POP JUMP JUMPDEST PUSH0 DUP3 DUP3 MSTORE PUSH1 0x20 DUP3 ADD SWAP1 POP SWAP3 SWAP2 POP POP JUMP JUMPDEST PUSH0 PUSH2 0x221B DUP3 PUSH2 0x21F7 JUMP JUMPDEST PUSH2 0x2225 DUP2 DUP6 PUSH2 0x2201 JUMP JUMPDEST SWAP4 POP PUSH2 0x2235 DUP2 DUP6 PUSH1 0x20 DUP7 ADD PUSH2 0x16F6 JUMP JUMPDEST PUSH2 0x223E DUP2 PUSH2 0x171E JUMP JUMPDEST DUP5 ADD SWAP2 POP POP SWAP3 SWAP2 POP POP JUMP JUMPDEST PUSH0 PUSH1 0x80 DUP3 ADD SWAP1 POP PUSH2 0x225C PUSH0 DUP4 ADD DUP8 PUSH2 0x1814 JUMP JUMPDEST PUSH2 0x2269 PUSH1 0x20 DUP4 ADD DUP7 PUSH2 0x1814 JUMP JUMPDEST PUSH2 0x2276 PUSH1 0x40 DUP4 ADD DUP6 PUSH2 0x191F JUMP JUMPDEST DUP2 DUP2 SUB PUSH1 0x60 DUP4 ADD MSTORE PUSH2 0x2288 DUP2 DUP5 PUSH2 0x2211 JUMP JUMPDEST SWAP1 POP SWAP6 SWAP5 POP POP POP POP POP JUMP JUMPDEST PUSH0 DUP2 MLOAD SWAP1 POP PUSH2 0x22A1 DUP2 PUSH2 0x1654 JUMP JUMPDEST SWAP3 SWAP2 POP POP JUMP JUMPDEST PUSH0 PUSH1 0x20 DUP3 DUP5 SUB SLT ISZERO PUSH2 0x22BC JUMPI PUSH2 0x22BB PUSH2 0x1621 JUMP JUMPDEST JUMPDEST PUSH0 PUSH2 0x22C9 DUP5 DUP3 DUP6 ADD PUSH2 0x2293 JUMP JUMPDEST SWAP2 POP POP SWAP3 SWAP2 POP POP JUMP INVALID PUSH10 0x7066733A2F2F516D6553 PUSH11 0x53696E4870506E6D586D73 PUSH17 0x4D6A776958794E367A533445397A636361 PUSH19 0x694752336A7863615774712FA2646970667358 0x22 SLT KECCAK256 COINBASE 0xBD 0xA8 0x1F 0x1F SWAP5 0xCE DUP9 LOG4 0x4D PUSH10 0x96979F727B48335014C5 0xC6 BLOBHASH INVALID 0xC8 GASLIMIT BLOCKHASH SWAP3 SWAP4 EXTCALL DUP3 PUSH31 0x64736F6C634300081E00330000000000000000000000000000000000000000 "
				},
				"gasEstimates": {
					"creation": {
						"codeDepositCost": "1804400",
						"executionCost": "infinite",
						"totalCost": "infinite"
					},
					"external": {
						"MAX_APES()": "2469",
						"approve(address,uint256)": "31535",
						"balanceOf(address)": "2908",
						"getApproved(uint256)": "5165",
						"isApprovedForAll(address,address)": "infinite",
						"mint(address,uint256)": "infinite",
						"name()": "infinite",
						"ownerOf(uint256)": "2961",
						"safeTransferFrom(address,address,uint256)": "infinite",
						"safeTransferFrom(address,address,uint256,bytes)": "infinite",
						"setApprovalForAll(address,bool)": "infinite",
						"supportsInterface(bytes4)": "745",
						"symbol()": "infinite",
						"tokenURI(uint256)": "infinite",
						"transferFrom(address,address,uint256)": "infinite"
					},
					"internal": {
						"_baseURI()": "infinite"
					}
				},
				"methodIdentifiers": {
					"MAX_APES()": "bb8a16bd",
					"approve(address,uint256)": "095ea7b3",
					"balanceOf(address)": "70a08231",
					"getApproved(uint256)": "081812fc",
					"isApprovedForAll(address,address)": "e985e9c5",
					"mint(address,uint256)": "40c10f19",
					"name()": "06fdde03",
					"ownerOf(uint256)": "6352211e",
					"safeTransferFrom(address,address,uint256)": "42842e0e",
					"safeTransferFrom(address,address,uint256,bytes)": "b88d4fde",
					"setApprovalForAll(address,bool)": "a22cb465",
					"supportsInterface(bytes4)": "01ffc9a7",
					"symbol()": "95d89b41",
					"tokenURI(uint256)": "c87b56dd",
					"transferFrom(address,address,uint256)": "23b872dd"
				}
			},
			"storageLayout": {
				"storage": [
					{
						"astId": 16,
						"contract": "WTFApe.sol:WTFApe",
						"label": "name",
						"offset": 0,
						"slot": "0",
						"type": "t_string_storage"
					},
					{
						"astId": 19,
						"contract": "WTFApe.sol:WTFApe",
						"label": "symbol",
						"offset": 0,
						"slot": "1",
						"type": "t_string_storage"
					},
					{
						"astId": 23,
						"contract": "WTFApe.sol:WTFApe",
						"label": "_owners",
						"offset": 0,
						"slot": "2",
						"type": "t_mapping(t_uint256,t_address)"
					},
					{
						"astId": 27,
						"contract": "WTFApe.sol:WTFApe",
						"label": "_balances",
						"offset": 0,
						"slot": "3",
						"type": "t_mapping(t_address,t_uint256)"
					},
					{
						"astId": 31,
						"contract": "WTFApe.sol:WTFApe",
						"label": "_tokenApprovals",
						"offset": 0,
						"slot": "4",
						"type": "t_mapping(t_uint256,t_address)"
					},
					{
						"astId": 37,
						"contract": "WTFApe.sol:WTFApe",
						"label": "_operatorApprovals",
						"offset": 0,
						"slot": "5",
						"type": "t_mapping(t_address,t_mapping(t_address,t_bool))"
					},
					{
						"astId": 1080,
						"contract": "WTFApe.sol:WTFApe",
						"label": "MAX_APES",
						"offset": 0,
						"slot": "6",
						"type": "t_uint256"
					}
				],
				"types": {
					"t_address": {
						"encoding": "inplace",
						"label": "address",
						"numberOfBytes": "20"
					},
					"t_bool": {
						"encoding": "inplace",
						"label": "bool",
						"numberOfBytes": "1"
					},
					"t_mapping(t_address,t_bool)": {
						"encoding": "mapping",
						"key": "t_address",
						"label": "mapping(address => bool)",
						"numberOfBytes": "32",
						"value": "t_bool"
					},
					"t_mapping(t_address,t_mapping(t_address,t_bool))": {
						"encoding": "mapping",
						"key": "t_address",
						"label": "mapping(address => mapping(address => bool))",
						"numberOfBytes": "32",
						"value": "t_mapping(t_address,t_bool)"
					},
					"t_mapping(t_address,t_uint256)": {
						"encoding": "mapping",
						"key": "t_address",
						"label": "mapping(address => uint256)",
						"numberOfBytes": "32",
						"value": "t_uint256"
					},
					"t_mapping(t_uint256,t_address)": {
						"encoding": "mapping",
						"key": "t_uint256",
						"label": "mapping(uint256 => address)",
						"numberOfBytes": "32",
						"value": "t_address"
					},
					"t_string_storage": {
						"encoding": "bytes",
						"label": "string",
						"numberOfBytes": "32"
					},
					"t_uint256": {
						"encoding": "inplace",
						"label": "uint256",
						"numberOfBytes": "32"
					}
				}
			},
			"userdoc": {
				"kind": "user",
				"methods": {
					"safeTransferFrom(address,address,uint256,bytes)": {
						"notice": "实现IERC721的safeTransferFrom，安全转账，调用了_safeTransfer函数。"
					},
					"tokenURI(uint256)": {
						"notice": "实现IERC721Metadata的tokenURI函数，查询metadata。"
					}
				},
				"version": 1
			}
		}
	}
}